:020000040800F2
:1000000000C0002091370008813A0008853A0008B6
:10001000893A00088D3A0008913A0008E13A000850
:10002000E13A0008E13A0008E13A0008E13A000844
:10003000E13A0008E13A0008E13A0008A13F00086F
:10004000E13A0008E13A0008E13A0008F936000810
:10005000E13A0008E13A0008E13A0008E13A000814
:10006000E13A0008E13A0008E13A0008E13A000804
:10007000E13A0008E13A0008E13A0008E13A0008F4
:10008000E13A0008E13A0008593B0008E13A00086B
:10009000E13A0008E13A0008E13A0008E13A0008D4
:1000A0002D4200085142000875420008AD42000888
:1000B0000143000871430008E1430008E13A0008E9
:1000C000E13A0008E13A0008E13A0008E13A0008A4
:1000D000E13A0008D94600082D470008814700088A
:1000E000E13A000841370008E13A000809450008F4
:1000F0002D4500085145000889450008A93B000826
:10010000E13A0008E13A000851440008E13A0008E9
:10011000D547000829480008C1440008E544000804
:10012000E13A0008E13A0008E13A0008E13A000843
:1001300010B5054C237833B9044B13B10448AFF321
:1001400000800123237010BD08170020000000006C
:10015000246C000808B5064B1BB106480649AFF3EE
:1001600000800648036813B1054B03B1984708BDEA
:1001700000000000246C00080C1700200817002065
:100180000000000002F09CBD38B50D46044602F0A8
:10019000B2FD290A49006039204601F0FE0102F053
:1001A00041FE204602F017FEE9B2204602F03AFE78
:1001B000204602F010FE204602F09DFD2046A121BF
:1001C00002F030FE204602F006FE0021204602F03A
:1001D00050FE0546204602F0E1FD204602F0A6FD55
:1001E000284638BD70B50D461646044602F083FD1C
:1001F000290A49006039204601F0FE0102F012FE92
:10020000204602F0E8FDE9B2204602F00BFE20464F
:1002100002F0E1FD3146204602F004FE204602F0E5
:10022000DAFD204602F082FDBDE870400A2004F0AD
:1002300071BF000008B50E4A5178937843EA012354
:10024000A3F52043113B032B07D8DFE803F00C0E86
:100250000204022008BD032008BD002180220448BA
:1002600005F0B2FE08BD002008BD012008BD00BF9A
:100270002417002010B5074C6018114602F08AFCC4
:10028000054B1B781C4414F8073C1B1A5842584174
:1002900010BD00BF24170020A6170020084B1879B6
:1002A0005B7943EA002045F25553984205D04CF261
:1002B0000403C31A5842584170470120704700BFD9
:1002C00024170020044B9B79552B044B0CBF0122B3
:1002D00000221A70704700BF24170020A4170020C6
:1002E00010B5084CE379552B01D1012010BD06480B
:1002F00001F083F9E3798342F7D0D0F1010038BFF0
:10030000002010BD24170020AB17002013B50D4BA3
:100310001C7A552C01D1012012E00B48694601F0EE
:10032000C7F800231A461DF803108C42F3D019B900
:100330000132D2B2052AEED00133052BF3D10020D1
:1003400002B010BD24170020AB17002070B5054681
:100350001E46FFF78FFF0446A8B12846FFF79EFF11
:10036000044648B12846FFF7ADFF2846FFF7B8FF1F
:10037000044658B9A6B909E01249134804F0A4FC90
:100380001148124919E01048114916E02846FFF7B4
:10039000BDFF044698B99DF8103043B901240EE022
:1003A0000C49094804F090FC07480B4905E00B494B
:1003B000054804F089FC0448094904F085FC2046FE
:1003C00070BD00BF70830008041800209E830008E1
:1003D000CC830008F0830008278400085E840008AE
:1003E000968400081E4B13B51B78002B35D00023D4
:1003F0000093042117220123FFF7A8FF20B3194B14
:100400001C7A012C1DD11848D97C01F067F970B114
:10041000224616480F2102F0FBFF2146144800F047
:1004200051FD12482146022202F02AFF0CE00F483B
:100430001021022202F0ECFF0E490F4804F044FCA8
:1004400002E00A4802F096FD0C4B06481A7800219B
:1004500002B0BDE8104005F0B7BD02B010BD00BF4E
:100460000D00002024170020A8170020FE170020F0
:10047000A7170020CA84000804180020A61700202F
:10048000164B07B51B7833B30023009304210A22CF
:100490000123FFF75BFFA8B11148124900F0BAFF32
:1004A00038B11149114804F00FFC11480321022210
:1004B00006E010490D4804F007FC0D480421012214
:1004C00002F0A6FF0C4B0D481A78002103B05DF82E
:1004D00004EB05F079BD03B05DF804FB0D000020CE
:1004E000AB1700202C1700200E85000804180020F0
:1004F000FE17002050850008A617002024170020B2
:1005000013B50023009304210F22FFF71FFF08B348
:100510001B4C1C4804F10A0100F0F1FD68B31948B6
:1005200004F10A0100F02BFE38B31749174804F014
:10053000CBFB1448E17901F027F8A0B11449134826
:1005400004F0C2FB13480521012202F061FF0D48AF
:1005500000F0F6FE104B0A481A78002102B0BDE800
:10056000104005F031BD09480C4904F0ADFB0948C5
:100570000621012202F04CFFECE704480849F4E7A9
:1005800024170020AB1700201D8600080418002047
:1005900092850008FE170020A6170020D8850008C5
:1005A0004A8600080E4B07B51B78ABB100230093B9
:1005B000042105220123FFF7C9FE20B101210948CA
:1005C0000A4602F05DFE084B08481A78002103B085
:1005D0005DF804EB05F0F8BC03B05DF804FB00BF68
:1005E0000D000020FE170020A61700202417002071
:1005F00010B50446FFF71EFE032817D8DFE800F009
:1006000002070C112046BDE81040FFF7EBBE204664
:10061000BDE81040FFF734BF2046BDE81040FFF7AB
:100620006FBF2046BDE81040FFF7BCBF10BD000003
:100630002DE9F047484C00268146267003F0A4FBC4
:1006400037463546454804F0FBF900287FDD03F0C6
:100650009BFB94F800A041480AF10103237004F0C9
:100660009BF9DFF8108108F80A00032004F052FD1E
:1006700023781022434413F8011C394804F07EFB10
:100680003748384904F005FB94F90030002B06DAAE
:10069000314B002140468022197005F095FC2278EC
:1006A00008EB020313F8013CFE2B03D1561EF6B2F1
:1006B0005FBB02E04FBB0D2B27D00027052DC1D11A
:1006C0002949274804F000FB2548284904F0FCFA92
:1006D00036B9274B1B7893B14846FFF789FF0EE0E8
:1006E00021780023891BDAB2F0188A42C0B203F1E4
:1006F0000103EEDA18F8000008F80200F3E700231F
:100700002370BDE8F04703F03FBB042D1BD8DFE8A2
:1007100005F003070C1116000A3B5D425D4114E031
:100720000D2B0CBF022500250FE00A2B0CBF032563
:1007300000250AE00D2B0CBF0425002505E00A2B3F
:10074000BED0002501E00127B8E701277AE70023A2
:100750002370BDE8F08700BFA61700201C180020FA
:1007600004180020CB97000885860008A986000899
:100770000C0000202417002008B51D20002104F0E3
:1007800037FC1D20012104F099FC1020002104F009
:100790002FFC1120002104F02BFC1C20002104F070
:1007A00027FC1120002104F089FC1C20012104F009
:1007B00085FCBDE808401020002104F07FBC00004B
:1007C000014804F09BB900BF1C18002008B561B1B6
:1007D00000211C2004F072FC962004F09BFCBDE874
:1007E00008401C20012104F069BC08BD08B50021A7
:1007F0001D2004F063FC0C4804F083F90220002162
:1008000004F0F6FB0320002104F0F2FB022000219B
:1008100004F054FC0320002104F050FCBDE8084023
:100820001C20002104F04ABC1C18002010B50B78D5
:10083000452B12D14B78522B0FD18B78CC78303B93
:1008400003EB8303303C04EB4304E4B221460A2269
:10085000034804F09CFA204610BD0A2010BD00BFDA
:10086000041800200B784F2B07D148784B2804D16F
:1008700013704B780120537070470020704730B5DB
:100880000020C4B20D5D01302C2D01D01D55F8E7BC
:10089000601C5525C0B21D55904204D20C5C1C54FE
:1008A0000130C0B2F8E730BDF8B54C78432C08D120
:1008B0008C78532C05D1CC78B4F151056C426C4145
:1008C00000E000240026F5B24F5D01363A2FFAD140
:1008D0000135EDB200279542FEB207F1010706D8B7
:1008E00011F805C0013501F806C0EDB2F3E73CB9D7
:1008F0002046C2B2B2420BD20A5C1A540130F8E769
:10090000069A022412681470721ED2B2FFF7B7FF63
:100910000120F8BD37B5154809B9154900E015495A
:1009200004F0B7F9642004F0F5FB00240F4804F04C
:1009300087F80028E5B208DD062C14D00B4804F037
:100940002BF80DF804000134F0E755B19DF80230A2
:100950004F2B08D19DF80300B0F14B03584258418A
:1009600002E0284600E0002003B030BD1C18002043
:10097000D4860008D886000810B5012104461D2041
:1009800004F09CFB07484FF4165104F0B7F82046DA
:100990000121FFF71BFF20460121BDE81040FFF7B2
:1009A000B9BF00BF1C1800202DE9F0419EB005AD75
:1009B0000C4607460021904628466422039305F022
:1009C00003FB21462C4804F064F9642004F0A2FBE8
:1009D0000024294804F034F80028E6B207DD642C2E
:1009E00045D0254803F0D8FF28550134F1E726B952
:1009F0002249234804F068F939E09DF814300D2BA2
:100A000035D19DF815300A2B31D11EAB334413F884
:100A1000653C0A2B2BD1023E1EAB334413F8643CD9
:100A20000D2B24D10021CCB2A31CDBB2B34201F1C7
:100A3000010107DA1EAA134413F8643C144404F8B5
:100A4000643CF0E738462946FFF7F0FE0A280CD14F
:100A500003AB00933846294622464346FFF724FF5E
:100A600000280CBF0320022002E0012000E0032048
:100A70001EB0BDE8F08100BF1C180020DE86000813
:100A8000041800202DE9F041B2B006460D4690460C
:100A90000021642268461F4605F096FA19A8002135
:100AA000642205F091FA0024E3B2E85C013420B13D
:100AB00032AA134403F8640CF6E70146CAB25D1883
:100AC00018F80240EDB232AA01312A4414B102F8FA
:100AD000644CF3E70D2302F8643C6B1C32A8DBB2D4
:100AE00003442F480A2203F8642C036819A95B68A1
:100AF00098472C48AA1C036819A99B68D2B298474A
:100B0000642004F007FB274803F09AFF0028E5B2B1
:100B100008DD642C3FD0234803F03EFF0DF80400AD
:100B20000134F0E7002D36D09DF800300D2B32D186
:100B30009DF801300A2B2ED132AB2B4413F8C93C5F
:100B40000A2B28D1023D32AB2B4413F8C83C0D2BA5
:100B500021D100218B1CDBB2AB4201F1010209DA89
:100B600032A8034413F8C83CC9B2014401F8C83C98
:100B70001146EFE730466946FFF758FE0A2808D1CC
:100B8000304669463A46FFF76DFE80F00100C0B27C
:100B900002E0012000E0032032B0BDE8F08100BF98
:100BA000041800201C180020F7B51E4604461746FE
:100BB0000D4600218DF80710FFF7ACFE03F0E4F8B6
:100BC000204631462FB12A460DF10703FFF7ECFE10
:100BD00003E0089A2B46FFF755FF03282AD8DFE8E1
:100BE00000F011040207002311E01648164901E045
:100BF0001448164904F068F820460121FFF78AFEE0
:100C000000201CE012490F4804F05EF812E09DF845
:100C100007205E1CDBB29A420A4809D9E95C10221F
:100C200004F0ACF807480B4904F033F83346EEE71C
:100C300004F034F820460121FFF76CFE012003B0D8
:100C4000F0BD00BF04180020F286000803870008EA
:100C50000C870008CB9700082DE9F0438BB004AF58
:100C6000804600210922384602AE002405F0ACF986
:100C70000094404631460122304BFFF795FF054670
:100C800010B92F482F4953E02346F25C07AC092ADC
:100C900001D8303204E0A2F10A01052998BF3732A9
:100CA000E2540133082BF0D14FF0000926488DF8AB
:100CB000249000F003FE024600B32449204804F0CB
:100CC00003F823491E4803F0FFFF1F48394600F090
:100CD00063FD70B14B46E15CFA5C91421BD101337C
:100CE000082BF8D11B49164803F0EEFF14481A49A7
:100CF0001EE01A49124803F0E7FF07E0009440465F
:100D00003146174BFFF750FF054698B121460E4874
:100D100000F092FD0AE01349094803F0D5FF00975F
:100D20004046314600220E4BFFF73EFF054601E0EC
:100D300003F0CAFF28460BB0BDE8F0832287000805
:100D4000041800202D870008A81700204D870008F0
:100D50006B870008F38700081D8800088987000852
:100D6000AD870008B68700082DE9F04F89B002AFC3
:100D700007F10C068346894690461C463046002102
:100D80000A2205F021F9002C50D1C7F804D05846AA
:100D9000CDF80080314601224B46FFF705FF824621
:100DA00008B1214606E04049404803F08DFF3F4826
:100DB0003F496FE0CCB218F804300131002BF9D173
:100DC000E11D01F4FC71ADEB010D02A9D8B2A04206
:100DD00003D2F05CC8540133F8E70B46581AC0B28E
:100DE000A0420DD213F8010B092801D8303004E0DD
:100DF000A0F10A05052DF1D8373003F8010CEDE715
:100E00000025EBB2A34243D24B5D013508EB050050
:100E100010F8010C9842F4D02649244803F054FFFE
:100E20002248254903F050FF7B689D466C4600230D
:100E3000DAB219F8021001330A29F9D1931D03F42B
:100E4000FC73ADEB030DA2F1020E02AB0020C1B2A8
:100E5000551EA94200F1010003DA19F801505D5452
:100E6000F5E700223D215A55584603F80E10CDF8FB
:100E700000803146FFF798FE054628B90B480F4918
:100E800003F022FFAA4601E04FF0010AA54605E063
:100E900006480B4903F018FF7B689D4650461C37F7
:100EA000BD46BDE8F08F00BF3F8800080418002051
:100EB0006588000889880008E08800082289000801
:100EC000578900087FB50F2204460D466846002169
:100ED00005F07AF86248634903F0F6FE0A2602F04C
:100EE00053FF002D6CD12046FFF7B6FE5E498DF80A
:100EF00000005E4A2B462046FFF736FF5C498DF81E
:100F000001005C4A2B462046FFF72EFF5A498DF818
:100F100002005A4A2B462046FFF726FF58498DF813
:100F20000300584A2B462046FFF71EFF564A5749F2
:100F30002B468DF804002046FFF716FF8DF80500BC
:100F4000534800F00BFCF1280CBF524A494A524961
:100F50002B462046FFF708FF50498DF80600504AFF
:100F600000232046FFF700FF4E498DF807004C4A4A
:100F700000232046FFF7F8FE4B498DF80800454A4C
:100F800000232046FFF7F0FE48498DF80900484A43
:100F900000232046FFF7E8FE46498DF80A00464A3E
:100FA00000232046FFF7E0FE324A8DF80B0043494C
:100FB00020460023FFF7D8FE0D228DF80C000EE02E
:100FC000334800F0CBFBF1280CBF324A294A2046B7
:100FD00031490023FFF7C8FE01228DF800000023ED
:100FE0001DF80310A9B936491D4803F06DFE2046CF
:100FF000FFF7C2FC2046FFF7F9FB02F0C5FE2046D2
:10100000FFF7BAFC4FF4FA6004F084F802F0BCFE7B
:1010100005E00133D9B29142E2D304B070BD294852
:1010200003F00EFD002803DD264803F0B5FCF6E7CB
:10103000013E16F0FF067FF452AF2349084803F043
:1010400043FE2249064803F03FFE40F6B83004F064
:1010500061F802F099FE04B0BDE8704002F0C8BE2D
:10106000041800207F890008AE890008BA890008AA
:10107000C3890008C0890008CD890008D989000803
:10108000E2890008EE890008028A0008F789000852
:10109000A81700200F8A0008058A0008128A000895
:1010A0001C8A00081F8A0008298A0008338A000861
:1010B0003C8A00083F8A0008498A00084C8A0008D8
:1010C000568A00081C180020738A00089F8A0008AE
:1010D0001520012103F0F2BF1520002103F0EEBF1F
:1010E00010B500210446152003F082FF15200121D0
:1010F00003F0E4FF2046BDE81040FFF743B87FB59A
:1011000005460E46FFF7E8FF0D2433192146284611
:1011100013F80D2C0134FFF765F8162CF5D1304685
:10112000092101F037FD0646214628463246FFF7E1
:1011300059F80D2421462846FFF726F801AB234431
:101140000134162C03F80D0CF4D101A8092101F08B
:1011500021FDB04203D0FFF7BBFF00200DE0284681
:101160000B21FFF711F8552804D028460B215522F2
:10117000FFF738F8FFF7ACFF012004B070BD7FB572
:1011800005460E46FFF7A8FF1724331921462846C7
:1011900013F8172C0134FFF725F8202CF5D1304631
:1011A000092101F0F7FC0646214628463246FFF7A2
:1011B00019F8172421462846FEF7E6FF01AB234421
:1011C0000134202C03F8170CF4D101A8092101F0F7
:1011D000E1FCB04203D0FFF77BFF00200DE0284682
:1011E0000C21FEF7D1FF552804D028460C215522AA
:1011F000FEF7F8FFFFF76CFF012004B070BDF0B5FB
:1012000085B001AD06460F4628460021092204F0AC
:10121000DBFE0D2421463046FEF7B6FF2B190134C4
:10122000162C03F80D0CF5D121463046FEF7ACFF25
:1012300009210446284601F0ADFC844206D1002372
:10124000EA5CFA540133092BFAD101E0002000E0F6
:10125000012005B0F0BDF0B585B001AD06460F46E2
:1012600028460021092204F0AFFE1724214630460B
:10127000FEF78AFF2B190134202C03F8170CF5D147
:1012800021463046FEF780FF09210446284601F03A
:1012900081FC844206D10023EA5CFA540133092B15
:1012A000FAD101E0002000E0012005B0F0BD37B523
:1012B0000C461E210546FEF767FF1F218DF804002E
:1012C0002846FEF761FF02218DF8050001A801F014
:1012D00061FC207003B030BD10B50B210446FEF751
:1012E00053FF88B1FFF7F8FE204600220B21FEF7DE
:1012F00079FFFFF7EDFE20460B21FEF745FFD0F109
:10130000010038BF002010BD012010BD10B50C2118
:101310000446FEF739FF88B1FFF7DEFE20460022C3
:101320000C21FEF75FFFFFF7D3FE20460C21FEF7EE
:101330002BFFD0F1010038BF002010BD012010BDEF
:1013400010B521210446FEF71FFF552811D0FFF7E5
:10135000C3FE204655222121FEF744FFFFF7B8FEC9
:1013600020462121FEF710FFB0F1550358425841A5
:1013700010BD012010BD08B52121FEF705FFB0F119
:1013800055035842584108BD70B504460D46FFF755
:1013900036FF20B120462946FFF75DFF48BB2046B7
:1013A0002946FFF72CFF48B11549164803F08CFC7D
:1013B00020462946BDE87040FFF7E1BE2046294699
:1013C000FFF749FF06460F4846B10F4903F07CFC82
:1013D00020462946BDE87040FFF791BE0B4903F057
:1013E00073FC2046FFF778FF2046FFF78FFF30465B
:1013F00070BD0749034803F067FC012070BD00BFC2
:10140000C88A000804180020FF8A0008368B0008EC
:101410004A8B0008F8B504460E462F25731920465E
:10142000294613F82F7CFEF7AFFE874203D1013522
:10143000342DF3D136E0FFF74FFE2F2573192946DF
:10144000204613F82F2C0135FEF7CCFE342DF5D1B4
:101450000521304601F09EFB0746294620463A46C4
:10146000FEF7C0FE2F2520462946FEF78DFE731994
:1014700013F82F3C834217D10135342DF3D1204688
:101480002946FEF781FEB8420ED120463521FEF7EF
:101490007BFE552804D0204635215522FEF7A2FEBA
:1014A000FFF716FE0120F8BDFFF712FE0020F8BD81
:1014B000F7B505460E462F2421462846FEF764FE62
:1014C00000AB23440134342C03F82F0CF4D1052154
:1014D000684601F05FFB214607462846FEF754FEAA
:1014E000874207D100231DF80320F2540133052B56
:1014F000F9D101E0002000E0012003B0F0BD73B598
:1015000005462F2421462846FEF73EFE00AB234425
:101510000134342C03F82F0CF4D16846052101F076
:1015200039FB214606462846FEF72EFE331A58425E
:10153000584102B070BD38B50546FFF7CDFD2F24E8
:1015400028462146FEF720FE68B1284621460022A3
:10155000FEF748FE28462146FEF716FE18B1FFF7B3
:10156000B7FD002038BD0134342CE9D1284635219F
:10157000FEF70AFE20B1284635210022FEF732FE92
:10158000FFF7A6FD012038BD37B50D468DF80710D1
:1015900036210446FEF7F8FD85422BD002ADFFF759
:1015A0009BFD15F8012D20463621FEF71BFE01217B
:1015B000284601F0EFFA372102462046FEF712FED8
:1015C00020463621FEF7E0FD9DF8073083420DD11D
:1015D00020463821FEF7D8FD552804D02046382172
:1015E0005522FEF7FFFDFFF773FD03E0FFF770FDE7
:1015F000002000E0012003B030BD3621FEF7C4BD5D
:1016000037B536210546FEF7BFFD02AB03F8010DE5
:101610001846012101F0BEFA372104462846FEF79C
:10162000B3FD231A5842584103B030BD10B53621DE
:101630000446FEF7A9FD88B1FFF74EFD204636218E
:101640000022FEF7CFFD20463621FEF79DFD18B1A2
:10165000FFF73EFD002010BDFFF73AFD012010BD51
:10166000002070470020704700207047002070471E
:1016700010B548210446FEF787FD552811D0FFF725
:101680002BFD204655224821FEF7ACFDFFF720FD3B
:1016900020464821FEF778FDB0F1550358425841E5
:1016A00010BD012010BD10B54D210446FEF76CFDA4
:1016B000552810D0FFF710FD204655224D21FEF78A
:1016C00091FDFFF705FD20460021FEF75DFD00308E
:1016D00018BF012010BD012010BD000037B58DF8E6
:1016E00007101031C9B20129044629D84C21FEF750
:1016F0004BFD9DF80730834228D002ADFFF7ECFC8C
:1017000015F8012D20464C21FEF76CFD01212846DD
:1017100001F040FA4E2102462046FEF763FD2046C6
:101720004C21FEF731FD9DF80730834205D120465C
:10173000FFF7B9FFFFF7CCFC08E0FFF7C9FC03E0B7
:101740000448054903F0C0FA002000E0012003B07E
:1017500030BD00BF041800207A8B000837B54C213B
:101760000446FEF711FD02AB03F8010D18460121F6
:1017700001F010FA4E2105462046FEF705FD854290
:1017800002D19DF8070004E02046F021FFF7A6FFF4
:10179000F02003B030BD0000F7B505460E464F24DB
:1017A00021462846FEF7F0FC00AB23440134572CB9
:1017B00003F84F0CF4D10821684601F0EBF92146FB
:1017C00007462846FEF7E0FC87420CD100231DF8AF
:1017D0000320F2540133082BF9D10448044903F0E3
:1017E00073FA012000E0002003B0F0BD04180020CF
:1017F000B08B000810B558210446FEF7C5FC5528EB
:1018000008D0FFF769FC204658215522FEF7EAFC74
:10181000FFF75EFC10BD10B558210446FEF7B4FC7E
:1018200040B1FFF759FC204658210022FEF7DAFCB0
:10183000FFF74EFC10BD0000F7B50F460546FFF759
:101840004BFC3846082101F0A5F94F2406463B1908
:101850002146284613F84F2C0134FEF7C3FC572CC1
:10186000F5D1214628463246FEF7BCFC4F242146DE
:101870002846FEF789FC00AB23440134572C03F8BB
:101880004F0CF4D16846082101F084F9864206D055
:101890002846FFF7C0FFFFF71BFC002007E00549C3
:1018A000054803F011FA2846FFF7A4FF012003B012
:1018B000F0BD00BFC58B00080418002008B55821F2
:1018C000FEF762FCB0F155035842584108BD70B5AF
:1018D00004460E461546FFF7FFFB204632462221FE
:1018E000FEF780FC204623212A46FEF77BFCFFF70B
:1018F000EFFB70BDFEF748BCFEF746BC70B5044672
:101900000E461546FFF7E8FB204632462421FEF737
:1019100069FC204625212A46FEF764FCFFF7D8FB28
:1019200070BD00007FB533490546334803F0CCF95C
:1019300002F02AFA40F6B83003F0ECFB02F024FA89
:1019400040F6B83003F0E6FB02F01EFA2A4803F036
:1019500077F800280ADD284803F01EF8C1B22748AE
:1019600003F0C6FA022003F0D5FBEFE7234CA6688C
:10197000002E34D0204603F026FB21461E4803F0FB
:1019800099F91F4901A803F04EFA01A9204603F076
:101990000CFB064601A803F004FA1748EEB11949FA
:1019A00003F092F91849204603F068FA28462121ED
:1019B000FEF7EAFB40B1FFF78FFB2846212100220A
:1019C000FEF710FCFFF784FB28462121FEF7DCFB25
:1019D000D0F1010038BF00200AE00C4901E00648C0
:1019E0000B4903F071F92046074903F047FA3046E6
:1019F00004B070BDDA8B000804180020EC1700203A
:101A00002B8C00082F8C0008F1970008658C0008CB
:101A1000908C00080022026042607047006820B18C
:101A200003688B4201D08068F9E7704770B50446BF
:101A30000C2016460D4603F0B5FF00228260226896
:101A400080E860000AB9206001E062689060606030
:101A500070BD10B51446FFF7E1FF08B144600120E6
:101A600010BD08B5FFF7DAFF00B1406808BD01F509
:101A70001C414131FFF7DABF01F51C414131FFF74D
:101A8000E8BF01F51C414131FFF7EBBF002A01F12E
:101A9000010114BF4FF47F420022FFF7C7BF002AA5
:101AA00001F51C5101F1110114BF4FF47F420022D6
:101AB000FFF7BCBF01F5EA413131FFF7B7BF002A9C
:101AC00001F1010114BF4FF47F420022FFF7C1BFB3
:101AD000002A01F51C5101F1110114BF4FF47F429E
:101AE0000022FFF7B6BF01F5EA413131FFF7B1BF80
:101AF00008B50131FFF7B5FFB0F57F4358425841B3
:101B000008BD01F51C5108B51131FFF7AAFFB0F56A
:101B10007F435842584108BD01F5EA413131FFF792
:101B2000A0BF70B5044680680D46164603F042FF1C
:101B30000220207303F036FF803D0323A060057070
:101B40004670637370BDF8B5531E7C2B04460F4678
:101B5000164602D903210A4617E001F51C4141311E
:101B6000FFF75CFF18B92046032102220DE0A068B0
:101B700003F020FF701C4000C0B2207303F012FF7E
:101B8000A06030B9204603210422BDE8F840FFF7E9
:101B9000C8BF03230370237B0025023B4370E91970
:101BA0002046FFF76EFFA3680135020A03F81520EF
:101BB000A368B54203EB45035870F0D10323637368
:101BC000F8BD70B504460E461546FFF755FF18B927
:101BD00020460621022208E020463146FFF751FF49
:101BE000A84206D0204606210422BDE87040FFF737
:101BF00098BF0223637370BD2DE9F8431F46164654
:101C00007A1E7A2A044688469DF8203008D8B3EB1D
:101C1000470F05D106F51C45413505EB070903E0E3
:101C200020461021032218E04D450AD029462046BF
:101C3000FFF7F4FE01350028F6D1204610210222DC
:101C40000BE0A06803F0B6FE0520207303F0AAFEA7
:101C5000A06030B9204610210422BDE8F843FFF708
:101C600060BF10230370330A43700023077186702E
:101C7000C37008F106053744BE4205F102050BD0DA
:101C800015F8022C15F8013C3146204643EA0222A1
:101C9000FFF7F2FE0136EFE703236373BDE8F88335
:101CA0002DE9F843531EB3F5FA6F04460F46154667
:101CB00002D30121032219E00131FFF7AFFE18B969
:101CC00020460121022211E0A06803F073FEC5F353
:101CD000C7036A070CBF023303332373207B03F06F
:101CE00061FEA06030B9204601210422BDE8F8431E
:101CF000FFF717BF01230370237B05EB0708023BA7
:101D000043703E46002546451CD031462046FFF72D
:101D1000EFFEC7F10109B1444FEAD909012109F1E8
:101D20000203A268A94010B1D05C014302E0D05C7C
:101D300020EA01010135EDB2082DD15408BF00257C
:101D40000136E0E703236373BDE8F8832DE9F84328
:101D5000531EB3F5FA6F04460F46154602D302210F
:101D600003221BE001F51C511131FFF757FE18B992
:101D700020460121022211E0A06803F01BFEC5F3FA
:101D8000C7036A070CBF023303332373207B03F0BE
:101D900009FEA06030B9204602210422BDE8F843C4
:101DA000FFF7BFBE02230370237B05EB0708023B4E
:101DB00043703E46002546451CD031462046FFF77D
:101DC000A0FEC7F10109B1444FEAD909012109F187
:101DD0000203A268A94010B1D05C014302E0D05CCC
:101DE00020EA01010135EDB2082DD15408BF0025CC
:101DF0000136E0E703236373BDE8F883F8B5531EAB
:101E00007C2B04460F46164602D90421032217E014
:101E100001F5EA413131FFF701FE18B920460121F1
:101E200002220DE0A06803F0C5FD701C4000C0B2A6
:101E3000207303F0B7FDA06030B9042120460A46A4
:101E4000BDE8F840FFF76DBE04230370237B002537
:101E5000023B4370E9192046FFF75EFEA368013597
:101E6000020A03F81520A368B54203EB4503587036
:101E7000F0D103236373F8BDB2F57F4F70B504460C
:101E80000E4603D012B10521032215E0151C18BF20
:101E90000125204631462A46FFF711FE18B9204693
:101EA0000521022208E020463146FFF721FEA84224
:101EB00006D0204605210422BDE87040FFF731BE60
:101EC0000223637370BD2DE9F8431D468946DB0884
:101ED000690705F1FF3118BF0133B1F5F66F1646FA
:101EE00004469DF8202005D29A4203D1771C07EBC7
:101EF000050803E020460F21032218E047450AD0D9
:101F000039462046FFF78AFD01370028F6D12046E2
:101F10000F2102220BE0A06803F04CFD0520207386
:101F200003F040FDA06030B920460F210422BDE837
:101F3000F843FFF7F6BD0F230370330A43702B0AF3
:101F400005718670C3703544B0460027A84514D08B
:101F5000C6F10103434409EBD3039A7941463A4160
:101F60000137FFB2204602F00102FFF7A8FD082F5B
:101F700008BF002708F10108E8E703236373BDE801
:101F8000F88373B50C46A3786278E578097843EA5C
:101F90000222237943EA05234D1E0F2D3FD8DFE8A7
:101FA00005F01C230F2A31083E3E3E3E3E3E3E3E9B
:101FB000381611461A4602B0BDE87040FFF701BE60
:101FC00011461A4602B0BDE87040FFF7BCBD61790A
:101FD00000912146FFF710FE27E011461A4602B095
:101FE000BDE87040FFF75CBE11461A4602B0BDE87E
:101FF0007040FFF7ABBE11461A4602B0BDE8704014
:10200000FFF7FCBE11461A4602B0BDE87040FFF76C
:1020100033BF617900912146FFF755FF05E00122AA
:1020200002B0BDE87040FFF77CBD02B070BD10B5D6
:102030000446FFF7EFFC204610BD80F82810012071
:102040007047000070B5049E0161C66104461546E4
:1020500008461146DAB202F015FD4FF4FA6003F0BB
:1020600059F8002E08DBF6B23046002102F0C0FF1E
:102070003046002103F022F8B5F5964F06DD40F218
:10208000EE23236240F2D663636207E0044B93FBC6
:10209000F5F32362034B93FBF5F56562012070BDF8
:1020A000C0E1E400C00E160270B50446C0690D46DA
:1020B000002806DBC0B2012103F000F8012003F084
:1020C00029F80023227B5E1CDBB29A42206905D9E5
:1020D0000268E95C126890473346F3E703689B693E
:1020E0009847606A03F024F8E069002803DBC0B277
:1020F000002102F0E3FF70BDF0B5C9430B4EC9B239
:10210000705C0B4DC0436C5CC0B20021AC46CFB2DA
:10211000BB4207D0555C01314540705D60401CF802
:102120000540F4E744EA0020F0BD00BFB38C00088E
:10213000B38D00082DE9F0410D78037BFF2D01EBF5
:10214000030204460E4612F8028C12F8017C03D0FA
:1021500090F82820AA420BD1A268033B204612F82F
:10216000011BDBB2FFF7C8FF47EA0827874202D00E
:102170000020BDE8F0812046711CFFF702FFFF2D13
:102180004FF0010002D16073BDE8F081BDE8F0813D
:10219000F8B50446C0690E46002806DBC0B201212E
:1021A00002F08CFF012002F0B5FF206994F828109E
:1021B00003681B6898470022237B571CD2B29A42BF
:1021C000256906D22B68B15C1B68284698473A46B9
:1021D000F2E7A26894F828102046FFF78DFF2B68DD
:1021E00006461B68C6F30721284698472069F1B2C6
:1021F00003681B689847206903689B699847606A71
:1022000002F096FFE069002803DBC0B2002102F073
:1022100055FFF8BDF8B50023044603732069036831
:10222000DB689847237B984208DD20690368DB68F8
:1022300098472073206A02F07BFFEFE753B31846FC
:1022400003F0B0FB0023A060227BDDB2AA4203F1C1
:10225000010707D92069A66803681B6998473B46B0
:102260007055F1E72046A168FFF764FF68B1637B12
:10227000032B04D12046A168FFF78AFF05E0022B5B
:1022800003D12046A168FFF70FFFA06803F092FB7F
:1022900000232373F8BD00000148112101F081B92A
:1022A000AC170020064B1A6801321A601A681D2A02
:1022B00004D900221A60034B01221A70704700BF34
:1022C000B0170020F917002010B5084C0849204627
:1022D00002F05DFC20460121064A02F077FC204610
:1022E0000021BDE8104002F049BC00BF00190020E9
:1022F00040420F00A522000810B5054C204602F010
:102300002FFC20460021BDE8104002F037BC00BF82
:1023100000190020014802F01BBC00BF001900207A
:1023200010B57D4C01F030FD2046FFF773FF2046CD
:102330000021FFF7DDFB01461E2002F0BFFE204614
:102340000121FFF7D5FB01461F2002F0B7FE204612
:102350000221FFF7CDFB0146262002F0AFFE20460A
:102360000321FFF7C5FB0146272002F0A7FE204608
:102370000421FFF7BDFB0146282002F09FFE204606
:102380000521FFF7B5FB0146292002F097FE204604
:102390000621FFF7ADFB0146082002F08FFE204624
:1023A0000721FFF7A5FB01460B2002F087FE204620
:1023B0000821FFF79DFB01460C2002F07FFE20461E
:1023C0000921FFF795FB01460D2002F077FE20461C
:1023D0000A21FFF78DFB01460F2002F06FFE204619
:1023E0000B21FFF785FB01462A2002F067FE202023
:1023F00002F04EFE021C18BF012264212046FFF7A6
:1024000067FB212002F044FE021C18BF0122652157
:102410002046FFF75DFB222002F03AFE021C18BFA7
:10242000012264212046FFF753FB232002F030FEF7
:10243000021C18BF012265212046FFF749FB2C2012
:1024400002F026FE021C18BF012264212046FFF77D
:102450003FFB2B2002F01CFE021C18BF012265214D
:102460002046FFF735FB322002F012FE021C18BF97
:10247000012264212046FFF72BFB132002F008FE07
:10248000021C18BF012265212046FFF721FB002016
:1024900002F0F0FDC82102462046FFF724FB012090
:1024A00002F0E8FDC92102462046FFF71CFB04208C
:1024B00002F0E0FDC82102462046FFF714FB05208C
:1024C00002F0D8FDC92102462046FFF70CFB06208A
:1024D00002F0D0FDC82102462046FFF704FB07208A
:1024E00002F0C8FDC92102462046FFF7FCFA24206D
:1024F00002F0C0FDC82102462046FFF7F4FA25206D
:1025000002F0B8FDC92102462046FFF7ECFABDE80B
:10251000104000F023BB00BFC017002013B5524C81
:102520004FF0FF3300934FF41652002320464F49DB
:10253000FFF788FD20460121FFF77FFD002120469F
:102540000A46FFF7A3FA204601210022FFF79EFA70
:10255000204602210022FFF799FA2046032100229B
:10256000FFF794FA204604210022FFF78FFA204655
:1025700005210022FFF78AFA204606210022FFF7F4
:1025800085FA204607210022FFF780FA204608211D
:102590000022FFF77BFA204609210022FFF776FA96
:1025A00020460A210022FFF771FA20460B21002263
:1025B000FFF76CFA204664210022FFF770FA2046EC
:1025C00065210022FFF76BFA204664210022FFF705
:1025D00066FA204665210022FFF761FA2046642151
:1025E0000022FFF75CFA204665210022FFF757FA28
:1025F000204664210022FFF752FA2046652100227E
:10260000FFF74DFA2046C8210022FFF753FA204673
:10261000C9210022FFF74EFA2046C8210022FFF709
:1026200049FA2046C9210022FFF744FA2046C82172
:102630000022FFF73FFA2046C9210022FFF73AFAAD
:102640002046C8210022FFF735FA2046C921002282
:10265000FFF730FA20464FF496717F2202B0BDE8B2
:102660001040FFF704BA00BFC01700201C1800205C
:1026700010B5074C0749204602F0D5FB2046064915
:10268000064A02F061FEBDE810400548FFF7CFBCE6
:10269000EC170020F1970008A34D00080800002067
:1026A000C017002030B5484885B0FEF764FE00280A
:1026B00042D1464B464918704348FEF720FD28B1E9
:1026C00041484349FEF75BFD002873D13E48FEF7C1
:1026D000ADFF20B13C48FEF72EFF00286FD101234B
:1026E0008DF804303848002301A98DF805308DF8A5
:1026F00006308DF807308DF80830FEF78BFE18B1E4
:102700003448354902F0E0FA2F480121FEF73CFF3A
:1027100018B13048314902F0D7FA31492D4802F05A
:10272000D3FA09E02F4CA368EBB92E482E4902F0EA
:10273000A5FB2E48FDF77CFF2348FEF71CFE002872
:1027400033D101F021FB234802F07AF90028E9DDBA
:10275000204802F021F9C1B2224802F0C9FB022050
:1027600002F0D8FCEFE7204602F02DFC2146194884
:1027700002F0A0FA1E4901A802F055FB204601A96B
:1027800002F013FC054601A802F00BFB55B11649F7
:10279000204602F073FB0F48164902F095FA1648DE
:1027A00000F0E8FB01F0F0FABFE7084B01221A70D5
:1027B00005B030BD1149074802F086FA86E7104996
:1027C000044802F081FA8AE7AB1700200D000020D0
:1027D000B417002004180020B38E0008F08E000803
:1027E0002C8F0008EC170020F1970008A517002097
:1027F0002D8C00086F8F0008FE170020948F0008B2
:10280000C88F000830B58DB0FFF788FE814B0620D9
:102810001A684FF47A7122F0E06242F000721A6096
:1028200001F0A2FA7C484FF4165102F067F94FF418
:1028300016517A48FDF7C4FF01F021FA7848FEF7F7
:102840004FFC784800F0BDF901F09EFA7348FDF79F
:1028500093FF01217148FEF75DF8734D4FF4FA6064
:1028600002F058FC002471482C70FDF7E1FE0123B2
:102870002B7001F089FA21466848FEF723FB6C486B
:10288000FEF7F6FE6B49644802F01EFA6A48222100
:10289000FFF732F80128044605D167482321FFF7E6
:1028A0002BF80546E0B1002263480121FFF70FF83D
:1028B0006249684602F0B7FA694606A802F0D4FAFF
:1028C0001022012103A802F0EAFA03A906A802F0E7
:1028D0002DFB5B4902F037FB0021044609A816E0F6
:1028E0005849684602F09FFA694606A802F0BCFA09
:1028F0002146102203A802F0D2FA03A906A802F08A
:1029000015FB4F4902F01FFB2946044609A8102277
:1029100002F0C5FA204609A902F008FB01463E482C
:1029200002F0C8F909A802F03CFA03A802F039FA4B
:1029300006A802F036FA684602F033FA3E4824212F
:10294000FEF7D8FF0128044616D13B482521FEF7A3
:10295000D1FF054680B93C4906A802F064FA06A9F1
:1029600009A802F081FA214609A802F0FEFA3449CA
:1029700002F0E9FA294614E000222F480121FEF76F
:10298000BDFF324906A802F04EFA06A909A802F0D6
:102990006BFA012109A802F0E8FA294902F0D3FAFA
:1029A000002102F0E2FA01461B4802F083F909A86F
:1029B00002F0F7F906A802F0F4F92548FEF7B2FF95
:1029C000FFF770FE22482349FEF7DEFCA0B922493A
:1029D000114802F079F921490F4802F075F92048B1
:1029E00000F0E0FB1148FDF723FE40F6B83000F0A0
:1029F00073FA01F0C9F9E5E71A49074802F064F9EA
:102A000001F0C2F9FFF760FC1749034802F05CF9D6
:102A10000DB030BD0400014004180020A7170020AD
:102A2000AA170020FA1700200C000020A51700208C
:102A3000A8170020F1970008A9170020BB900008F4
:102A4000C38B0008069100081C9100083291000811
:102A5000AB170020B41700200F9000084390000827
:102A6000FE1700207290000899900008014800218C
:102A7000FEF728BAA71700201FB5304801A9FEF7B6
:102A800083FC2F4CC0B92F492F4802F01DF92F4865
:102A900000F088FB2E48FDF7CBFD40F6B83002F081
:102AA00039FB01F071F923780133DBB2322B23704B
:102AB000E3D901F09DF9E0E7002323701F48FEF7FA
:102AC0001EFDC0B92349204802F0FEF81F4800F05F
:102AD000FBFA1F48FDF7ACFD40F6B83002F01AFBD8
:102AE00001F052F923780133DBB2322B2370E5D9A0
:102AF00001F07EF9E2E7002323701048FEF780FD25
:102B0000C0B91549104802F0DFF8104800F04AFB40
:102B10000F48FDF78DFD40F6B83002F0FBFA01F0EA
:102B200033F923780133DBB2322B2370E5D901F07E
:102B30005FF9E2E70023237004B010BDAB1700205B
:102B4000F81700207D91000804180020FE170020CF
:102B5000A5170020CB9100082392000808B50A4B66
:102B60001A787AB100221A70FFF7D4FBFFF77EFFC4
:102B7000FFF782FFFFF7C0FBBDE8084003480449A8
:102B800002F0A2B808BD00BFF91700200418002009
:102B900079920008002330B5054618468B420FDABB
:102BA000EA5C5040082210F0010F4FEA60041ABF9F
:102BB00084F0E000C0B2E0B2013AF4D10133EDE7B5
:102BC00030BD08B51E20002102F012FA1F2000219E
:102BD00002F00EFA2620002102F00AFA2720002136
:102BE00002F006FA2820002102F002FA2920002132
:102BF00002F0FEF90820002102F0FAF90B20002172
:102C000002F0F6F90C20002102F0F2F90D2000216B
:102C100002F0EEF90F20002102F0EAF92A2000214B
:102C200002F0E6F92020022102F0E2F9212002213F
:102C300002F0DEF92120022102F0DAF9222002213D
:102C400002F0D6F92320022102F0D2F92C20022131
:102C500002F0CEF92C20022102F0CAF92B20022129
:102C600002F0C6F90020022102F0C2F9012002217F
:102C700002F0BEF90420022102F0BAF90520022177
:102C800002F0B6F90620022102F0B2F90720022173
:102C900002F0AEF92420022102F0AAF9BDE80840B2
:102CA0002520022102F0A4B9014801F051BF00BF64
:102CB00004190020014801F053BF00BF041900208F
:102CC00008B51620002102F093F91720002102F028
:102CD0008FF91620012102F0F1F9BDE80840172014
:102CE000012102F0EBB91720002102F081B9172071
:102CF000042102F07DB908B5FFF7F5FF1720012187
:102D000002F0DCF90121162002F0D8F9052002F0CA
:102D10000FFA0021172002F0D1F9062002F008FA7C
:102D2000BDE808401620002102F0C8B908B5FFF739
:102D3000DAFF1620002102F0C1F91720002102F06D
:102D4000BDF90121162002F0B9F9062002F0F0F9D0
:102D50001720012102F0B2F9BDE80840062002F078
:102D6000E7B910B500210446162002F0A7F9204665
:102D7000FFF7B9FF0021172002F0A0F9022002F0AE
:102D8000D7F90121162002F099F9052002F0D0F9B7
:102D9000BDE810401620002102F090B910B50021C6
:102DA0000446162002F08AF92046FFF79CFF012115
:102DB000172002F083F9022002F0BAF9012116204F
:102DC00002F07CF9052002F0B3F9BDE810401620AE
:102DD000002102F073B970B50646FFF788FF0121A4
:102DE000172002F06BF9012002F0A2F91620012150
:102DF00002F064F9012002F09BF9FB25172002F094
:102E000047F9044640B1013D15F0FF05F6D13046C3
:102E1000FFF78CFF012070BD1620214602F04EF90D
:102E2000204670BD38B50C46FFF75DFF1620002127
:102E300002F044F9082524F07F0303F0FF01172076
:102E400003B1012102F03AF90121162002F036F90E
:102E5000022002F06DF91620002102F02FF9013D49
:102E60000220640002F064F915F0FF05E4B2E2D13B
:102E700038BDF8B505460F46FFF739FF0826002490
:102E80000021162002F01AF9022002F051F9162052
:102E9000012102F013F964001720E4B202F0F8F8FF
:102EA00008B10134E4B20120013E02F041F916F00C
:102EB000FF06E5D1284617B9FFF770FF01E0FFF7DD
:102EC00050FF2046F8BD01F00F03090901EB810115
:102ED00003EB4100C0B27047074A30B5136815468E
:102EE0002C6819188C42044A04D81168994238BFDA
:102EF0001368F5E730BD00BF5419002037B50C4604
:102F00000C480DF10701FEF7D2F99DF807304FF498
:102F10007A705843084902F0F2F89DF807300546E8
:102F200064205843054902F0EAF82844206003B0C1
:102F300030BD00BFAB17002060E31600400D03005A
:102F400070B50E4615460024E3B2AB42074809D2DD
:102F5000315D102201F012FF0448054901F099FE8D
:102F60000134F1E7BDE8704001F098BE041800207C
:102F7000CB97000830B595B040220546002104A843
:102F800003F022F8002314A941F8503D2846694671
:102F9000FFF7B4FF009802F0CBF800F0F5FEFE2337
:102FA0008DF81030E0238DF8113011238DF8123098
:102FB00024238DF81330C0238DF8143004238DF8AA
:102FC00015303B4B1B7803B155233A488DF816302A
:102FD000FEF713FB01AC8DF8170021463548FEF7CC
:102FE00067FA002304AA1A44E15C0133052B11722D
:102FF000F8D130482146FEF702F9002304AA1A440A
:10300000E15C0133092B5173F8D10024012305A899
:1030100024218DF826308DF827408DF828408DF832
:1030200029408DF82A408DF82B408DF82C408DF8E2
:103030002D408DF82E408DF82F408DF830408DF8C2
:1030400031408DF832408DF833408DF834408DF8A2
:1030500035408DF836408DF83740FFF79BFD8DF8F1
:103060003800E30704AB234404F1010454BF0D22EC
:103070000A22062C83F82920F3D10F490F4801F0CA
:1030800023FE04A928462F22FFF75AFF0C48FFF71A
:103090000BFE0C4804A903682F229B689847C820A0
:1030A00002F038F80648FFF705FE15B030BD00BF46
:1030B000A4170020AB170020B192000804180020CC
:1030C000FA1700201C18002010B586B01422044600
:1030D000002101A802F078FF002306A941F8183D5D
:1030E00020466946FFF70AFF009802F021F800F039
:1030F0004BFEFE238DF80430E0238DF805301223BB
:103100008DF8063005238DF80730C0238DF8083080
:1031100004238DF809301D4B1B7803B155231C483F
:103120008DF80A30FEF769FA01238DF80B000521AE
:1031300002A88DF80C30FFF72DFD00238DF80D004F
:10314000DA0701AA1A4403F1010354BF0D210A2131
:10315000062B9172F4D10F490F4801F0B5FD01A97A
:1031600020461022FFF7ECFE0C48FFF79DFD0C48AF
:1031700001A9036810229B689847C82001F0CAFF84
:103180000648FFF797FD06B010BD00BFA41700204A
:10319000AB170020CD92000804180020FA17002079
:1031A0001C18002010B586B014220446002101A886
:1031B00002F00AFF002306A941F8183D204669469F
:1031C000FFF79CFE009801F0B3FF00F0DDFDFE2349
:1031D0008DF80430E0238DF8053013238DF8063088
:1031E00005238DF80730C0238DF8083004238DF8AF
:1031F00009301D4B1B7803B155231C488DF80A304C
:10320000FEF7FBF901238DF80B00052102A88DF8CC
:103210000C30FFF7BFFC00238DF80D00DA0701AA80
:103220001A4403F1010354BF0D210A21062B9172A8
:10323000F4D10F490F4801F047FD01A920461022A3
:10324000FFF77EFE0C48FFF72FFD0C4801A903682D
:1032500010229B689847C82001F05CFF0648FFF7E2
:1032600029FD06B010BD00BFA4170020AB17002039
:10327000CD92000804180020FA1700201C18002026
:10328000F0B593B00C460546174602A8002140222F
:1032900002F09AFE0023019300F076FD34B1284637
:1032A00001A9FFF72BFE019801F042FF00F06CFD31
:1032B000FE238DF80830E0238DF8093014238DF8B3
:1032C0000A301A238DF80B30C0238DF80C300423FC
:1032D0008DF80D30444B1B7803B1552343488DF8CE
:1032E0000E30FEF78AF9424E002401238DF80F00BC
:1032F000317840488DF810308DF811408DF812402B
:103300008DF81340FFF7DFFD71788DF81400394810
:10331000FFF7D9FD8DF815003448FEF7A1F98DF8B7
:1033200016003248FEF7A0F98DF818002F488DF8E6
:103330001740FEF797F98DF81A002C488DF81940C0
:103340008DF81B408DF81C40FEF790F90146294886
:10335000FFF7B9FD8DF81D002748FEF7FFF914238C
:103360008DF81E008DF81F3003A853231A218DF805
:1033700020308DF821408DF822408DF823408DF8C3
:1033800024408DF82540FFF705FC8DF82600E30763
:1033900002AB234404F1010454BF0D220A22062C7F
:1033A000DA77F4D11549164801F08EFC284602A9B7
:1033B0002522FFF7C5FD0024E3B2BB4212D200F084
:1033C000E3FC1048FFF770FC0F4802A903682522B0
:1033D0009B6898470D4801F0ABFE0A48FFF76AFC6E
:1033E0000134E9E713B0F0BDA4170020AB170020AB
:1033F000FC170020FB170020A8170020F3920008FC
:1034000004180020FA1700201C180020400D0300AB
:103410002DE9F0418AB00546884617460021192259
:1034200003A802F0D1FD00260AA941F8206D284624
:10343000404CFFF763FD029801F07AFE00F0A4FC17
:1034400023780BB1637833B900963B4839490122A0
:103450003A4BFDF7A9FBFE238DF80C30E0238DF8E5
:103460000D3015238DF80E300E238DF80F30C0234C
:103470008DF8103004238DF81130314B1B7803B1D7
:10348000552330488DF81230FEF7B7F80123217824
:103490008DF813002C488DF814308DF81580FFF747
:1034A00012FD61788DF816002748FFF70CFD002407
:1034B0008DF817000E2104A88DF818408DF81940DA
:1034C0008DF81A408DF81B408DF81C408DF81D407A
:1034D000FFF760FB8DF81E00E30703AB234404F104
:1034E000010454BF0D220A22062CDA74F4D11749C4
:1034F000174801F0E9FB284603A91922FFF720FD30
:103500001448FFF7D1FB0024E3B2BB420CD200F019
:103510003BFC114803A9036819229B689847C820FF
:1035200001F0F8FD0134EFE70A48FFF7C3FB0AB0EA
:10353000BDE8F081FC170020A71700200D930008BC
:10354000A4170020AB170020FB17002017930008DA
:1035500004180020FA1700201C180020122938B582
:103560000546144608460BD0132910D0112916D150
:1035700000F06CF80CB120460FE047F6FF700CE04D
:1035800000F064F8002CF6D149F63F4005E000F069
:103590005DF8002CEFD14FF2234000F0DFF8284611
:1035A00038BD13B50022044601A8FFF7D7FF204617
:1035B00002B010BD054B1B681B685B0103F184431F
:1035C00094331A68002AFCD0704700BF1000002016
:1035D000054B1B681B685B0103F184438C331A683D
:1035E000002AFCD0704700BF1000002008B5FFF78C
:1035F000E1FF054B00221B681B685B0103F184435C
:10360000C3F88C2008BD00BF1000002008B5FFF7EC
:10361000D1FF054B01221B681B685B0103F184434A
:10362000C3F8902008BD00BF1000002008B5FFF7C8
:10363000C1FF054B00221B681B685B0103F184433B
:10364000C3F8902008BD00BF1000002010B504464C
:1036500000F015FB00F020FB204A112C136A23F424
:103660004073136213460BD005D8C4B1102C2AD175
:103670000023136227E0122C11D0132C1AD022E061
:10368000174A00211160012142F8081C154A1268EE
:1036900012F0FF0FFAD01A6A42F4807212E0124A56
:1036A00001211160114A1268002AFBD01A6A42F403
:1036B000007207E00E4A126812F0FF0FFAD01A6A81
:1036C00042F440721A620B4B01221A60FFF78EFF20
:1036D000FFF77EFFBDE81040FFF76CBF001002400F
:1036E00008044242040442428004424284044242AA
:1036F000440042423C044242F8B5104B1E68356813
:103700002B686F681F4017F0010403D074680CB178
:10371000A0470124BA0704D5B36813B1984744F011
:1037200002047B0704D5F36813B1984744F00404FE
:103730006B6823EA04046C60F8BD00BF1000002031
:1037400008B5044B1B681B691BB19847024B01224B
:103750001A6008BD10000020C482204210B5044643
:10376000FFF744FFFFF734FFFFF724FFFFF74EFF9B
:10377000064B220C1B68A4B21B689A60DC60FFF742
:1037800055FFBDE81040FFF715BF00BF1000002037
:1037900001498D460149084700C00020A1370008B3
:1037A00008B5124B124A1968914201D0002301E07A
:1037B000104B07E01048D4188442F9D2C858D050B2
:1037C0000433F7E70D4A934203D2002243F8042B57
:1037D000F8E702F0BFF800200146024601F001FCC4
:1037E000074B0BB102F0A6F8FEE700BF2C990008CA
:1037F0000000002008170020081700206019002092
:103800003559000808B50D4B1A680AB90C4A1A60F8
:103810001B680C4AD21A824204DB09494242591AF7
:10382000914206DA02F080F80C2303604FF0FF307B
:1038300008BD024A18441060184608BD0018002050
:103840006019002070430128FEE70000124B10B5FC
:10385000196809220A23114801F006F9104B0222C7
:1038600019681048032301F0FFF80F4B1A2219685A
:103870000E481B2301F0F8F80D4B2A2219680D4859
:103880002B2301F0F1F8BDE810400B4B0B481968F1
:103890002C22322301F0E8B8CC01002004180020CB
:1038A000D00100201C180020D40100203418002072
:1038B000BC0E00204C180020C00E00206418002010
:1038C00010B5044600F0C0F9034B20461978BDE856
:1038D000104000F019B900BF2C000020F8B50446D4
:1038E000056800F0ADFB22680023510101F184411D
:1038F0000B60802129600121A9622B61EB60637953
:10390000696113B18B4203D02BE04FF400436B6429
:103910004FF6FF73D36200256E1CF7B2204639467E
:1039200000F098FBD0B1236848F6FF7103F1340230
:1039300042F8251018336D1017F0010F53F82520A9
:1039400014BF6FF0FF016FF47F4101EA020214BF60
:1039500068214FF4D0410A4343F82520042E354610
:10396000DAD1216801224B01490103F1844301F1BD
:103970008441C3F880220A60F8BD704738B5274BF0
:10398000274C1A68022042F010021A6000F08AF9EF
:103990000025002000F050FA65602368182023F409
:1039A0000023236000F055FA102000F052FA00F0D6
:1039B00043F8A560102000F03FFA102000F066FAEE
:1039C0000028FAD000F039F8164800F06BFA1820F9
:1039D00000F032FA182000F059FA0028FAD002203C
:1039E00000F01AFA00214FF0006000F0E9F90E48EB
:1039F00000F0CEFA00F038F80C4B188800F00EF901
:103A00000B4800F00FF90B4800F0F6FA00F02EF822
:103A100000F02DF8FFF7B1FF38BD00BF00200240D5
:103A200000100240300000203F1901002E0000204D
:103A3000C1380008DD380008704708B5002001468D
:103A400000F07EFA01204FF4806100F079FA002145
:103A5000022000F075FA2D2000F082FABDE808403F
:103A60000320002100F06CBA00F026B9704700F086
:103A700071B900000000000000000000000000001C
:103A8000012007E0022005E0032003E0042001E01C
:103A90000520FFE70D4A0121116072B60C4A002192
:103AA0001160074902B4084902B486B005498E4640
:103AB000704700BFAFF30080AFF30080AFF300802A
:103AC00000000061F9FFFFFF2149000814ED00E04C
:103AD00010E000E0AFF30080AFF30080AFF30080B0
:103AE000FEE710B50446007900F0F8F92079BDE84A
:103AF000104000F00BBA03689A6822F4602242F486
:103B00008012114399607047002370B51A461C4615
:103B1000072B4FEA430503DCEE1801FA06F634439F
:103B20001D4401FA05F501330A2B42EA0502EFD1E3
:103B30000368DC601A6170BD0368DA6A22F0F8720B
:103B4000DA6259639A6842F480029A601A689207AE
:103B5000FCD5D86C80B2704738B5124D2A6813680E
:103B60001C68A10706D5196821F002011960936845
:103B700003B19847620708D52B681A681B6911685A
:103B800021F00401116003B19847E30708D52B68C1
:103B90001A68DB68116821F00101116003B19847D0
:103BA00038BD00BF7400002038B5124D2A68136874
:103BB0001C68A10706D5196821F0020119609368F5
:103BC00003B19847620708D52B681A681B6911680A
:103BD00021F00401116003B19847E30708D52B6871
:103BE0001A68DB68116821F00101116003B1984780
:103BF00038BD00BF78000020036801225B0103F19B
:103C0000844303F58673191F1A6018680028FCD1D5
:103C100043F8042C0B68002BFCD1704701460420AC
:103C200000F08EB9054B10B504461868A047044B48
:103C30001868A047034B1868A04710BD7400002007
:103C4000700000207800002010B50446FFF749FFFF
:103C500020464FF46021FFF74EFF2368012103F156
:103C6000404308335A015B0102F1844203F184436B
:103C7000116520461960BDE81040FFF7BDBF08B5CB
:103C8000142000F02BF9042000F028F9BDE80840CA
:103C9000042000F03BB90000014B01221A6070477C
:103CA00020000E42034B1A6822F0070210431860EE
:103CB000704700BF0020024008B50B4801F079FAB8
:103CC0000A4801F076FA0A4801F073FA094801F04F
:103CD00070FA094801F06DFA084801F06AFABDE887
:103CE0000840074801F065BA7C00002084000020ED
:103CF0008C000020940000209C000020A4000020E4
:103D0000AC00002070B501F00704A4000F25A54009
:103D10000368C80853F82060092A26EA050514BF7D
:103D20001646082606FA04F4082A44EA050443F86D
:103D3000204006D1012000FA01F1DA6822EA0101EF
:103D400006E0092A05D1012000FA01F1DA681143E1
:103D5000D96070BD08B5032000F0C0F8BDE8084088
:103D6000032000F0D3B80000064B45F255521A600C
:103D70004CF6CC42586099601A604AF6AA221A6042
:103D8000704700BF00300040024B4AF6AA221A607A
:103D9000704700BF0030004000284FEA011105DAEB
:103DA000064B00F00F00C9B21954704700F1604093
:103DB000C9B200F5614080F80013704714ED00E0CF
:103DC00021F0604138B521F07F01084B084398602D
:103DD00000241D4660B20F210134FFF7DDFF3C2CAB
:103DE000F8D1F02385F8233038BD00BF00ED00E0A6
:103DF000044A054BD16801F440710B43D360BFF313
:103E00004F8FFEE700ED00E00400FA05014B13F8C8
:103E100010007047D4960008064B5A6822F003023F
:103E200002435A6080005A6802F00C028242FAD1C2
:103E3000704700BF00100240030A0121C0B201FA1E
:103E400000F003F1804303F504331A68104318604F
:103E50007047030A0121C0B201FA00F003F1804368
:103E600003F504331A6822EA000018607047030A59
:103E70000122C0B202FA00F003F1804303F50433DB
:103E80001B6818420CBF002001207047030A022261
:103E9000C0B202FA00F003F1804303F504331B685B
:103EA0001840704738B54368044618201D68FFF76E
:103EB000DEFF20B106488121064A00F03BFD064B9B
:103EC00021685A680D4322F4741215435D6038BDB1
:103ED00064960008B89600080010024010B5044629
:103EE000FFF794FF074B53F82020074B03EB4404E4
:103EF000637803EBC2039B0003F1844301221A6041
:103F000010BD00BFB4000020D496000810B50446D0
:103F1000FFF77CFF084B53F82020084B03EB4404C9
:103F2000637803EBC2039B0003F1844301221A6010
:103F300000221A6010BD00BFC0000020D496000807
:103F400010B5054B054C5A6854F8200022EA0002CF
:103F50001143596010BD00BF0010024030970008A7
:103F600010B50446FFF752FF074B53F82020074BCC
:103F700003EB4404637803EBC2039B0003F1844327
:103F800000221A6010BD00BFC8000020D4960008AF
:103F9000024B072258601A60704700BF10E000E033
:103FA00008B5044B1A6801321A60034B1B6803B151
:103FB000984708BD541900207C18002011F0010F0B
:103FC00070B542EA03030CBF0825002503FA05F586
:103FD000006801F1FF3400F11800C4F3400450F808
:103FE000241014BF6FF0FF066FF47F463140294361
:103FF00040F8241070BD000010B504460848A047E2
:104000000848A0470848A0470848A0470848A047D4
:104010000848A0470848A0470848A04710BD00BF6F
:1040200080010020A8010020D4000020F80000201A
:104030001C010020400100204C01002058010020FC
:1040400010B504460079FFF749FF2079BDE810401C
:10405000FFF75CBF03791E2B10D9212B0ED0202B2C
:104060000ED9222B01D0252B04D102298CBF002090
:10407000012070474B1E584258417047012070473D
:10408000002070478B1C40F823200368012203F1B5
:1040900040430C3301EBC3039B0003F184431A60DC
:1040A00042790379FAB9B3F11A025342534107290D
:1040B0004BD8DFE801F004090909090E0E13002BA3
:1040C0000CBF2C23192337E0002B0CBF2E231B23FE
:1040D00032E0002B0CBF2D231A232DE0002B0CBF48
:1040E0002B23182328E01B3B0C2B1CD8DFE803F004
:1040F000212307090B0D1B0F1113151719001E2380
:104100001AE0322318E0362316E0372314E0182390
:1041100012E0192310E01A230EE02B230CE02C23CD
:104120000AE02D2308E0094840F2BF11084A00F0D8
:1041300001BC1C2300E01D235909012203F01F03C9
:1041400002FA03F3034A42F821307047449700080B
:10415000C189000800E100E00368002203F1404348
:104160000C3301EBC3039B0003F1844302311A605B
:1041700040F8212070470000F8B54E1EF3B2032B23
:1041800004460D46174604D92648DA21264A00F08F
:10419000D1FB6379022B43D0032F41D8DFE807F02E
:1041A0000212223520462946FFF7D6FF236803F185
:1041B00040432033DB0003EB8606B60006F184465D
:1041C000002320E02368002203F140430C3305EB79
:1041D000C3039B0003F184431A60204629466022F2
:1041E000082303E02046294610220023FFF7E6FEBD
:1041F000236803F140432033DB0003EB8606B6005F
:1042000006F1844601233360F8BD23684FF2F122A2
:104210009A6103229A605B0103F1844301221A60D0
:10422000F8BD00BF449700089797000810B5074BEA
:104230001C68E16822690A40120606D55B6A23B150
:104240009847236923F08003236110BD800100207B
:1042500010B5074B1C68E16822690A40D20706D5F1
:104260009B6823B19847236923F00103236110BDA4
:1042700080010020F8B50C4F3D68EB682E691E40A8
:1042800016F0400403D03C6A0CB1A0474024B306AA
:1042900004D5FB6913B1984744F020042B6923EA45
:1042A00004042C61F8BD00BF80010020F8B5134F55
:1042B0003E68F36835691D4015F0100403D0BC69F1
:1042C0000CB1A0471024290704D57B6913B1984786
:1042D00044F008046A0704D53B6913B1984744F0D9
:1042E0000404AB0704D5FB6813B1984744F00204FB
:1042F000336923EA04043461F8BD00BF8001002063
:10430000F8B51A4E3768FB683D691D4015F040044A
:1043100003D0346A0CB1A0474024EB0604D5B3693E
:1043200013B1984744F01004280704D5736913B1FA
:10433000984744F00804690704D5336913B19847D6
:1043400044F00404AA0704D5F36813B1984744F075
:104350000204EB0704D5B36813B1984744F0010495
:104360003B6923EA04043C61F8BD00BFA8010020BA
:10437000F8B51A4E3768FB683D691D4015F04004DA
:1043800003D0346A0CB1A0474024EB0604D5B369CE
:1043900013B1984744F01004280704D5736913B18A
:1043A000984744F00804690704D5336913B1984766
:1043B00044F00404AA0704D5F36813B1984744F005
:1043C0000204EB0704D5B36813B1984744F0010425
:1043D0003B6923EA04043C61F8BD00BFD40000201F
:1043E000F8B51A4E3768FB683D691D4015F040046A
:1043F00003D0346A0CB1A0474024EB0604D5B3695E
:1044000013B1984744F01004280704D5736913B119
:10441000984744F00804690704D5336913B19847F5
:1044200044F00404AA0704D5F36813B1984744F094
:104430000204EB0704D5B36813B1984744F00104B4
:104440003B6923EA04043C61F8BD00BFF80000208A
:10445000F8B51A4E3768FB683D691D4015F04004F9
:1044600003D0346A0CB1A0474024EB0604D5B369ED
:1044700013B1984744F01004280704D5736913B1A9
:10448000984744F00804690704D5336913B1984785
:1044900044F00404AA0704D5F36813B1984744F024
:1044A0000204EB0704D5B36813B1984744F0010444
:1044B0003B6923EA04043C61F8BD00BF1C010020F5
:1044C00010B5074B1C68E16822690A40D20706D57F
:1044D0009B6823B19847236923F00103236110BD32
:1044E0004001002010B5074B1C68E16822690A40B2
:1044F000D20706D59B6823B19847236923F00103AF
:10450000236110BD4C01002010B5074B1C68E16809
:1045100022690A40120606D55B6A23B198472369CF
:1045200023F08003236110BD5801002010B5074B14
:104530001C68E16822690A40D20706D59B6823B14E
:104540009847236923F00103236110BD580100201F
:10455000F8B50C4F3D68EB682E691E4016F040041C
:1045600003D03C6A0CB1A0474024B30604D5FB69D4
:1045700013B1984744F020042B6923EA04042C610A
:10458000F8BD00BF58010020F8B5134F3E68F3682E
:1045900035691D4015F0100403D0BC690CB1A0476B
:1045A0001024290704D57B6913B1984744F0080407
:1045B0006A0704D53B6913B1984744F00404AB077C
:1045C00004D5FB6813B1984744F00204336923EA29
:1045D00004043461F8BD00BF5801002081880268DE
:1045E000034689B2505C99881A8989B292B2914285
:1045F00017BF9A880022013292B2C0B29A807047E7
:10460000C28838B5838892B29BB201329A4204467E
:104610000D461AD0C288038992B29BB29A4202D147
:1046200083889BB28BB14FF0FF30E288236892B24F
:104630009D54E288238992B29BB29A4217BFE388C5
:10464000002301339BB2E38038BD2046FFF7C6FF4D
:10465000EBE770B51E460546084611460422059C48
:10466000FFF750FB9DF810100B223046FFF74AFB76
:104670002B6804F00F01DA6804F0300422F4F052E1
:104680001204120C42EA4122DA601A6922F4405202
:104690001204120C42EA04241C6170BD38B50446B1
:1046A000154611B900F0EAF8014619235943AD0047
:1046B0006423B1FBF5F1B1FBF3F21201100903FB26
:1046C000101109013231B1FBF3F303F00F0321683C
:1046D0001A4392B28A6038BD38B5114DEB6898061E
:1046E00007D52B68990604D569680E48C9B2FFF74B
:1046F00087FFEB680A4C1A0611D523681B060ED5F6
:1047000009488288C38892B29BB29A4203D0FFF7CD
:1047100065FF606038BDE36823F08003E36038BD67
:10472000003801408C1800208018002038B5114D49
:10473000EB68980607D52B68990604D569680E487A
:10474000C9B2FFF75DFFEB680A4C1A0611D5236862
:104750001B060ED509488288C38892B29BB29A4242
:1047600003D0FFF73BFF606038BDE36823F08003B0
:10477000E36038BD0044004098180020C8180020AD
:1047800038B5114DEB68980607D52B68990604D506
:1047900069680E48C9B2FFF733FFEB680A4C1A0686
:1047A00011D523681B060ED509488288C38892B2AA
:1047B0009BB29A4203D0FFF711FF606038BDE368F7
:1047C00023F08003E36038BD00480040A4180020B7
:1047D000E018002038B5114DEB68980607D52B6816
:1047E000990604D569680E48C9B2FFF709FFEB685E
:1047F0000A4C1A0611D523681B060ED50948828873
:10480000C38892B29BB29A4203D0FFF7E7FE606082
:1048100038BDE36823F08003E36038BD004C0040FE
:10482000B0180020D418002038B5114DEB68980658
:1048300007D52B68990604D569680E48C9B2FFF7F9
:10484000DFFEEB680A4C1A0611D523681B060ED54D
:1048500009488288C38892B29BB29A4203D0FFF77C
:10486000BDFE606038BDE36823F08003E36038BDBF
:1048700000500040BC180020EC18002008B590F84B
:104880009002FFF7C3FA20B10128034818BF0020A7
:1048900008BD024808BD00BF00A24A04005125021D
:1048A00013B504468DF8071020460DF107010122CB
:1048B00000F0DAFC0028F7D002B010BD38B505468C
:1048C0004C1E14F8011F19B12846FFF7E9FFF8E75D
:1048D00038BD000008B5114B01211C680322204699
:1048E000FFF710FA002301211A469342206834BFD3
:1048F00002254FF40035B2F5007F056103F1010395
:1049000003D0002A08BF012101E04FF0FF31B3F5C9
:10491000007F04BF52180023E7E700BF609600083D
:1049200008B5034B0BB1AFF3008062B6FFF7D2FFBF
:1049300000000000F8B5144B06460D4617460BB3B1
:10494000AFF3008011490446FFF7B8FF204639460F
:10495000FFF7B4FF20460E49FFF7B0FF204631466F
:10496000FFF7ACFF20460B49FFF7A8FF204629467A
:1049700000F0C8FC20460A21FFF792FF20460D21D7
:10498000FFF78EFFFFF7CCFF00000000B397000891
:10499000C9970008CA97000803695B68D9889A8894
:1049A00089B292B2D8888A1A998880B289B288422C
:1049B00003D2198989B201310A4492B282B199882D
:1049C0001A6889B2505C99881A8989B292B2914268
:1049D00017BF9A880022013292B2C0B29A80704703
:1049E0004FF0FF30704703695B689988DA8889B2B5
:1049F00092B2914205D09A881B6892B2985CC0B27C
:104A000070474FF0FF30704703699A689088D188EB
:104A100080B289B28842F9D11A6813685B06FCD566
:104A2000704713B504698DF8071020460DF1070192
:104A3000012200F019FC0028F7D0012002B010BDBF
:104A400003695B68D8889A8880B292B2D988801A44
:104A50009A8889B292B2914203D21B899BB20133E8
:104A6000184480B27047000030B5002545604FF40F
:104A70007A758560024D016105600275437530BD30
:104A80000098000803692DE9F74FDB680446994256
:104A90000F4692462CD890F81480174D4FEA08180C
:104AA00008EB050690F8159070684FEA091909EBB4
:104AB000050B717B10B10022FFF75EFB206900F04F
:104AC00083FB337B9BF80C2020698DE8080459F8A0
:104AD000051058F80530FFF7BCFD206900213A4663
:104AE000FFF7DCFD206903B0BDE8F04F00F096BB96
:104AF00003B0BDE8F08F00BF309300080022FFF73D
:104B0000C1BF006900F094BB044B02791B789A4244
:104B100002D1034B1B681860704700BF10190020BA
:104B20001C190020002310B50446036072B6054B23
:104B300019311970044B18600448FFF75DFA62B62A
:104B4000204610BD101900201C190020094B000838
:104B5000036800221B685B0103F184431A607047FD
:104B6000036801221B685B0103F184431A607047EC
:104B7000036801391B6889B29962704703681B6832
:104B8000DA6A92B2914228BF11465962704738B52D
:104B9000054639B9036801221B689962DA62D86A4E
:104BA00080B238BD48244C434FF6FF71B4FBF1F19D
:104BB000013189B204EB5104B4FBF1F4FFF7D8FFE3
:104BC0002B68A4B21B682046DC6238BD0068C9B2FD
:104BD000FFF758BA08B501211048FFF7A3FF0221DB
:104BE0000F48FFF79FFF03210E48FFF79BFF0421AB
:104BF0000D48FFF797FF05210C48FFF793FF0621AB
:104C00000B48FFF78FFF07210A48FFF78BFFBDE82E
:104C1000084009480821FFF785BF00BFF8180020A9
:104C2000FC18002000190020041900200819002099
:104C30000C190020181900201419002070B5054621
:104C40000E460024315D29B12A6828461268904733
:104C50000134F7E7204670BDF8B505460C46164608
:104C60008F18BC4206D02B6828461B6814F8011B1D
:104C70009847F6E73046F8BD10B502680B469468D1
:104C800009689A68A04710BD08B503681B68984773
:104C900008BD08B503685B68984708BD38B50D21A5
:104CA0000546FFF7F1FF0A2104462846FFF7ECFF0F
:104CB000204438BD38B50446FFF7DEFF05462046E0
:104CC000FFF7ECFF284438BD38B50446FFF7E1FF95
:104CD00005462046FFF7E2FF284438BD2DE9F04F96
:104CE00014461D4691B054EA050381469DF868B00C
:104CF00004D13021FFF7C8FF01202EE04FF000085B
:104D00005FFA8BF600272046294632463B4600F0E4
:104D100021FB08F101080DF1000AC2440AF8012C38
:104D2000204629463B46324600F014FB04460D4619
:104D300054EA0503E4D1002408F1FF381DF80810F7
:104D40004846092994BF30313731C9B2FFF79CFF7B
:104D50000444B8F1000FEFD1204611B0BDE8F08F48
:104D600070B5049921B90368D1B21B68984770BD2A
:104D7000C9B20491BDE87040FFF7B0BF07B500238A
:104D80000092CAB2FFF7ECFF03B05DF804FB38B540
:104D90000446FFF7F3FF05462046FFF77FFF284450
:104DA00038BD10B50446006800F004FE204610BD72
:104DB00010B50446006808B100F0FCFD0023236034
:104DC000A360636010BD38B504460D46006801312C
:104DD00001F068F910B184E82100012038BD0368B2
:104DE00010B5044613B143688B4207D22046FFF743
:104DF000EAFF20B1A3680BB922681370012010BD2F
:104E000070B50E46114604461546FFF7E8FF18B97F
:104E10002046FFF7CDFF04E0A5602068314601F091
:104E200059FC204670BD38B500230446036043603A
:104E300083600D4639B1084601F0AAFC29460246B6
:104E40002046FFF7DDFF204638BD884210B50B46EF
:104E5000044607D0096819B19A68FFF7D1FF01E04D
:104E6000FFF7A6FF204610BD10B5002304460360DF
:104E700043608360FFF7E9FF204610BD38B5054663
:104E80000C4641B1084601F083FC21460246284603
:104E9000FFF7B6FF01E0FFF78BFF284638BD10B5DE
:104EA00000238AB00446036043608360084601A97A
:104EB00000F07DF9204601A9FFF7E0FF20460AB087
:104EC00010BD70B5044685680E4609B9002070BD56
:104ED00062B115442946FFF782FF0028F6D020680A
:104EE000A3683146184401F0F5FBA560012070BDB0
:104EF00007B500238DF80410012201A98DF80530B3
:104F0000FFF7DFFF03B05DF804FB1FB504460A227C
:104F10000846694600F04BF9684601F039FC6946DD
:104F200002462046FFF7CDFF04B010BD0B4610B57A
:104F300009689A680446FFF7C4FF10B92046FFF7D6
:104F400037FF204610BD38B504460D4641B108462E
:104F500001F01EFC294602462046FFF7B2FF10B9B9
:104F60002046FFF725FF204638BD10B50446FFF761
:104F7000CCFF10B92046FFF71BFF204610BD036889
:104F80000A680BB15AB905E022B1896811B11078ED
:104F9000404270473BB1806830B11878704718467E
:104FA000114601F079BA1846704708B582688B68D7
:104FB0009A4206D1FFF7E3FFD0F1010038BF00208D
:104FC00008BD002008BD10B504683CB114F8010B01
:104FD00020B101F00DFC04F8010CF7E710BDFEF75D
:104FE000CDBC08B5FDF70EFCFDF79AF9FCE7000013
:104FF000322870B53BD8082939D8DFE801F0051A06
:10500000080B0E11081417000024032213E00024DB
:10501000042210E0002422460DE0002409220AE0C8
:105020000024082207E001240B2204E001240F22BF
:1050300001E0002407220E4B00011E18317B185896
:10504000FEF760FE706890B1717B24B10122BDE86B
:105050007040FFF791B80368013903F140432033F2
:10506000DB0003EB81039B0003F184431C6070BDF4
:1050700030930008054B03EB001000F10803806833
:1050800010B19979FEF758BD704700BF3093000802
:1050900032280ED8084B00011A18127B012101FAA0
:1050A00002F21B581B689B681A420CBF00200120AB
:1050B00070470020704700BF30930008322810D896
:1050C000084B00011A18127B1B58012000FA02F24B
:1050D000D1F1010138BF0021090102FA01F11B6879
:1050E000196170473093000810B5044630B100F0E4
:1050F000B9FF90FBF4F303FB140010BD10BD884210
:1051000010B5044604DA081AFFF7EEFF204410BD7C
:1051100010BD0000054B70B51C6806461D4600F02A
:105120000EF82B681B1BB342F9D370BD5419002035
:105130000C235843431E18460138FDD8704770476A
:10514000F0B58BB059B3931E222B2AD80A2A2AD144
:10515000002828DA4042012501AB1E4670B1B0FBA1
:10516000F2F702FB1704092C3846D8BF303403F19C
:105170000107C8BF57341C703B46EFE7B342EED07F
:105180001DB12D204A1C087000E00A46B34204D924
:1051900013F8010D02F8010BF8E70023137008461D
:1051A00003E0002001E00025D6E70BB0F0BDFFF7DB
:1051B000C7BF10B504460079FEF790FE2079BDE820
:1051C0001040FEF7A3BE0000436800227F2110B507
:1051D0009A80DA80198100F1100119608368044611
:1051E0009A80DA8040F2FF121A8100F190021A6070
:1051F00090F89002FEF772FE94F891325AB2002AAB
:1052000008DB012103F01F0301FA03F302495211E5
:1052100041F8223010BD00BF00E100E00368DA6809
:1052200042F02C02DA60DA6842F40052DA60704729
:1052300010B5036882689488D188A4B289B28C4280
:10524000F9D1DA68910402D51A685206F9D5DA68FC
:1052500022F40052DA6043689A8892B2DA80836856
:105260009A8892B2DA8010BDF0B58368054604686A
:1052700000209F88DE88BFB2B6B2B74204D0E36890
:1052800023F08003E36027E026683606F7D59042D6
:10529000F5D00E5C01306660EBE7DF889E88BFB218
:1052A000B6B20137B74211F800C01DD0DF881E89A1
:1052B000BFB2B6B2B74213D0DF881E68BFB206F8DD
:1052C00007C0DF881E89BFB2B6B2B74218D0DE88E9
:1052D0000136B6B2DE8001309042AB68DDD303E028
:1052E0009E88B6B2002EE7D19A88DB8892B29BB234
:1052F0009A4200D1F0BDE36843F08003E360F0BD63
:105300000026E7E77FB5064600240A22B1FBF2F348
:1053100002FB1312013401AD2819303200F8012CC0
:105320001946002BF1D114F1FF340BD32B5D8DF80E
:10533000033030460DF103010122FFF795FF0028ED
:10534000F7D0F0E704B070BD03460846194600F0F8
:10535000E1BA00BF4BB942B9002908BF002802D00A
:105360004FF0FF31084600F03BB882B0EC462DE923
:10537000005000F01DF8DDF804E002B00CBC7047EE
:105380002DE9704F089E14461D468046894600F060
:1053900029F804FB01F3A4FB00AB00FB05329344A6
:1053A000B8EB0A0869EB0B09C6E90089BDE8708F04
:1053B0002DE9704F089E14461D468046894600F030
:1053C00061F900FB05F5A0FB04AB04FB0154A34409
:1053D000B8EB0A0869EB0B09C6E90089BDE8708FD4
:1053E000704700BF00292DE9F00FC0F2A180002412
:1053F000002BC0F29880154606460F46002B3FD181
:105400008A4258D9B2FA82F34BB1C3F1200201FAB1
:1054100003F720FA02F29D4000FA03F61743290C25
:10542000B7FBF1F201FB1277A8B200FB02F34FEADF
:10543000164C4CEA0747BB4209D97F1902F1FF3CE1
:1054400080F00581BB4240F20281023A2F44FF1AEC
:10545000B7FBF1F301FB137100FB03F0B6B246EAB0
:105460000141884208D9491903F1FF3780F0F180E2
:10547000884240F2EE80023B43EA0242002303E00E
:105480008B420AD900231A461046194614B14042ED
:1054900061EB4101BDE8F00F7047B3FA83F8B8F152
:1054A000000F40F088808B4202D3824200F2E280FB
:1054B00000230122E8E712B90123B3FBF2F5B5FAA4
:1054C00085F2002A3AD17F1B280C1FFA85FC0123A4
:1054D000B7FBF0F100FB11770CFB01F24FEA164825
:1054E00048EA0747BA4207D97F1901F1FF3802D2CB
:1054F000BA4200F2C4804146BF1AB7FBF0F200FB8B
:1055000012700CFB02FCB6B246EA0040844507D993
:10551000401902F1FF3702D2844500F2AE803A46CC
:1055200042EA0142B0E7E443524263EB430362E7DD
:10553000404261EB41014FF0FF3459E79540C2F121
:10554000200927FA09F126FA09F99740280CB1FB3E
:10555000F0F800FB18111FFA85FC0CFB08F349EA70
:1055600007094FEA194747EA01418B4206FA02F65A
:1055700008D9491908F1FF327AD28B4278D9A8F1BB
:1055800002082944C91AB1FBF0F300FB13170CFB06
:1055900003F21FFA89F949EA0747BA4207D97F1986
:1055A00003F1FF3160D2BA425ED9023B2F44BF1AE9
:1055B00043EA08438CE7C8F1200225FA02F103FA16
:1055C00008FC27FA02F320FA02F207FA08F741EA88
:1055D0000C0C4FEA1C49B3FBF9F109FB11331FFA1C
:1055E0008CFA0AFB01FB17433A0C42EA03439B4542
:1055F00005FA08F008D913EB0C0301F1FF3235D29C
:105600009B4533D902396344CBEB0303B3FBF9F277
:1056100009FB12330AFB02FABFB247EA0347BA4555
:1056200008D917EB0C0702F1FF331BD2BA4519D981
:10563000023A674442EA0145A5FB0001CAEB0707AD
:105640008F424FF000030AD305D02A461CE762467A
:10565000FDE63B4610E706FA08F68642F5D26A1EDA
:10566000002311E71A46E5E70B46A0E71146CBE712
:10567000904687E74346424606E7023A50E702393A
:105680002F4439E72DE9F00F144605460E46002B4E
:1056900043D18A4253D9B2FA82F757B1C7F12006F3
:1056A00020FA06F601FA07F302FA07F400FA07F502
:1056B0001E43210CB6FBF1F201FB1266A0B200FB07
:1056C00002F32F0C47EA0646B34209D9361902F114
:1056D000FF3780F0FD80B34240F2FA80023A264460
:1056E000F61AB6FBF1F301FB136100FB03F0ADB258
:1056F00045EA0141884208D9091903F1FF3680F0D3
:10570000E980884240F2E680023B43EA02420023FD
:1057100010461946BDE8F00F70478B424CD8B3FADB
:1057200083F6002E4FD18B4202D3824200F2DD80FD
:10573000BDE8F00F0023012210461946704712B948
:105740000124B4FBF2F4B4FA84F2002A40F082801F
:10575000091B260CA7B20123B1FBF6F006FB1011C2
:1057600007FB00F24FEA154C4CEA01418A4207D987
:10577000091900F1FF3C02D28A4200F2C88060465B
:10578000891AB1FBF6F206FB121107FB02F7ADB264
:1057900045EA0145AF4208D92C1902F1FF3180F0EA
:1057A0009B80A74240F29880023A42EA00421046AB
:1057B0001946BDE8F00F704700231A4610461946F7
:1057C000BDE8F00F7047C6F1200522FA05F703FA8D
:1057D00006F421FA05F301FA06FB20FA05F53C432D
:1057E0004FEA1448B3FBF8FC08FB1C331FFA84F99A
:1057F00009FB0CFA45EA0B0B4FEA1B4545EA03434C
:105800009A4502FA06F204D91B190CF1FF356FD341
:10581000AC46CAEB0303B3FBF8F508FB153309FBF1
:1058200005F91FFA8BFB4BEA0347B94504D93F1929
:1058300005F1FF3362D31D4645EA0C4CACFB022355
:10584000C9EB07079F424FF000054AD346D0624696
:105850002B465DE79440C2F1200921FA09FC9140F2
:1058600020FA09F9260CBCFBF6F806FB18CCA7B207
:1058700007FB08F349EA01094FEA194141EA0C4CD8
:10588000634500FA02F509D91CEB040C08F1FF325C
:105890003BD2634539D9A8F10208A444C3EB0C0CF0
:1058A000BCFBF6F306FB13C107FB03F21FFA89F9F1
:1058B00049EA01418A4207D9091903F1FF3022D28E
:1058C0008A4220D9023B2144891A43EA084343E72C
:1058D0003A4605E7334618E70A4666E7B040904285
:1058E000B5D20CF1FF32002312E7334632460FE700
:1058F0009A458DD9ACF1020C23448AE7B9459AD96F
:10590000023D274498E70346DEE79046C6E70238A3
:10591000214435E710B40C461346014622460220C6
:105920005DF8044B00F070BF014B1868704700BF72
:10593000F012002008B50021044600F0C3FF044B1C
:105940001868C36B03B198472046FDF77DFF00BF81
:105950002498000870B50F4E0F4D761BB61007D077
:10596000043D0024013455F8043F9847A642F9D17C
:105970000A4E0B4D01F056F9761BB61008D0043DC7
:105980000024013455F8043F9847A642F9D170BD70
:1059900070BD00BF306C0008306C00084C6C000813
:1059A000306C0008024B0146186800F00BB800BFCD
:1059B000F0120020024B0146186801F067B800BFE2
:1059C000F01200202DE9F04F01F10B05162D83B0E8
:1059D000064627D935F0070527D4A94225D83046F1
:1059E00000F03CFBB5F5FC7F26D2C14F4FEAD50C49
:1059F00007EBCC03DC689C4200F0D2816368E2686C
:105A000023F0030323445868A16840F00105CA60ED
:105A1000304691605D6000F023FB0834204603B0FF
:105A2000BDE8F08F1025A942D9D900240C232046C7
:105A3000336003B0BDE8F08F5FEA552C00F0898039
:105A4000BCF1040F00F260814FEA951C0CF1380C98
:105A50004FEA4C01A64F07EB8101CC68A14205D16A
:105A60000CE0002B79DAE468A14207D0626822F0EA
:105A70000302531B0F2BF4DD0CF1FF3C0CF1010C66
:105A80009B4B3C6903F1080E744500F07E81616810
:105A900021F003014A1B0F2A00F36481002AC3F896
:105AA00014E0C3F810E069DAB1F5007F80F03A81C4
:105AB000C9088A104FF0010808FA02F803EBC10187
:105AC0005A68886848EA0202A060E1605A608C6007
:105AD000C4604FEAAC030120984090425BD8024278
