:020000040800F2
:1000000000C000200D350008F1370008F537000862
:10001000F9370008FD37000801380008513800089A
:10002000513800085138000851380008513800088C
:10003000513800085138000851380008113D0008B7
:10004000513800085138000851380008753400084C
:10005000513800085138000851380008513800085C
:10006000513800085138000851380008513800084C
:10007000513800085138000851380008513800083C
:100080005138000851380008C938000851380008B4
:10009000513800085138000851380008513800081C
:1000A000D93F0008FD3F00082140000859400008E2
:1000B000AD4000081D4100088D410008513800087E
:1000C00051380008513800085138000851380008EC
:1000D000513800089D440008F144000845450008D7
:1000E00051380008BD34000851380008B5420008F6
:1000F000D9420008FD4200083543000819390008BC
:100100005138000851380008FD41000851380008F6
:1001100099450008ED4500086D420008914200082D
:10012000513800085138000851380008513800088B
:1001300010B5054C237833B9044B13B10448AFF321
:1001400000800123237010BD08170020000000006C
:100150004C6A000808B5064B1BB106480649AFF3C8
:1001600000800648036813B1054B03B1984708BDEA
:10017000000000004C6A00080C170020081700203F
:100180000000000002F0C8BC38B50D46044602F07D
:10019000DEFC290A49006039204601F0FE0102F028
:1001A0006DFD204602F043FDE9B2204602F066FDF7
:1001B000204602F03CFD204602F0C9FC2046A12169
:1001C00002F05CFD204602F032FD0021204602F0E4
:1001D0007CFD0546204602F00DFD204602F0D2FCD3
:1001E000284638BD70B50D461646044602F0AFFCF1
:1001F000290A49006039204601F0FE0102F03EFD67
:10020000204602F014FDE9B2204602F037FD2046F8
:1002100002F00DFD3146204602F030FD204602F08E
:1002200006FD204602F0AEFCBDE870400A2004F056
:1002300085BE000008B50E4A5178937843EA012341
:10024000A3F52043113B032B07D8DFE803F00C0E86
:100250000204022008BD032008BD002180220448BA
:1002600005F0C6FD08BD002008BD012008BD00BF87
:100270002417002010B5074C6018114602F0B6FB99
:10028000054B1B781C4414F8073C1B1A5842584174
:1002900010BD00BF24170020A6170020084B1879B6
:1002A0005B7943EA002045F25553984205D04CF261
:1002B0000403C31A5842584170470120704700BFD9
:1002C00024170020044B9B79552B044B0CBF0122B3
:1002D00000221A70704700BF24170020A4170020C6
:1002E00010B5084CE379552B01D1012010BD06480B
:1002F00001F0E3F9E3798342F7D0D0F1010038BF90
:10030000002010BD24170020AB17002013B50D4BA3
:100310001C7A552C01D1012012E00B48694601F0EE
:1003200043F900231A461DF803108C42F3D019B983
:100330000132D2B2052AEED00133052BF3D10020D1
:1003400002B010BD24170020AB17002070B5054681
:100350001E46FFF78FFF0446A8B12846FFF79EFF11
:10036000044648B12846FFF7ADFF2846FFF7B8FF1F
:10037000044658B9A6B909E01249134804F092FBA3
:100380001148124919E01048114916E02846FFF7B4
:10039000BDFF044698B99DF8103043B901240EE022
:1003A0000C49094804F07EFB07480B4905E00B495E
:1003B000054804F077FB0448094904F073FB204624
:1003C00070BD00BF9881000804180020C681000895
:1003D000F4810008188200084F8200088682000815
:1003E000BE8200081E4B13B51B78002B35D00023AE
:1003F0000093042117220123FFF7A8FF20B3194B14
:100400001C7A012C1DD11848D97C01F0B1F970B1CA
:10041000224616480F2102F0B9FE2146144800F08A
:1004200073FD12482146022202F0E8FD0CE00F485D
:100430001021022202F0AAFE0E490F4804F032FBFE
:1004400002E00A4802F0C2FC0C4B06481A78002170
:1004500002B0BDE8104005F0CBBC02B010BD00BF3B
:100460000D00002024170020A8170020FD170020F1
:10047000A7170020F282000804180020A617002009
:10048000164B07B51B7833B30023009304210A22CF
:100490000123FFF75BFFA8B11148124901F036F8BC
:1004A00038B11149114804F0FDFA11480321022224
:1004B00006E010490D4804F0F5FA0D480421012228
:1004C00002F064FE0C4B0D481A78002103B05DF871
:1004D00004EB05F08DBC03B05DF804FB0D000020BB
:1004E000AB1700202C1700203683000804180020CA
:1004F000FD17002078830008A6170020241700208D
:1005000013B50023009304210F22FFF71FFF08B348
:100510001B4C1C4804F10A0100F06DFE68B3194839
:1005200004F10A0100F0A7FE38B31749174804F098
:10053000B9FA1448E17901F087F8A0B114491348D9
:1005400004F0B0FA13480521012202F01FFE0D4805
:1005500000F072FF104B0A481A78002102B0BDE883
:10056000104005F045BC09480C4904F09BFA0948C5
:100570000621012202F00AFEECE704480849F4E7EC
:1005800024170020AB170020458400080418002021
:10059000BA830008FD170020A61700200084000879
:1005A000728400080E4B07B51B78ABB10023009393
:1005B000042105220123FFF7C9FE20B101210948CA
:1005C0000A4602F01BFD084B08481A78002103B0C8
:1005D0005DF804EB05F00CBC03B05DF804FB00BF54
:1005E0000D000020FD170020A61700202417002072
:1005F00010B50446FFF71EFE032817D8DFE800F009
:1006000002070C112046BDE81040FFF7EBBE204664
:10061000BDE81040FFF734BF2046BDE81040FFF7AB
:100620006FBF2046BDE81040FFF7BCBF10BD000003
:100630002DE9F047484C00268146267003F05CFA0D
:1006400037463546454804F0DDF800287FDD03F0E5
:1006500053FA94F800A041480AF10103237004F012
:100660007DF8DFF8108108F80A00032004F066FC2A
:1006700023781022434413F8011C394804F06CFA23
:100680003748384904F0F3F994F90030002B06DAC2
:10069000314B002140468022197005F0A9FB2278D9
:1006A00008EB020313F8013CFE2B03D1561EF6B2F1
:1006B0005FBB02E04FBB0D2B27D00027052DC1D11A
:1006C0002949274804F0EEF92548284904F0EAF9B9
:1006D00036B9274B1B7893B14846FFF789FF0EE0E8
:1006E00021780023891BDAB2F0188A42C0B203F1E4
:1006F0000103EEDA18F8000008F80200F3E700231F
:100700002370BDE8F04703F0F7B9042D1BD8DFE8EC
:1007100005F003070C1116000A3B5D425D4114E031
:100720000D2B0CBF022500250FE00A2B0CBF032563
:1007300000250AE00D2B0CBF0425002505E00A2B3F
:10074000BED0002501E00127B8E701277AE70023A2
:100750002370BDE8F08700BFA61700201C180020FA
:1007600004180020DB950008AD840008D18400083F
:100770000C0000202417002008B51D20002104F0E3
:100780003FFB1D20012104F0ADFB1020002104F0EF
:1007900037FB1120002104F033FB1C20002104F062
:1007A0002FFB1120002104F09DFB1C20012104F0EF
:1007B00099FBBDE808401020002104F093BB000025
:1007C000014804F07DB800BF1C18002008B561B1D5
:1007D00000211C2004F086FB962004F0AFFBBDE84E
:1007E00008401C20012104F07DBB08BD08B5002194
:1007F0001D2004F077FB0C4804F065F8022000216E
:1008000004F0FEFA0320002104F0FAFA022000218D
:1008100004F068FB0320002104F064FBBDE80840FD
:100820001C20002104F05EBB1C18002010B50B78C2
:10083000452B12D14B78522B0FD18B78CC78303B93
:1008400003EB8303303C04EB4304E4B221460A2269
:10085000034804F08AF9204610BD0A2010BD00BFED
:10086000041800200B784F2B07D148784B2804D16F
:1008700013704B780120537070470020704730B5DB
:100880000020C4B20D5D01302C2D01D01D55F8E7BC
:10089000601C5525C0B21D55904204D20C5C1C54FE
:1008A0000130C0B2F8E730BDF8B54C78432C08D120
:1008B0008C78532C05D1CC78B4F151056C426C4145
:1008C00000E000240026F5B24F5D01363A2FFAD140
:1008D0000135EDB200279542FEB207F1010706D8B7
:1008E00011F805C0013501F806C0EDB2F3E73CB9D7
:1008F0002046C2B2B2420BD20A5C1A540130F8E769
:10090000069A022412681470721ED2B2FFF7B7FF63
:100910000120F8BD37B5154809B9154900E015495A
:1009200004F0A5F8642004F009FB00240F4803F04C
:1009300069FF0028E5B208DD062C14D00B4803F04F
:100940000DFF0DF804000134F0E755B19DF80230B9
:100950004F2B08D19DF80300B0F14B03584258418A
:1009600002E0284600E0002003B030BD1C18002043
:10097000FC8400080085000810B5012104461D20F4
:1009800004F0B0FA07484FF4165103F099FF2046DF
:100990000121FFF71BFF20460121BDE81040FFF7B2
:1009A000B9BF00BF1C1800202DE9F0419EB005AD75
:1009B0000C4607460021904628466422039305F022
:1009C00017FA21462C4804F052F8642004F0B6FAD5
:1009D0000024294803F016FF0028E6B207DD642C46
:1009E00045D0254803F0BAFE28550134F1E726B971
:1009F0002249234804F056F839E09DF814300D2BB5
:100A000035D19DF815300A2B31D11EAB334413F884
:100A1000653C0A2B2BD1023E1EAB334413F8643CD9
:100A20000D2B24D10021CCB2A31CDBB2B34201F1C7
:100A3000010107DA1EAA134413F8643C144404F8B5
:100A4000643CF0E738462946FFF7F0FE0A280CD14F
:100A500003AB00933846294622464346FFF724FF5E
:100A600000280CBF0320022002E0012000E0032048
:100A70001EB0BDE8F08100BF1C18002006850008EC
:100A8000041800202DE9F041B2B006460D4690460C
:100A90000021642268461F4605F0AAF919A8002122
:100AA000642205F0A5F90024E3B2E85C013420B12A
:100AB00032AA134403F8640CF6E70146CAB25D1883
:100AC00018F80240EDB232AA01312A4414B102F8FA
:100AD000644CF3E70D2302F8643C6B1C32A8DBB2D4
:100AE00003442F480A2203F8642C036819A95B68A1
:100AF00098472C48AA1C036819A99B68D2B298474A
:100B0000642004F01BFA274803F07CFE0028E5B2BD
:100B100008DD642C3FD0234803F020FE0DF80400CC
:100B20000134F0E7002D36D09DF800300D2B32D186
:100B30009DF801300A2B2ED132AB2B4413F8C93C5F
:100B40000A2B28D1023D32AB2B4413F8C83C0D2BA5
:100B500021D100218B1CDBB2AB4201F1010209DA89
:100B600032A8034413F8C83CC9B2014401F8C83C98
:100B70001146EFE730466946FFF758FE0A2808D1CC
:100B8000304669463A46FFF76DFE80F00100C0B27C
:100B900002E0012000E0032032B0BDE8F08100BF98
:100BA000041800201C180020F7B51E4604461746FE
:100BB0000D4600218DF80710FFF7ACFE02F09CFFF8
:100BC000204631462FB12A460DF10703FFF7ECFE10
:100BD00003E0089A2B46FFF755FF03282AD8DFE8E1
:100BE00000F011040207002311E01648164901E045
:100BF0001448164903F056FF20460121FFF78AFEEC
:100C000000201CE012490F4803F04CFF12E09DF851
:100C100007205E1CDBB29A420A4809D9E95C10221F
:100C200003F09AFF07480B4903F021FF3346EEE734
:100C300003F022FF20460121FFF76CFE012003B0E4
:100C4000F0BD00BF041800201A8500082B8500089D
:100C500034850008DB9500082DE9F0438BB004AF24
:100C6000804600210922384602AE002405F0C0F873
:100C700000944046314601223D4BFFF795FF054663
:100C800010B93C483C496CE02346F25C07AC092AA9
:100C900001D8303204E0A2F10A01052998BF3732A9
:100CA000E2540133082BF0D14FF0000933488DF89E
:100CB000249000F04DFE024648B331492D4803F020
:100CC000F1FE30492B4803F0EDFE2C48394600F088
:100CD000ADFD70B14B46E15CFA5C914231D101331C
:100CE000082BF8D12849234803F0DCFE2148274986
:100CF00037E027491F4803F0D5FE21461F4800F082
:100D0000E5FD044600282ED11A48224915E0314657
:100D100000944046204BFFF747FF064628B9154888
:100D20001E4903F0BFFE35461DE02146134800F082
:100D3000CDFD0446B8B90F48194903F0B3FE254666
:100D400011E018490B4803F0ADFE009740463146CC
:100D50000022114BFFF728FF044620B9054812492D
:100D6000EBE703F09FFE28460BB0BDE8F08300BF21
:100D70004A8500080418002055850008A81700209F
:100D80007585000893850008F98600082387000808
:100D9000E085000804860008448600084D860008A7
:100DA0007C860008BC860008B18500082DE9F04F5C
:100DB00089B002AF07F10C068346894690461C466F
:100DC000304600210A2205F013F8002C50D1C7F854
:100DD00004D05846CDF80080314601224B46FFF73B
:100DE000E3FE824608B1214606E04049404803F050
:100DF00059FE3F483F496FE0CCB218F8043001314A
:100E0000002BF9D1E11D01F4FC71ADEB010D02A93C
:100E1000D8B2A04203D2F05CC8540133F8E70B46C5
:100E2000581AC0B2A0420DD213F8010B092801D8FC
:100E3000303004E0A0F10A05052DF1D8373003F871
:100E4000010CEDE70025EBB2A34243D24B5D013527
:100E500008EB050010F8010C9842F4D0264924480C
:100E600003F020FE2248254903F01CFE7B689D46C6
:100E70006C460023DAB219F8021001330A29F9D1BD
:100E8000931D03F4FC73ADEB030DA2F1020E02AB54
:100E90000020C1B2551EA94200F1010003DA19F881
:100EA00001505D54F5E700223D215A55584603F89C
:100EB0000E10CDF800803146FFF776FE054628B9C2
:100EC0000B480F4903F0EEFDAA4601E04FF0010A7E
:100ED000A54605E006480B4903F0E4FD7B689D4606
:100EE00050461C37BD46BDE8F08F00BF458700085F
:100EF000041800206B8700088F870008E687000829
:100F0000288800085D8800082DE9F0478AB00DF1B7
:100F100018090F2204460D464846002104F068FFD8
:100F200089488A4903F0BEFD4FF00A0802F0E4FD4B
:100F3000002D40F09B802046FFF78EFE8449064638
:100F40008DF81800684603F05CFE694603A803F0BC
:100F500079FE314603A803F007FF01467A4803F003
:100F600097FD03A803F00BFE684603F008FE794ADC
:100F70002B4679492046FFF719FF784906468DF838
:100F80001900684603F03DFE694603A803F05AFEC7
:100F9000314603A803F0E8FE01466B4803F078FDF4
:100FA00003A803F0ECFD684603F0E9FD6C496D4AC7
:100FB0002B462046FFF7FAFE6B498DF81A006B4A64
:100FC0002B462046FFF7F2FE69498DF81B00694A5F
:100FD0002B462046FFF7EAFE674A68492B468DF804
:100FE0001C002046FFF7E2FE8DF81D00644800F06B
:100FF000FFFBF1280CBF634A5A4A63492B4620463F
:10100000FFF7D4FE61498DF81E00614A0023204697
:10101000FFF7CCFE5F498DF81F005D4A0023204694
:10102000FFF7C4FE5C498DF82000564A0023204695
:10103000FFF7BCFE59498DF82100594A002320468C
:10104000FFF7B4FE57498DF82200574A0023204687
:10105000FFF7ACFE55498DF82300424A2046002395
:10106000FFF7A4FE0D278DF824000EE0444800F0A1
:10107000BFFBF128444920460CBF424A394A0023AD
:10108000FFF794FE01278DF81800002648496846AE
:1010900003F0B7FD694603A803F0D4FDF1B203A83D
:1010A00003F062FE434903F04DFE19F806A05146D5
:1010B00003F05AFE0146244803F0EAFC03A803F0BB
:1010C0005EFD684603F05BFDBAF1000F15D13A49A9
:1010D0001D4803F0E7FC2046FFF74EFC2046FFF7D3
:1010E00085FB02F009FD2046FFF746FC4FF4FA604D
:1010F00003F024FF02F000FD04E00136F3B2BB422E
:10110000C4D31EE02D4803F07DFB002803DD2B48EF
:1011100003F024FBF6E708F1FF3818F0FF087FF42E
:1011200005AF2749084803F0BDFC2649064803F0EF
:10113000B9FC40F6B83003F001FF02F0DDFC02F02C
:101140000FFD0AB0BDE8F08704180020858800086C
:10115000B4880008D3880008C7880008DC88000825
:10116000EF880008D9880008F98800080589000878
:101170000E8900081A8900082E89000823890008B2
:10118000A81700203B890008318900083E89000823
:10119000488900084B890008558900085F890008C4
:1011A000688900086B89000875890008788900083B
:1011B0008289000890890008938900081C18002083
:1011C000B0890008DC8900081520012103F08ABEDF
:1011D0001520002103F086BE10B50021044615201D
:1011E00003F00EFE1520012103F07CFE2046BDE831
:1011F0001040FEF7C7BF7FB505460E46FFF7E8FF74
:101200000D2433192146284613F80D2C0134FEF71E
:10121000E9FF162CF5D13046092101F0E7FB06461F
:10122000214628463246FEF7DDFF0D24214628469A
:10123000FEF7AAFF01AB23440134162C03F80D0C72
:10124000F4D101A8092101F0D1FBB04203D0FFF78E
:10125000BBFF00200DE028460B21FEF795FF552827
:1012600004D028460B215522FEF7BCFFFFF7ACFF48
:10127000012004B070BD7FB505460E46FFF7A8FFFC
:10128000172433192146284613F8172C0134FEF78A
:10129000A9FF202CF5D13046092101F0A7FB064615
:1012A000214628463246FEF79DFF17242146284650
:1012B000FEF76AFF01AB23440134202C03F8170C1E
:1012C000F4D101A8092101F091FBB04203D0FFF74E
:1012D0007BFF00200DE028460C21FEF755FF552826
:1012E00004D028460C215522FEF77CFFFFF76CFF47
:1012F000012004B070BDF0B585B001AD06460F46C3
:1013000028460021092204F073FD0D2421463046B1
:10131000FEF73AFF2B190134162C03F80D0CF5D10A
:1013200021463046FEF730FF09210446284601F0E9
:101330005DFB844206D10023EA5CFA540133092B99
:10134000FAD101E0002000E0012005B0F0BDF0B5C9
:1013500085B001AD06460F4628460021092204F05B
:1013600047FD172421463046FEF70EFF2B190134A6
:10137000202C03F8170CF5D121463046FEF704FF68
:1013800009210446284601F031FB844206D100239E
:10139000EA5CFA540133092BFAD101E0002000E0A5
:1013A000012005B0F0BD37B50C461E210546FEF7FD
:1013B000EBFE1F218DF804002846FEF7E5FE022112
:1013C0008DF8050001A801F011FB207003B030BDBD
:1013D00010B50B210446FEF7D7FE88B1FFF7F8FEE3
:1013E000204600220B21FEF7FDFEFFF7EDFE204612
:1013F0000B21FEF7C9FED0F1010038BF002010BD5F
:10140000012010BD10B50C210446FEF7BDFE88B1C9
:10141000FFF7DEFE204600220C21FEF7E3FEFFF779
:10142000D3FE20460C21FEF7AFFED0F1010038BFFD
:10143000002010BD012010BD10B521210446FEF78B
:10144000A3FE552811D0FFF7C3FE204655222121C7
:10145000FEF7C8FEFFF7B8FE20462121FEF794FEF6
:10146000B0F155035842584110BD012010BD08B5D8
:101470002121FEF789FEB0F155035842584108BDBD
:1014800070B504460D46FFF736FF20B120462946C9
:10149000FFF75DFF48BB20462946FFF72CFF48B108
:1014A0001549164803F0FEFA20462946BDE870406B
:1014B000FFF7E1BE20462946FFF749FF06460F48E1
:1014C00046B10F4903F0EEFA20462946BDE87040C8
:1014D000FFF791BE0B4903F0E5FA2046FFF778FFCE
:1014E0002046FFF78FFF304670BD0749034803F0E1
:1014F000D9FA012070BD00BF058A00080418002039
:101500003C8A0008738A0008878A0008F8B50446F8
:101510000E462F2573192046294613F82F7CFEF717
:1015200033FE874203D10135342DF3D136E0FFF786
:101530004FFE2F2573192946204613F82F2C01350D
:10154000FEF750FE342DF5D10521304601F04EFA5C
:101550000746294620463A46FEF744FE2F252046F8
:101560002946FEF711FE731913F82F3C834217D159
:101570000135342DF3D120462946FEF705FEB84249
:101580000ED120463521FEF7FFFD552804D0204618
:1015900035215522FEF726FEFFF716FE0120F8BD85
:1015A000FFF712FE0020F8BDF7B505460E462F24C2
:1015B00021462846FEF7E8FD00AB23440134342CD5
:1015C00003F82F0CF4D10521684601F00FFA2146EB
:1015D00007462846FEF7D8FD874207D100231DF8AD
:1015E0000320F2540133052BF9D101E0002000E083
:1015F000012003B0F0BD38B50546FFF7E9FD2F2403
:1016000028462146FEF7C0FD68B128462146002243
:10161000FEF7E8FD28462146FEF7B6FD18B1FFF7B4
:10162000D3FD002038BD0134342CE9D128463521C2
:10163000FEF7AAFD20B1284635210022FEF7D2FD93
:10164000FFF7C2FD012038BD37B50D468DF80710F4
:1016500036210446FEF798FD85422BD002ADFFF7F8
:10166000B7FD15F8012D20463621FEF7BBFD0121FF
:10167000284601F0BBF9372102462046FEF7B2FDAD
:1016800020463621FEF780FD9DF8073083420DD1BC
:1016900020463821FEF778FD552804D02046382111
:1016A0005522FEF79FFDFFF78FFD03E0FFF78CFD4E
:1016B000002000E0012003B030BD3621FEF764BDFC
:1016C00010B536210446FEF75FFD88B1FFF780FDB7
:1016D000204636210022FEF785FD20463621FEF702
:1016E00053FD18B1FFF770FD002010BDFFF76CFD32
:1016F000012010BD00207047002070470020704777
:101700000020704710B548210446FEF73DFD5528DE
:1017100011D0FFF75DFD204655224821FEF762FDFE
:10172000FFF752FD20464821FEF72EFDB0F155038C
:101730005842584110BD012010BD10B54D2104463E
:10174000FEF722FD552810D0FFF742FD2046552216
:101750004D21FEF747FDFFF737FD20460021FEF73C
:1017600013FD003018BF012010BD012010BD000086
:1017700037B58DF807101031C9B20129044629D8B0
:101780004C21FEF701FD9DF80730834228D002ADC1
:10179000FFF71EFD15F8012D20464C21FEF722FD16
:1017A0000121284601F022F94E2102462046FEF78B
:1017B00019FD20464C21FEF7E7FC9DF807308342D7
:1017C00005D12046FFF7B9FFFFF7FEFC08E0FFF761
:1017D000FBFC03E00448054903F064F9002000E045
:1017E000012003B030BD00BF04180020B78A0008F4
:1017F00037B54C210446FEF7C7FC02AB03F8010DD8
:101800001846012101F0F2F84E2105462046FEF768
:10181000BBFC854202D19DF8070004E02046F02180
:10182000FFF7A6FFF02003B030BD0000F7B5054676
:101830000E464F2421462846FEF7A6FC00AB234463
:101840000134572C03F84F0CF4D10821684601F0FD
:10185000CDF8214607462846FEF796FC87420CD174
:1018600000231DF80320F2540133082BF9D104485A
:10187000044903F017F9012000E0002003B0F0BD97
:1018800004180020ED8A000810B558210446FEF720
:101890007BFC552808D0FFF79BFC20465821552299
:1018A000FEF7A0FCFFF790FC10BD10B558210446D0
:1018B000FEF76AFC40B1FFF78BFC2046582100225E
:1018C000FEF790FCFFF780FC10BD0000F7B50F4657
:1018D0000546FFF77DFC3846082101F087F84F24C4
:1018E00006463B192146284613F84F2C0134FEF7D3
:1018F00079FC572CF5D1214628463246FEF772FC7A
:101900004F2421462846FEF73FFC00AB2344013418
:10191000572C03F84F0CF4D16846082101F066F803
:10192000864206D02846FFF7C0FFFFF74DFC002097
:1019300007E00549054803F0B5F82846FFF7A4FF7E
:10194000012003B0F0BD00BF028B00080418002086
:1019500008B55821FEF718FCB0F15503584258411C
:1019600008BD70B504460E461546FFF731FC20460B
:1019700032462221FEF736FC204623212A46FEF776
:1019800031FCFFF721FC70BDFEF7FEBBFEF7FCBB90
:1019900070B504460E461546FFF71AFC204632463F
:1019A0002421FEF71FFC204625212A46FEF71AFCBB
:1019B000FFF70AFC70BD000030B52A4987B02A48FD
:1019C00003F070F802F098F841F2883003F0B6FAAC
:1019D00002F092F8244802F015FF00280ADD2248A0
:1019E00002F0BCFEC1B2214803F070F9022003F0FE
:1019F000A5FAEFE71D4CA368002B2DD0204603F07D
:101A0000EBF92146184803F043F8194903A803F0FD
:101A1000F8F8204603A903F0D1F9054603A803F01E
:101A2000AEF8B5B16846134903F0EBF8694603A870
:101A300003F008F9214603A803F077F901460A48A4
:101A400003F026F803A803F09AF8684603F097F825
:101A500006E00548084901E00348084903F022F878
:101A600007B030BD178B000804180020EC170020C9
:101A7000688B00086C8B0008778B0008A28B00082D
:101A80000022026042607047006820B103688B4208
:101A900001D08068F9E7704770B504460C201646FF
:101AA0000D4603F093FE00228260226880E8600009
:101AB0000AB9206001E062689060606070BD10B596
:101AC0001446FFF7E1FF08B14460012010BD08B5DE
:101AD000FFF7DAFF00B1406808BD01F51C41413154
:101AE000FFF7DABF01F51C414131FFF7E8BF01F50F
:101AF0001C414131FFF7EBBF002A01F1010114BF86
:101B00004FF47F420022FFF7C7BF002A01F51C51A6
:101B100001F1110114BF4FF47F420022FFF7BCBF57
:101B200001F5EA413131FFF7B7BF002A01F10101A8
:101B300014BF4FF47F420022FFF7C1BF002A01F516
:101B40001C5101F1110114BF4FF47F420022FFF735
:101B5000B6BF01F5EA413131FFF7B1BF08B5013138
:101B6000FFF7B5FFB0F57F435842584108BD01F576
:101B70001C5108B51131FFF7AAFFB0F57F43584259
:101B8000584108BD01F5EA413131FFF7A0BF70B5FA
:101B9000044680680D46164603F020FE022020739E
:101BA00003F014FE803D0323A0600570467063734C
:101BB00070BDF8B5531E7C2B04460F46164602D95D
:101BC00003210A4617E001F51C414131FFF75CFF94
:101BD00018B92046032102220DE0A06803F0FEFDA3
:101BE000701C4000C0B2207303F0F0FDA06030B95B
:101BF000204603210422BDE8F840FFF7C8BF0323B5
:101C00000370237B0025023B4370E9192046FFF750
:101C10006EFFA3680135020A03F81520A368B542D8
:101C200003EB45035870F0D103236373F8BD70B51F
:101C300004460E461546FFF755FF18B92046062103
:101C4000022208E020463146FFF751FFA84206D0A5
:101C5000204606210422BDE87040FFF798BF02230A
:101C6000637370BD2DE9F8431F4616467A1E7A2A23
:101C7000044688469DF8203008D8B3EB470F05D1BD
:101C800006F51C45413505EB070903E02046102108
:101C9000032218E04D450AD029462046FFF7F4FEFE
:101CA00001350028F6D12046102102220BE0A06861
:101CB00003F094FD0520207303F088FDA06030B987
:101CC000204610210422BDE8F843FFF760BF10232F
:101CD0000370330A4370002307718670C37008F1E4
:101CE00006053744BE4205F102050BD015F8022C5B
:101CF00015F8013C3146204643EA0222FFF7F2FE86
:101D00000136EFE703236373BDE8F8832DE9F84359
:101D1000531EB3F5FA6F04460F46154602D3012150
:101D2000032219E00131FFF7AFFE18B92046012167
:101D3000022211E0A06803F051FDC5F3C7036A0752
:101D40000CBF023303332373207B03F03FFDA060FD
:101D500030B9204601210422BDE8F843FFF717BF40
:101D600001230370237B05EB0708023B43703E46CB
:101D7000002546451CD031462046FFF7EFFEC7F14F
:101D80000109B1444FEAD909012109F10203A2680E
:101D9000A94010B1D05C014302E0D05C20EA01010F
:101DA0000135EDB2082DD15408BF00250136E0E71A
:101DB00003236373BDE8F8832DE9F843531EB3F59D
:101DC000FA6F04460F46154602D3022103221BE098
:101DD00001F51C511131FFF757FE18B920460121BA
:101DE000022211E0A06803F0F9FCC5F3C7036A07FB
:101DF0000CBF023303332373207B03F0E7FCA060A6
:101E000030B9204602210422BDE8F843FFF7BFBEE7
:101E100002230370237B05EB0708023B43703E4619
:101E2000002546451CD031462046FFF7A0FEC7F1ED
:101E30000109B1444FEAD909012109F10203A2685D
:101E4000A94010B1D05C014302E0D05C20EA01015E
:101E50000135EDB2082DD15408BF00250136E0E769
:101E600003236373BDE8F883F8B5531E7C2B044647
:101E70000F46164602D90421032217E001F5EA4174
:101E80003131FFF701FE18B92046012102220DE091
:101E9000A06803F0A3FC701C4000C0B2207303F0E4
:101EA00095FCA06030B9042120460A46BDE8F84000
:101EB000FFF76DBE04230370237B0025023B4370B4
:101EC000E9192046FFF75EFEA3680135020A03F810
:101ED0001520A368B54203EB45035870F0D10323E6
:101EE0006373F8BDB2F57F4F70B504460E4603D05C
:101EF00012B10521032215E0151C18BF012520464B
:101F000031462A46FFF711FE18B920460521022264
:101F100008E020463146FFF721FEA84206D02046C1
:101F200005210422BDE87040FFF731BE0223637330
:101F300070BD2DE9F8431D468946DB08690705F1A8
:101F4000FF3118BF0133B1F5F66F164604469DF810
:101F5000202005D29A4203D1771C07EB050803E045
:101F600020460F21032218E047450AD03946204673
:101F7000FFF78AFD01370028F6D120460F21022203
:101F80000BE0A06803F02AFC0520207303F01EFC80
:101F9000A06030B920460F210422BDE8F843FFF7C6
:101FA000F6BD0F230370330A43702B0A0571867048
:101FB000C3703544B0460027A84514D0C6F10103CC
:101FC000434409EBD3039A7941463A410137FFB2C2
:101FD000204602F00102FFF7A8FD082F08BF0027E6
:101FE00008F10108E8E703236373BDE8F88373B5DC
:101FF0000C46A3786278E578097843EA02222379CF
:1020000043EA05234D1E0F2D3FD8DFE805F01C23C2
:102010000F2A31083E3E3E3E3E3E3E3E38161146B9
:102020001A4602B0BDE87040FFF701BE11461A46DD
:1020300002B0BDE87040FFF7BCBD61790091214658
:10204000FFF710FE27E011461A4602B0BDE87040C7
:10205000FFF75CBE11461A4602B0BDE87040FFF7BC
:10206000ABBE11461A4602B0BDE87040FFF7FCBE99
:1020700011461A4602B0BDE87040FFF733BF6179E0
:1020800000912146FFF755FF05E0012202B0BDE8AF
:102090007040FFF77CBD02B070BD10B50446FFF77D
:1020A000EFFC204610BD80F828100120704700008A
:1020B00070B5049E0161C661044615460846114686
:1020C000DAB202F0C1FB4FF4FA6002F037FF002EE3
:1020D00008DBF6B23046002102F092FE30460021C5
:1020E00002F000FFB5F5964F06DD40F2EE232362C5
:1020F00040F2D663636207E0044B93FBF5F323627F
:10210000034B93FBF5F56562012070BDC0E1E4006F
:10211000C00E160270B50446C0690D46002806DBE5
:10212000C0B2012102F0DEFE012002F007FF002311
:10213000227B5E1CDBB29A42206905D90268E95C09
:10214000126890473346F3E703689B699847606AD3
:1021500002F002FFE069002803DBC0B2002102F0B8
:10216000C1FE70BDF0B5C9430B4EC9B2705C0B4DDA
:10217000C0436C5CC0B20021AC46CFB2BB4207D0BA
:10218000555C01314540705D60401CF80540F4E746
:1021900044EA0020F0BD00BFC58B0008C58C0008D4
:1021A0002DE9F0410D78037BFF2D01EB030204467E
:1021B0000E4612F8028C12F8017C03D090F8282009
:1021C000AA420BD1A268033B204612F8011BDBB2E6
:1021D000FFF7C8FF47EA0827874202D00020BDE882
:1021E000F0812046711CFFF702FFFF2D4FF0010028
:1021F00002D16073BDE8F081BDE8F081F8B5044616
:10220000C0690E46002806DBC0B2012102F06AFE5A
:10221000012002F093FE206994F8281003681B68DF
:1022200098470022237B571CD2B29A42256906D2D6
:102230002B68B15C1B68284698473A46F2E7A268CB
:1022400094F828102046FFF78DFF2B6806461B6880
:10225000C6F30721284698472069F1B203681B6836
:102260009847206903689B699847606A02F074FE8A
:10227000E069002803DBC0B2002102F033FEF8BDA4
:10228000F8B500230446037320690368DB689847A8
:10229000237B984208DD20690368DB689847207338
:1022A000206A02F059FEEFE753B3184603F08EFAA6
:1022B0000023A060227BDDB2AA4203F1010707D907
:1022C0002069A66803681B6998473B467055F1E78B
:1022D0002046A168FFF764FF68B1637B032B04D13C
:1022E0002046A168FFF78AFF05E0022B03D12046B4
:1022F000A168FFF70FFFA06803F070FA00232373B3
:10230000F8BD00000148112101F009B8AC17002008
:10231000064B1A6801321A601A681D2A04D9002275
:102320001A60034B01221A70704700BFB0170020DB
:10233000F817002010B5084C0849204602F015FB9C
:1023400020460121064A02F02FFB20460021BDE86D
:10235000104002F001BB00BF0019002040420F00F6
:102360001123000810B57C4C01F0C6FB2046FFF796
:1023700087FF20460021FFF7F1FB01461E2002F0F7
:10238000B1FD20460121FFF7E9FB01461F2002F0C5
:10239000A9FD20460221FFF7E1FB0146262002F0BD
:1023A000A1FD20460321FFF7D9FB0146272002F0BB
:1023B00099FD20460421FFF7D1FB0146282002F0B9
:1023C00091FD20460521FFF7C9FB0146292002F0B7
:1023D00089FD20460621FFF7C1FB0146082002F0D7
:1023E00081FD20460721FFF7B9FB01460B2002F0D3
:1023F00079FD20460821FFF7B1FB01460C2002F0D1
:1024000071FD20460921FFF7A9FB01460D2002F0CE
:1024100069FD20460A21FFF7A1FB01460F2002F0CB
:1024200061FD20460B21FFF799FB01462A2002F0AF
:1024300059FD202002F040FD021C18BF012264213A
:102440002046FFF77BFB212002F036FD021C18BF5F
:10245000012265212046FFF771FB222002F02CFDAE
:10246000021C18BF012264212046FFF767FB2320CE
:1024700002F022FD021C18BF012265212046FFF751
:102480005DFB2C2002F018FD021C18BF0122642104
:102490002046FFF753FB2B2002F00EFD021C18BF55
:1024A000012265212046FFF749FB322002F004FD9E
:1024B000021C18BF012264212046FFF73FFB1320B6
:1024C00002F0FAFC021C18BF012265212046FFF72A
:1024D00035FB002002F0E2FCC82102462046FFF74F
:1024E00038FB012002F0DAFCC92102462046FFF742
:1024F00030FB042002F0D2FCC82102462046FFF740
:1025000028FB052002F0CAFCC92102462046FFF73D
:1025100020FB062002F0C2FCC82102462046FFF73D
:1025200018FB072002F0BAFCC92102462046FFF73B
:1025300010FB242002F0B2FCC82102462046FFF71F
:1025400008FB252002F0AAFCC92102462046BDE86E
:102550001040FFF7FEBA00BFC017002013B5524C61
:102560004FF0FF3300934FF41652002320464F499B
:10257000FFF79EFD20460121FFF795FD0021204633
:102580000A46FFF7B9FA204601210022FFF7B4FA04
:10259000204602210022FFF7AFFA20460321002245
:1025A000FFF7AAFA204604210022FFF7A5FA2046E9
:1025B00005210022FFF7A0FA204606210022FFF79E
:1025C0009BFA204607210022FFF796FA20460821B1
:1025D0000022FFF791FA204609210022FFF78CFA2A
:1025E00020460A210022FFF787FA20460B2100220D
:1025F000FFF782FA204664210022FFF786FA204680
:1026000065210022FFF781FA204664210022FFF7AE
:102610007CFA204665210022FFF777FA20466421E4
:102620000022FFF772FA204665210022FFF76DFABB
:10263000204664210022FFF768FA20466521002227
:10264000FFF763FA2046C8210022FFF769FA204607
:10265000C9210022FFF764FA2046C8210022FFF7B3
:102660005FFA2046C9210022FFF75AFA2046C82106
:102670000022FFF755FA2046C9210022FFF750FA41
:102680002046C8210022FFF74BFA2046C92100222C
:10269000FFF746FA20464FF496717F2202B0BDE85C
:1026A0001040FFF71ABA00BFC01700201C18002006
:1026B00013B51F48FEF7DBFE1E4C38BB20701E49C9
:1026C0001B48FEF798FD20B119481B49FEF7D3FDC2
:1026D00000BB1748FEF7F4FF18B11548FEF78BFF53
:1026E000E8B901238DF800301148002369468DF8C0
:1026F00001308DF802308DF803308DF80430FEF78C
:1027000005FF18B10D480E4902F0CCF901232370E2
:1027100002B010BD0B49094802F0C4F9D9E70A49D3
:10272000064802F0BFF90949044802F0BBF9D8E7AE
:10273000AB1700200D000020B41700200418002063
:10274000C58D0008008E00082F8E00085E8E0008E0
:1027500030B58DB0FFF702FF814B06201A684FF4A9
:102760007A7122F0E06242F000721A6001F0B4F96E
:102770007C484FF4165102F0A3F84FF416517A48F2
:10278000FEF71EF801F033F97848FEF725FD78488A
:1027900000F043F901F0B0F97348FDF7EDFF0121B6
:1027A0007148FEF7B7F8734D4FF4FA6002F0C6FBBC
:1027B000002471482C70FDF73BFF01232B7001F0C2
:1027C0009BF921466848FEF79FFB6C48FEF79AFF8D
:1027D0006B49644802F066F96A482221FFF7D6F88F
:1027E0000128044605D167482321FFF7CFF80546A5
:1027F000E0B1002263480121FFF7B3F8624968465F
:1028000002F0FFF9694606A802F01CFA1022012125
:1028100003A802F032FA03A906A802F086FA5B497F
:1028200002F090FA0021044609A816E058496846CB
:1028300002F0E7F9694606A802F004FA21461022E0
:1028400003A802F01AFA03A906A802F06EFA4F498B
:1028500002F078FA2946044609A8102202F00DFA7F
:10286000204609A902F061FA01463E4802F010F93B
:1028700009A802F084F903A802F081F906A802F081
:102880007EF9684602F07BF93E482421FFF77CF888
:102890000128044616D13B482521FFF775F8054667
:1028A00080B93C4906A802F0ACF906A909A802F0D3
:1028B000C9F9214609A802F061FA344902F042FA46
:1028C000294614E000222F480121FFF761F8324920
:1028D00006A802F096F906A909A802F0B3F90121A9
:1028E00009A802F04BFA294902F02CFA002102F063
:1028F00045FA01461B4802F0CBF809A802F03FF95F
:1029000006A802F03CF92548FFF756F8FFF7D0FE7D
:1029100022482349FEF7B4FDA0B92249114802F02C
:10292000C1F821490F4802F0BDF8204800F0F8FA3C
:102930001148FDF77DFE40F6B83000F0F9F901F0DE
:10294000DBF8E5E71A49074802F0ACF801F0D4F8E3
:10295000FFF7F0FC1749034802F0A4F80DB030BDB2
:102960000400014004180020A7170020AA17002027
:10297000F91700200C000020A5170020A817002040
:1029800001960008A9170020268F0008008B000878
:10299000718F0008878F00089D8F0008AB170020FB
:1029A000B41700207A8E0008AE8E0008FD170020B4
:1029B000DD8E0008048F000810B5074C074920463B
:1029C00002F01FF920460649064A02F0D1FBBDE895
:1029D00010400548FFF761BBEC1700200196000886
:1029E0007F4B000808000020C0170020002330B5EE
:1029F000054618468B420FDAEA5C5040082210F078
:102A0000010F4FEA60041ABF84F0E000C0B2E0B2E8
:102A1000013AF4D10133EDE730BD08B51E200021A5
:102A200002F0EEF91F20002102F0EAF92620002131
:102A300002F0E6F92720002102F0E2F92820002127
:102A400002F0DEF92920002102F0DAF90820002145
:102A500002F0D6F90B20002102F0D2F90C2000215F
:102A600002F0CEF90D20002102F0CAF90F2000215A
:102A700002F0C6F92A20002102F0C2F9202002212A
:102A800002F0BEF92120022102F0BAF92120022130
:102A900002F0B6F92220022102F0B2F9232002212D
:102AA00002F0AEF92C20022102F0AAF92C2002211A
:102AB00002F0A6F92B20022102F0A2F90020022147
:102AC00002F09EF90120022102F09AF9042002216D
:102AD00002F096F90520022102F092F90620022167
:102AE00002F08EF90720022102F08AF92420022147
:102AF00002F086F9BDE808402520022102F080B9E5
:102B0000014801F013BF00BF04190020014801F083
:102B100015BF00BF0419002008B51620002102F0DF
:102B20006FF91720002102F06BF91620012102F045
:102B3000D9F9BDE808401720012102F0D3B91720C8
:102B4000002102F05DB91720042102F059B908B53F
:102B5000FFF7F5FF1720012102F0C4F9012116202B
:102B600002F0C0F9052002F0F7F90021172002F069
:102B7000B9F9062002F0F0F9BDE80840162000215E
:102B800002F0B0B908B5FFF7DAFF1620002102F015
:102B9000A9F91720002102F0A5F90121162002F061
:102BA000A1F9062002F0D8F91720012102F09AF9C4
:102BB000BDE80840062002F0CFB910B50021044658
:102BC000162002F08FF92046FFF7B9FF00211720E9
:102BD00002F088F9022002F0BFF90121162002F06C
:102BE00081F9052002F0B8F9BDE810401620002157
:102BF00002F078B910B500210446162002F072F9EF
:102C00002046FFF79CFF0121172002F06BF90220FC
:102C100002F0A2F90121162002F064F9052002F069
:102C20009BF9BDE810401620002102F05BB970B599
:102C30000646FFF788FF0121172002F053F9012013
:102C400002F08AF91620012102F04CF9012002F06D
:102C500083F9FB25172002F02FF9044640B1013D0E
:102C600015F0FF05F6D13046FFF78CFF012070BD4F
:102C70001620214602F036F9204670BD38B50C46C4
:102C8000FFF75DFF1620002102F02CF9082524F043
:102C90007F0303F0FF01172003B1012102F022F9A5
:102CA0000121162002F01EF9022002F055F916202B
:102CB000002102F017F9013D0220640002F04CF9F6
:102CC00015F0FF05E4B2E2D138BDF8B505460F4670
:102CD000FFF739FF082600240021162002F002F930
:102CE000022002F039F91620012102F0FBF86400FD
:102CF0001720E4B202F0E0F808B10134E4B2012098
:102D0000013E02F029F916F0FF06E5D1284617B971
:102D1000FFF770FF01E0FFF750FF2046F8BD01F01C
:102D20000F03090901EB810103EB4100C0B27047B9
:102D3000074A30B5136815462C6819188C42044AA6
:102D400004D81168994238BF1368F5E730BD00BF59
:102D50005419002037B50C460C480DF10701FEF759
:102D600022FB9DF807304FF47A705843084902F06F
:102D7000DAF89DF80730054664205843054902F00B
:102D8000D2F82844206003B030BD00BFAB1700204C
:102D900060E31600400D030070B50E461546002492
:102DA000E3B2AB42074809D2315D102201F0D4FEF4
:102DB0000448054901F05BFE0134F1E7BDE87040CD
:102DC00001F05ABE04180020DB95000830B595B01C
:102DD00040220546002104A803F00AF8002314A9A4
:102DE00041F8503D28466946FFF7B4FF009802F0CD
:102DF000B3F800F081FEFE238DF81030E0238DF84B
:102E0000113011238DF8123024238DF81330C02394
:102E10008DF8143004238DF815303B4B1B7803B12B
:102E200055233A488DF81630FEF747FC01AC8DF873
:102E3000170021463548FEF7B7FB002304AA1A44C1
:102E4000E15C0133052B1172F8D130482146FEF7C1
:102E500052FA002304AA1A44E15C0133092B51738E
:102E6000F8D10024012305A824218DF826308DF8FF
:102E700027408DF828408DF829408DF82A408DF89C
:102E80002B408DF82C408DF82D408DF82E408DF87C
:102E90002F408DF830408DF831408DF832408DF85C
:102EA00033408DF834408DF835408DF836408DF83C
:102EB0003740FFF79BFD8DF83800E30704AB234450
:102EC00004F1010454BF0D220A22062C83F82920A4
:102ED000F3D10F490F4801F0E5FD04A928462F2240
:102EE000FFF75AFF0C48FFF70BFE0C4804A90368D4
:102EF0002F229B689847C82002F020F80648FFF769
:102F000005FE15B030BD00BFA4170020AB17002090
:102F1000E88F000804180020F91700201C18002072
:102F200010B586B014220446002101A802F060FF0B
:102F3000002306A941F8183D20466946FFF70AFF1D
:102F4000009802F009F800F0D7FDFE238DF8043058
:102F5000E0238DF8053013238DF8063005238DF816
:102F60000730C0238DF8083004238DF809301D4B3D
:102F70001B7803B155231C488DF80A30FEF79DFBE2
:102F800001238DF80B00052102A88DF80C30FFF706
:102F90002DFD00238DF80D00DA0701AA1A4403F174
:102FA000010354BF0D210A21062B9172F4D10F4960
:102FB0000F4801F077FD01A920461022FFF7ECFE33
:102FC0000C48FFF79DFD0C4801A9036810229B687F
:102FD0009847C82001F0B2FF0648FFF797FD06B0FA
:102FE00010BD00BFA4170020AB17002004900008FC
:102FF00004180020F91700201C180020F0B593B029
:103000000C460546174602A80021402202F0F0FEB9
:103010000023019300F070FD34B1284601A9FFF7A9
:1030200099FE019801F098FF00F066FDFE238DF8EF
:103030000830E0238DF8093014238DF80A301A2364
:103040008DF80B30C0238DF80C3004238DF80D3033
:10305000444B1B7803B1552343488DF80E30FEF7DF
:103060002CFB424E002401238DF80F00317840489C
:103070008DF810308DF811408DF812408DF8134006
:10308000FFF74DFE71788DF814003948FFF747FEC1
:103090008DF815003448FEF72DFB8DF816003248E8
:1030A000FEF72CFB8DF818002F488DF81740FEF71F
:1030B00023FB8DF81A002C488DF819408DF81B4021
:1030C0008DF81C40FEF71CFB01462948FFF727FE40
:1030D0008DF81D002748FEF78BFB14238DF81E008A
:1030E0008DF81F3003A853231A218DF820308DF856
:1030F00021408DF822408DF823408DF824408DF832
:103100002540FFF773FC8DF82600E30702AB23444C
:1031100004F1010454BF0D220A22062CDA77F4D1FF
:103120001549164801F0BEFC284602A92522FFF7E2
:1031300033FE0024E3B2BB4212D200F0DDFC1048A3
:10314000FFF7DEFC0F4802A9036825229B68984719
:103150000D4801F001FF0A48FFF7D8FC0134E9E708
:1031600013B0F0BDA4170020AB170020FB17002000
:10317000FA170020A81700202A9000080418002041
:10318000F91700201C180020400D03002DE9F04124
:103190008AB00546884617460021192203A802F086
:1031A00027FE00260AA941F8206D2846404CFFF76B
:1031B000D1FD029801F0D0FE00F09EFC23780BB107
:1031C000637833B900963B48394901223A4BFDF701
:1031D000EBFCFE238DF80C30E0238DF80D30152329
:1031E0008DF80E300E238DF80F30C0238DF810307F
:1031F00004238DF81130314B1B7803B1552330482F
:103200008DF81230FEF759FA012321788DF813005A
:103210002C488DF814308DF81580FFF780FD61780B
:103220008DF816002748FFF77AFD00248DF8170067
:103230000E2104A88DF818408DF819408DF81A4019
:103240008DF81B408DF81C408DF81D40FFF7CEFB1C
:103250008DF81E00E30703AB234404F1010454BFBF
:103260000D220A22062CDA74F4D11749174801F00E
:1032700019FC284603A91922FFF78EFD1448FFF711
:103280003FFC0024E3B2BB420CD200F035FC1148F5
:1032900003A9036819229B689847C82001F04EFED5
:1032A0000134EFE70A48FFF731FC0AB0BDE8F081CE
:1032B000FB170020A717002044900008A417002047
:1032C000AB170020FA1700204E90000804180020C9
:1032D000F91700201C180020122938B5054614469D
:1032E00008460BD0132910D0112916D100F06CF824
:1032F0000CB120460FE047F6FF700CE000F064F8D8
:10330000002CF6D149F63F4005E000F05DF8002CB6
:10331000EFD14FF2234000F0DFF8284638BD13B557
:103320000022044601A8FFF7D7FF204602B010BDD7
:10333000054B1B681B685B0103F1844394331A68D7
:10334000002AFCD0704700BF10000020054B1B680E
:103350001B685B0103F184438C331A68002AFCD09C
:10336000704700BF1000002008B5FFF7E1FF054BD4
:1033700000221B681B685B0103F18443C3F88C20A7
:1033800008BD00BF1000002008B5FFF7D1FF054BB6
:1033900001221B681B685B0103F18443C3F8902082
:1033A00008BD00BF1000002008B5FFF7C1FF054BA6
:1033B00000221B681B685B0103F18443C3F8902063
:1033C00008BD00BF1000002010B5044600F00FFB40
:1033D00000F01AFB204A112C136A23F44073136285
:1033E00013460BD005D8C4B1102C2AD10023136288
:1033F00027E0122C11D0132C1AD022E0174A0021FA
:103400001160012142F8081C154A126812F0FF0FE2
:10341000FAD01A6A42F4807212E0124A0121116055
:10342000114A1268002AFBD01A6A42F4007207E0BF
:103430000E4A126812F0FF0FFAD01A6A42F4407274
:103440001A620B4B01221A60FFF78EFFFFF77EFF17
:10345000BDE81040FFF76CBF001002400804424274
:1034600004044242800442428404424244004242F4
:103470003C044242F8B5104B1E6835682B686F68F3
:103480001F4017F0010403D074680CB1A047012459
:10349000BA0704D5B36813B1984744F002047B0718
:1034A00004D5F36813B1984744F004046B6823EA29
:1034B00004046C60F8BD00BF1000002008B5044B88
:1034C0001B681B691BB19847024B01221A6008BD9B
:1034D00010000020C482204210B50446FFF744FFCC
:1034E000FFF734FFFFF724FFFFF74EFF064B220CD8
:1034F0001B68A4B21B689A60DC60FFF755FFBDE84B
:103500001040FFF715BF00BF1000002001498D4695
:103510000149084700C000201D35000808B5124BBE
:10352000124A1968914201D0002301E0104B07E0D4
:103530001048D4188442F9D2C858D0500433F7E761
:103540000D4A934203D2002243F8042BF8E702F01D
:1035500015F900200146024601F04CFC074B0BB167
:1035600002F0FCF8FEE700BF04980008000000200D
:103570000817002008170020601900205D57000878
:1035800008B50D4B1A680AB90C4A1A601B680C4A38
:10359000D21A824204DB09494242591A914206DAA0
:1035A00002F0D6F80C2303604FF0FF3008BD024A4A
:1035B00018441060184608BD00180020601900204B
:1035C00098410128FEE70000124B10B51968092246
:1035D0000A23114801F02AF9104B022219681048F9
:1035E000032301F023F90F4B1A2219680E481B23FD
:1035F00001F01CF90D4B2A2219680D482B2301F00C
:1036000015F9BDE810400B4B0B4819682C223223EA
:1036100001F00CB9CC01002004180020D0010020DA
:103620001C180020D401002034180020BC0E0020FB
:103630004C180020C00E00206418002010B504466D
:1036400000F0BAF9034B20461978BDE8104000F0AD
:1036500013B900BF2C000020F8B50446056800F03F
:10366000A7FB22680023510101F184410B608021F6
:1036700029600121A9622B61EB606379696113B153
:103680008B4203D02BE04FF400436B644FF6FF7383
:10369000D36200256E1CF7B22046394600F092FB3B
:1036A000D0B1236848F6FF7103F1340242F82510C7
:1036B00018336D1017F0010F53F8252014BF6FF069
:1036C000FF016FF47F4101EA020214BF68214FF449
:1036D000D0410A4343F82520042E3546DAD121682B
:1036E00001224B01490103F1844301F18441C3F8F4
:1036F00080220A60F8BD704738B5274B274C1A68FE
:10370000022042F010021A6000F084F90025002027
:1037100000F04AFA65602368182023F40023236030
:1037200000F04FFA102000F04CFA00F043F8A560CA
:10373000102000F039FA102000F060FA0028FAD0CA
:1037400000F039F8164800F065FA182000F02CFA5D
:10375000182000F053FA0028FAD0022000F014FAE2
:1037600000214FF0006000F0E3F90E4800F0C8FAC5
:1037700000F038F80C4B188800F008F90B4800F0FE
:1037800009F90B4800F0F0FA00F02EF800F02DF8DF
:10379000FFF7B1FF38BD00BF00200240001002401B
:1037A000300000203F1901002E0000203D360008A7
:1037B00059360008704708B50020014600F078FA35
:1037C00001204FF4806100F073FA0021022000F024
:1037D0006FFA2D2000F07CFABDE80840032000219C
:1037E00000F066BA00F020B9704700F06BB9000035
:1037F000012007E0022005E0032003E0042001E0AF
:103800000520FFE70D4A0121116072B60C4A002124
:103810001160074902B4084902B486B005498E46D2
:10382000704700BFAFF30080AFF30080AFF30080BC
:1038300000000061F9FFFFFFE546000814ED00E01D
:1038400010E000E0AFF30080AFF30080AFF3008042
:10385000FEE710B50446007900F0F8F92079BDE8DC
:10386000104000F00BBA03689A6822F4602242F418
:103870008012114399607047002370B51A461C46A8
:10388000072B4FEA430503DCEE1801FA06F6344332
:103890001D4401FA05F501330A2B42EA0502EFD176
:1038A0000368DC601A6170BD0368DA6A22F0F8729E
:1038B000DA6259639A6842F480029A601A68920741
:1038C000FCD5D86C80B2704738B5124D2A681368A1
:1038D0001C68A10706D5196821F0020119609368D8
:1038E00003B19847620708D52B681A681B691168ED
:1038F00021F00401116003B19847E30708D52B6854
:103900001A68DB68116821F00101116003B1984762
:1039100038BD00BF7400002038B5124D2A68136806
:103920001C68A10706D5196821F002011960936887
:1039300003B19847620708D52B681A681B6911689C
:1039400021F00401116003B19847E30708D52B6803
:103950001A68DB68116821F00101116003B1984712
:1039600038BD00BF78000020036801225B0103F12D
:10397000844303F58673191F1A6018680028FCD168
:1039800043F8042C0B68002BFCD17047014604203F
:1039900000F08EB9054B10B504461868A047044BDB
:1039A0001868A047034B1868A04710BD740000209A
:1039B000700000207800002010B50446FFF749FF92
:1039C00020464FF46021FFF74EFF2368012103F1E9
:1039D000404308335A015B0102F1844203F18443FE
:1039E000116520461960BDE81040FFF7BDBF08B55E
:1039F000142000F02BF9042000F028F9BDE808405D
:103A0000042000F03BB90000014B01221A6070470E
:103A100020000E42034B1A6822F007021043186080
:103A2000704700BF0020024008B50B4801F0D5FAEE
:103A30000A4801F0D2FA0A4801F0CFFA094801F029
:103A4000CCFA094801F0C9FA084801F0C6FABDE805
:103A50000840074801F0C1BA7C0000208400002023
:103A60008C000020940000209C000020A400002076
:103A7000AC00002070B501F00704A4000F25A5409C
:103A80000368C80853F82060092A26EA050514BF10
:103A90001646082606FA04F4082A44EA050443F800
:103AA000204006D1012000FA01F1DA6822EA010182
:103AB00006E0092A05D1012000FA01F1DA68114374
:103AC000D96070BD08B5032000F0C0F8BDE808401B
:103AD000032000F0D3B80000064B45F255521A609F
:103AE0004CF6CC42586099601A604AF6AA221A60D5
:103AF000704700BF00300040024B4AF6AA221A600D
:103B0000704700BF0030004000284FEA011105DA7D
:103B1000064B00F00F00C9B21954704700F1604025
:103B2000C9B200F5614080F80013704714ED00E061
:103B300021F0604138B521F07F01084B08439860BF
:103B400000241D4660B20F210134FFF7DDFF3C2C3D
:103B5000F8D1F02385F8233038BD00BF00ED00E038
:103B6000044A054BD16801F440710B43D360BFF3A5
:103B70004F8FFEE700ED00E00400FA05014B13F85B
:103B80001000704746940008064B5A6822F0030262
:103B900002435A6080005A6802F00C028242FAD155
:103BA000704700BF00100240030A0121C0B201FAB1
:103BB00000F003F1804303F504331A6810431860E2
:103BC0007047030A0121C0B201FA00F003F18043FB
:103BD00003F504331A6822EA000018607047030AEC
:103BE0000122C0B202FA00F003F1804303F504336E
:103BF0001B6818420CBF002001207047030A0222F4
:103C0000C0B202FA00F003F1804303F504331B68ED
:103C10001840704738B54368044618201D68FFF700
:103C2000DEFF20B106488121064A00F065FD064B03
:103C300021685A680D4322F4741215435D6038BD43
:103C40009C9300082A9400080010024010B5044616
:103C5000FFF794FF074B53F82020074B03EB440476
:103C6000637803EBC2039B0003F1844301221A60D3
:103C700010BD00BFB40000204694000810B50446F3
:103C8000FFF77CFF084B53F82020084B03EB44045C
:103C9000637803EBC2039B0003F1844301221A60A3
:103CA00000221A6010BD00BFC0000020469400082A
:103CB00010B5054B054C5A6854F8200022EA000262
:103CC0001143596010BD00BF00100240A4940008C9
:103CD00010B50446FFF752FF074B53F82020074B5F
:103CE00003EB4404637803EBC2039B0003F18443BA
:103CF00000221A6010BD00BFC800002046940008D2
:103D0000024B072258601A60704700BF10E000E0C5
:103D100008B5044B1A6801321A60034B1B6803B1E3
:103D2000984708BD541900207C18002011F0010F9D
:103D300070B542EA03030CBF0825002503FA05F518
:103D4000006801F1FF3400F11800C4F3400450F89A
:103D5000241014BF6FF0FF066FF47F4631402943F3
:103D600040F8241070BD000010B504460848A04774
:103D70000848A0470848A0470848A0470848A04767
:103D80000848A0470848A0470848A04710BD00BF02
:103D900080010020A8010020D4000020F8000020AD
:103DA0001C010020400100204C010020580100208F
:103DB00010B504460079FFF749FF2079BDE81040AF
:103DC000FFF75CBF38B54B1E032B0D46047905D9B0
:103DD0000E4840F203110E4A00F08EFC1E2C10D942
:103DE000212C0ED0202C0ED9222C01D0252C04D130
:103DF000022D8CBF0020012038BD6B1E5842584157
:103E000038BD012038BD002038BD00BFB89400087F
:103E10000B9500088B1C40F823200368012203F156
:103E200040430C3301EBC3039B0003F184431A604E
:103E3000427903791ABBB3F11A025342534107295D
:103E400019D8DFE801F004090909090E0E13002B47
:103E500014BF19232C233BE0002B0CBF2E231B2364
:103E600036E0002B0CBF2D231A2331E0002B0CBFB2
:103E70002B2318232CE01B4840F28F1122E01B3B20
:103E80000C2B1CD8DFE803F0212307090B0D1B0FB7
:103E90001113151719001E231AE0322318E03623D8
:103EA00016E0372314E0182312E0192310E01A2338
:103EB0000EE02B230CE02C230AE02D2308E0094818
:103EC00040F2BF11084A00F017BC1C2300E01D237C
:103ED0005909012203F01F0302FA03F3034A42F8CF
:103EE00021307047B8940008DA88000800E100E04B
:103EF0000368002203F140430C3301EBC3039B0032
:103F000003F1844302311A6040F821207047000019
:103F1000F8B54E1EF3B2032B04460D46174604D9DE
:103F20002A48DA212A4A00F0E7FB6379022B04D100
:103F30002648DD21274A00F0DFFB6379022B43D0BE
:103F4000032F41D8DFE807F0021222352046294628
:103F5000FFF7CEFF236803F140432033DB0003EB80
:103F60008606B60006F18446002320E0236800227E
:103F700003F140430C3305EBC3039B0003F184437F
:103F80001A60204629466022082303E0204629467D
:103F900010220023FFF7CAFE236803F140432033B9
:103FA000DB0003EB8606B60006F18446012333608E
:103FB000F8BD23684FF2F1229A6103229A605B01F7
:103FC00003F1844301221A60F8BD00BFB8940008D1
:103FD0002C9500084895000810B5074B1C68E1684F
:103FE00022690A40120606D55B6A23B19847236905
:103FF00023F08003236110BD8001002010B5074B22
:104000001C68E16822690A40D20706D59B6823B183
:104010009847236923F00103236110BD800100202C
:10402000F8B50C4F3D68EB682E691E4016F0400451
:1040300003D03C6A0CB1A0474024B30604D5FB6909
:1040400013B1984744F020042B6923EA04042C613F
:10405000F8BD00BF80010020F8B5134F3E68F3683B
:1040600035691D4015F0100403D0BC690CB1A047A0
:104070001024290704D57B6913B1984744F008043C
:104080006A0704D53B6913B1984744F00404AB07B1
:1040900004D5FB6813B1984744F00204336923EA5E
:1040A00004043461F8BD00BF80010020F8B51A4E49
:1040B0003768FB683D691D4015F0400403D0346A41
:1040C0000CB1A0474024EB0604D5B36913B198475F
:1040D00044F01004280704D5736913B1984744F0DD
:1040E0000804690704D5336913B1984744F0040400
:1040F000AA0704D5F36813B1984744F00204EB070C
:1041000004D5B36813B1984744F001043B6923EA2E
:1041100004043C61F8BD00BFA8010020F8B51A4EA8
:104120003768FB683D691D4015F0400403D0346AD0
:104130000CB1A0474024EB0604D5B36913B19847EE
:1041400044F01004280704D5736913B1984744F06C
:104150000804690704D5336913B1984744F004048F
:10416000AA0704D5F36813B1984744F00204EB079B
:1041700004D5B36813B1984744F001043B6923EABE
:1041800004043C61F8BD00BFD4000020F8B51A4E0D
:104190003768FB683D691D4015F0400403D0346A60
:1041A0000CB1A0474024EB0604D5B36913B198477E
:1041B00044F01004280704D5736913B1984744F0FC
:1041C0000804690704D5336913B1984744F004041F
:1041D000AA0704D5F36813B1984744F00204EB072B
:1041E00004D5B36813B1984744F001043B6923EA4E
:1041F00004043C61F8BD00BFF8000020F8B51A4E79
:104200003768FB683D691D4015F0400403D0346AEF
:104210000CB1A0474024EB0604D5B36913B198470D
:1042200044F01004280704D5736913B1984744F08B
:104230000804690704D5336913B1984744F00404AE
:10424000AA0704D5F36813B1984744F00204EB07BA
:1042500004D5B36813B1984744F001043B6923EADD
:1042600004043C61F8BD00BF1C01002010B5074BE1
:104270001C68E16822690A40D20706D59B6823B111
:104280009847236923F00103236110BD40010020FA
:1042900010B5074B1C68E16822690A40D20706D5B1
:1042A0009B6823B19847236923F00103236110BD64
:1042B0004C01002010B5074B1C68E16822690A40D8
:1042C000120606D55B6A23B19847236923F0800361
:1042D000236110BD5801002010B5074B1C68E16830
:1042E00022690A40D20706D59B6823B19847236903
:1042F00023F00103236110BD58010020F8B50C4FD5
:104300003D68EB682E691E4016F0400403D03C6AFD
:104310000CB1A0474024B30604D5FB6913B19847FC
:1043200044F020042B6923EA04042C61F8BD00BF8B
:1043300058010020F8B5134F3E68F36835691D40F9
:1043400015F0100403D0BC690CB1A0471024290754
:1043500004D57B6913B1984744F008046A0704D573
:104360003B6913B1984744F00404AB0704D5FB68DC
:1043700013B1984744F00204336923EA040434611A
:10438000F8BD00BF5801002081880268034689B249
:10439000505C99881A8989B292B2914217BF9A8863
:1043A0000022013292B2C0B29A807047C28838B5FA
:1043B000838892B29BB201329A4204460D461AD0CB
:1043C000C288038992B29BB29A4202D183889BB27F
:1043D0008BB14FF0FF30E288236892B29D54E2889F
:1043E000238992B29BB29A4217BFE388002301331C
:1043F0009BB2E38038BD2046FFF7C6FFEBE770B500
:104400001E460546084611460422059CFFF732FB6E
:104410009DF810100B223046FFF72CFB2B6804F0A0
:104420000F01DA6804F0300422F4F0521204120C86
:1044300042EA4122DA601A6922F440521204120C54
:1044400042EA04241C6170BD70B5054616460C4650
:1044500041B900F0F5F8044620B90E48AE210E4AE5
:1044600000F04AF919235C43B6006423B4FBF6F468
:10447000B4FBF3F21201110903FB1144240132349D
:10448000B4FBF3F303F00F0329681A4392B28A6076
:1044900070BD00BF61950008B795000838B5114D93
:1044A000EB68980607D52B68990604D569680E480D
:1044B000C9B2FFF77BFFEB680A4C1A0611D52368D7
:1044C0001B060ED509488288C38892B29BB29A42D5
:1044D00003D0FFF759FF606038BDE36823F0800325
:1044E000E36038BD003801408C180020801800209F
:1044F00038B5114DEB68980607D52B68990604D599
:1045000069680E48C9B2FFF751FFEB680A4C1A06FA
:1045100011D523681B060ED509488288C38892B23C
:104520009BB29A4203D0FFF72FFF606038BDE3686B
:1045300023F08003E36038BD004400409818002059
:10454000BC18002038B5114DEB68980607D52B68CC
:10455000990604D569680E48C9B2FFF727FFEB68D2
:104560000A4C1A0611D523681B060ED50948828805
:10457000C38892B29BB29A4203D0FFF705FF6060F6
:1045800038BDE36823F08003E36038BD0048004095
:10459000A4180020D418002038B5114DEB689806F7
:1045A00007D52B68990604D569680E48C9B2FFF78C
:1045B000FDFEEB680A4C1A0611D523681B060ED5C2
:1045C00009488288C38892B29BB29A4203D0FFF70F
:1045D000DBFE606038BDE36823F08003E36038BD34
:1045E000004C0040B0180020C818002038B5114D0C
:1045F000EB68980607D52B68990604D569680E48BC
:10460000C9B2FFF7D3FEEB680A4C1A0611D523682E
:104610001B060ED509488288C38892B29BB29A4283
:1046200003D0FFF7B1FE606038BDE36823F080037C
:10463000E36038BD00500040E0180020EC18002076
:1046400008B590F89002FFF799FA20B101280348C5
:1046500018BF002008BD024808BD00BF00A24A04E0
:104660000051250213B504468DF8071020460DF1C0
:104670000701012200F00CFD0028F7D002B010BDA8
:1046800038B505464C1E14F8011F19B12846FFF72E
:10469000E9FFF8E738BD000008B5114B01211C689F
:1046A00003222046FFF7E6F9002301211A46934230
:1046B000206834BF02254FF40035B2F5007F056154
:1046C00003F1010303D0002A08BF012101E04FF0EC
:1046D000FF31B3F5007F04BF52180023E7E700BFA6
:1046E0009893000808B5034B0BB1AFF3008062B696
:1046F000FFF7D2FF00000000F8B5144B06460D4648
:1047000017460BB3AFF3008011490446FFF7B8FF1B
:1047100020463946FFF7B4FF20460E49FFF7B0FFA9
:1047200020463146FFF7ACFF20460B49FFF7A8FFB4
:104730002046294600F0FAFC20460A21FFF792FFA6
:1047400020460D21FFF78EFFFFF7CCFF0000000091
:10475000C3950008D9950008DA95000803695B68DD
:10476000D9889A8889B292B2D8888A1A998880B2F0
:1047700089B2884203D2198989B201310A4492B2BE
:1047800082B199881A6889B2505C99881A8989B26D
:1047900092B2914217BF9A880022013292B2C0B2FF
:1047A0009A8070474FF0FF30704703695B689988C3
:1047B000DA8889B292B2914205D09A881B6892B287
:1047C000985CC0B270474FF0FF30704703699A6839
:1047D0009088D18880B289B28842F9D11A6813686A
:1047E0005B06FCD5704713B504698DF807102046A9
:1047F0000DF10701012200F04BFC0028F7D0012049
:1048000002B010BD03695B68D8889A8880B292B202
:10481000D988801A9A8889B292B2914203D21B89B0
:104820009BB20133184480B27047000030B50025B8
:1048300045604FF47A758560024D0161056002752F
:10484000437530BD1096000803692DE9F74FDB680A
:10485000044699420F4692462CD890F81480174D82
:104860004FEA081808EB050690F8159070684FEAB3
:10487000091909EB050B717B10B10022FFF748FB0A
:10488000206900F0B5FB337B9BF80C2020698DE894
:10489000080459F8051058F80530FFF7B0FD2069F5
:1048A00000213A46FFF7D0FD206903B0BDE8F04F84
:1048B00000F0C8BB03B0BDE8F08F00BF68900008EF
:1048C0000022FFF7C1BF006900F0C6BB044B0279AC
:1048D0001B789A4202D1034B1B681860704700BFD7
:1048E000101900201C190020002310B50446036095
:1048F00072B6094B19311970084B18600848FFF758
:1049000033FA62B6236823B906484321064AFFF703
:10491000F3FE204610BD00BF101900201C19002016
:10492000CD480008309600088496000803680022ED
:104930001B685B0103F184431A607047036801221E
:104940001B685B0103F184431A60704703680139F7
:104950001B6889B29962704703681B68DA6A92B271
:10496000914228BF11465962704738B5054639B99A
:10497000036801221B689962DA62D86A80B238BD86
:1049800048244C434FF6FF71B4FBF1F1013189B279
:1049900004EB5104B4FBF1F4FFF7D8FF2B68A4B289
:1049A0001B682046DC6238BD0068C9B2FFF732BA26
:1049B00008B501211048FFF797FF02210F48FFF7C4
:1049C00093FF03210E48FFF78FFF04210D48FFF7E7
:1049D0008BFF05210C48FFF787FF06210B48FFF7E7
:1049E00083FF07210A48FFF77FFFBDE80840094819
:1049F0000821FFF779BF00BFF8180020FC1800203D
:104A00000019002004190020081900200C190020AA
:104A1000181900201419002070B505460E46002410
:104A2000315D29B12A682846126890470134F7E7BA
:104A3000204670BDF8B505460C4616468F18BC4298
:104A400006D02B6828461B6814F8011B9847F6E728
:104A50003046F8BD10B502680B46946809689A683C
:104A6000A04710BD08B503681B68984708BD08B586
:104A700003685B68984708BD38B50D210546FFF708
:104A8000F1FF0A2104462846FFF7ECFF204438BD19
:104A900038B50446FFF7DEFF05462046FFF7ECFF7A
:104AA000284438BD38B50446FFF7E1FF05462046E7
:104AB000FFF7E2FF284438BD2DE9F04F14461D46AC
:104AC00091B054EA050381469DF868B004D13021C5
:104AD000FFF7C8FF01202EE04FF000085FFA8BF6C9
:104AE00000272046294632463B4600F047FB08F1A6
:104AF00001080DF1000AC2440AF8012C204629469B
:104B00003B46324600F03AFB04460D4654EA0503A4
:104B1000E4D1002408F1FF381DF80810484609299F
:104B200094BF30313731C9B2FFF79CFF0444B8F16C
:104B3000000FEFD1204611B0BDE8F08F70B5049999
:104B400021B90368D1B21B68984770BDC9B20491FE
:104B5000BDE87040FFF7B0BF07B500230092CAB2AE
:104B6000FFF7ECFF03B05DF804FB38B50446FFF730
:104B7000F3FF05462046FFF77FFF284438BD10B5F8
:104B80000446006800F02AFE204610BD10B5044619
:104B9000006808B100F022FE00232360A360636078
:104BA00010BD38B504460D460068013101F08EF99C
:104BB00010B184E82100012038BD036810B5044617
:104BC00013B143688B4207D22046FFF7EAFF20B1BA
:104BD000A3680BB922681370012010BD70B50E4692
:104BE000114604461546FFF7E8FF18B92046FFF7BF
:104BF000CDFF04E0A5602068314601F07FFC20462F
:104C000070BD38B5002304460360436083600D46E1
:104C100039B1084601F0D0FC294602462046FFF78C
:104C2000DDFF204638BD884210B50B46044607D04C
:104C3000096819B19A68FFF7D1FF01E0FFF7A6FFF5
:104C4000204610BD10B50023044603604360836016
:104C5000FFF7E9FF204610BD38B505460C4641B1C7
:104C6000084601F0A9FC214602462846FFF7B6FF98
:104C700001E0FFF78BFF284638BD10B500238AB04E
:104C80000446036043608360084601A900F0A3F96D
:104C9000204601A9FFF7E0FF20460AB010BD70B51D
:104CA000044685680E4609B9002070BD62B11544FE
:104CB0002946FFF782FF0028F6D02068A368314616
:104CC000184401F01BFCA560012070BD07B500234E
:104CD0008DF80410012201A98DF80530FFF7DFFFE0
:104CE00003B05DF804FB13B50A220446084601A987
:104CF00000F071F901A801F05FFC01A9024620460D
:104D0000FFF7CDFF02B010BD1FB504460A220846CA
:104D1000694600F060F9684601F04EFC69460246BB
:104D20002046FFF7BCFF04B010BD0B4610B5096864
:104D30009A680446FFF7B3FF10B92046FFF726FF35
:104D4000204610BD38B504460D4641B1084601F075
:104D500033FC294602462046FFF7A1FF10B9204642
:104D6000FFF714FF204638BD10B50446FFF7BBFF20
:104D700010B92046FFF70AFF204610BD10B50446C3
:104D8000FFF7C2FF10B92046FFF700FF204610BD15
:104D900003680A680BB15AB905E022B1896811B1FC
:104DA0001078404270473BB1806830B11878704746
:104DB0001846114601F084BA1846704708B5826853
:104DC0008B689A4206D1FFF7E3FFD0F1010038BFAC
:104DD000002008BD002008BD10B504683CB114F8DF
:104DE000010B20B101F018FC04F8010CF7E710BD2D
:104DF000FEF782BC08B5FDF7ABFCFDF7B3FAFCE7A4
:104E0000322870B542D8082918D8DFE801F01E21F1
:104E100005080B0E05111400002404221AE00024DA
:104E2000224617E00024092214E00024082211E0A1
:104E300001240B220EE001240F220BE014484C2128
:104E4000144ABDE87040FFF757BC0024032201E07C
:104E500000240722104B00011E18317B1858FEF762
:104E600009FE706890B1717B24B10122BDE87040E9
:104E7000FFF74EB80368013903F140432033DB00EC
:104E800003EB81039B0003F184431C6070BD00BFF2
:104E900096960008DA88000868900008054B03EB36
:104EA000001000F10803806810B19979FEF7FCBC8E
:104EB000704700BF6890000832280ED8084B0001E8
:104EC0001A18127B012101FA02F21B581B689B6819
:104ED0001A420CBF0020012070470020704700BF1D
:104EE00068900008322810D8084B00011A18127B6D
:104EF0001B58012000FA02F2D1F1010138BF002154
:104F0000090102FA01F11B681961704768900008F5
:104F100010B5044630B100F0B9FF90FBF4F303FB89
:104F2000140010BD10BD884210B5044604DA081AFA
:104F3000FFF7EEFF204410BD10BD0000054B70B51B
:104F40001C6806461D4600F00EF82B681B1BB3427A
:104F5000F9D370BD541900200C235843431E184642
:104F60000138FDD870477047F0B58BB059B3931E28
:104F7000222B2AD80A2A2AD1002828DA40420125E1
:104F800001AB1E4670B1B0FBF2F702FB1704092C0F
:104F90003846D8BF303403F10107C8BF57341C70FE
:104FA0003B46EFE7B342EED01DB12D204A1C0870FE
:104FB00000E00A46B34204D913F8010D02F8010BD0
:104FC000F8E700231370084603E0002001E0002505
:104FD000D6E70BB0F0BDFFF7C7BF10B504460079A8
:104FE000FEF734FE2079BDE81040FEF747BE000012
:104FF000436800227F2110B59A80DA80198100F180
:1050000010011960836804469A80DA8040F2FF122A
:105010001A8100F190021A6090F89002FEF716FED5
:1050200094F891325AB2002A08DB012103F01F03E1
:1050300001FA03F30249521141F8223010BD00BFBA
:1050400000E100E00368DA6842F02C02DA60DA6816
:1050500042F40052DA60704710B5036882689488A1
:10506000D188A4B289B28C42F9D1DA68910402D510
:105070001A685206F9D5DA6822F40052DA604368F9
:105080009A8892B2DA8083689A8892B2DA8010BDE8
:10509000F0B583680546046800209F88DE88BFB2AB
:1050A000B6B2B74204D0E36823F08003E36027E0A0
:1050B00026683606F7D59042F5D00E5C0130666062
:1050C000EBE7DF889E88BFB2B6B20137B74211F86E
:1050D00000C01DD0DF881E89BFB2B6B2B74213D060
:1050E000DF881E68BFB206F807C0DF881E89BFB21E
:1050F000B6B2B74218D0DE880136B6B2DE800130D3
:105100009042AB68DDD303E09E88B6B2002EE7D1B3
:105110009A88DB8892B29BB29A4200D1F0BDE368D4
:1051200043F08003E360F0BD0026E7E77FB5064665
:1051300000240A22B1FBF2F302FB1312013401AD89
:105140002819303200F8012C1946002BF1D114F146
:10515000FF340BD32B5D8DF8033030460DF1030186
:105160000122FFF795FF0028F7D0F0E704B070BDEB
:1051700003460846194600F0E1BA00BF4BB942B9F0
:10518000002908BF002802D04FF0FF31084600F088
:105190003BB882B0EC462DE9005000F01DF8DDF878
:1051A00004E002B00CBC70472DE9704F089E144615
:1051B0001D468046894600F029F804FB01F3A4FB54
:1051C00000AB00FB05329344B8EB0A0869EB0B090E
:1051D000C6E90089BDE8708F2DE9704F089E14461E
:1051E0001D468046894600F061F900FB05F5A0FBED
:1051F00004AB04FB0154A344B8EB0A0869EB0B09A8
:10520000C6E90089BDE8708F704700BF00292DE90D
:10521000F00FC0F2A1800024002BC0F29880154648
:1052200006460F46002B3FD18A4258D9B2FA82F384
:105230004BB1C3F1200201FA03F720FA02F29D40BC
:1052400000FA03F61743290CB7FBF1F201FB1277C2
:10525000A8B200FB02F34FEA164C4CEA0747BB42E8
:1052600009D97F1902F1FF3C80F00581BB4240F271
:105270000281023A2F44FF1AB7FBF1F301FB1371CD
:1052800000FB03F0B6B246EA0141884208D9491949
:1052900003F1FF3780F0F180884240F2EE80023B5C
:1052A00043EA0242002303E08B420AD900231A4654
:1052B0001046194614B1404261EB4101BDE8F00FC0
:1052C0007047B3FA83F8B8F1000F40F088808B4242
:1052D00002D3824200F2E28000230122E8E712B901
:1052E0000123B3FBF2F5B5FA85F2002A3AD17F1B10
:1052F000280C1FFA85FC0123B7FBF0F100FB1177A6
:105300000CFB01F24FEA164848EA0747BA4207D9B0
:105310007F1901F1FF3802D2BA4200F2C48041463F
:10532000BF1AB7FBF0F200FB12700CFB02FCB6B226
:1053300046EA0040844507D9401902F1FF3702D2FE
:10534000844500F2AE803A4642EA0142B0E7E443C7
:10535000524263EB430362E7404261EB41014FF08D
:10536000FF3459E79540C2F1200927FA09F126FADE
:1053700009F99740280CB1FBF0F800FB18111FFA4F
:1053800085FC0CFB08F349EA07094FEA194747EA8D
:1053900001418B4206FA02F608D9491908F1FF3299
:1053A0007AD28B4278D9A8F102082944C91AB1FBF4
:1053B000F0F300FB13170CFB03F21FFA89F949EA1B
:1053C0000747BA4207D97F1903F1FF3160D2BA42C9
:1053D0005ED9023B2F44BF1A43EA08438CE7C8F169
:1053E000200225FA02F103FA08FC27FA02F320FA58
:1053F00002F207FA08F741EA0C0C4FEA1C49B3FB2A
:10540000F9F109FB11331FFA8CFA0AFB01FB174370
:105410003A0C42EA03439B4505FA08F008D913EB1E
:105420000C0301F1FF3235D29B4533D90239634475
:10543000CBEB0303B3FBF9F209FB12330AFB02FACD
:10544000BFB247EA0347BA4508D917EB0C0702F188
:10545000FF331BD2BA4519D9023A674442EA0145E3
:10546000A5FB0001CAEB07078F424FF000030AD3E8
:1054700005D02A461CE76246FDE63B4610E706FAE1
:1054800008F68642F5D26A1E002311E71A46E5E7C0
:105490000B46A0E71146CBE7904687E743464246D6
:1054A00006E7023A50E702392F4439E72DE9F00FB9
:1054B000144605460E46002B43D18A4253D9B2FA10
:1054C00082F757B1C7F1200620FA06F601FA07F372
:1054D00002FA07F400FA07F51E43210CB6FBF1F2BD
:1054E00001FB1266A0B200FB02F32F0C47EA06464E
:1054F000B34209D9361902F1FF3780F0FD80B3427B
:1055000040F2FA80023A2644F61AB6FBF1F301FBA8
:10551000136100FB03F0ADB245EA0141884208D9AE
:10552000091903F1FF3680F0E980884240F2E680F5
:10553000023B43EA0242002310461946BDE8F00F41
:1055400070478B424CD8B3FA83F6002E4FD18B4272
:1055500002D3824200F2DD80BDE8F00F0023012279
:1055600010461946704712B90124B4FBF2F4B4FA9C
:1055700084F2002A40F08280091B260CA7B2012386
:10558000B1FBF6F006FB101107FB00F24FEA154CD9
:105590004CEA01418A4207D9091900F1FF3C02D2C5
:1055A0008A4200F2C8806046891AB1FBF6F206FB17
:1055B000121107FB02F7ADB245EA0145AF4208D927
:1055C0002C1902F1FF3180F09B80A74240F29880B5
:1055D000023A42EA004210461946BDE8F00F704711
:1055E00000231A4610461946BDE8F00F7047C6F171
:1055F000200522FA05F703FA06F421FA05F301FA69
:1056000006FB20FA05F53C434FEA1448B3FBF8FCCF
:1056100008FB1C331FFA84F909FB0CFA45EA0B0B53
:105620004FEA1B4545EA03439A4502FA06F204D9BC
:105630001B190CF1FF356FD3AC46CAEB0303B3FB68
:10564000F8F508FB153309FB05F91FFA8BFB4BEA4C
:105650000347B94504D93F1905F1FF3362D31D460D
:1056600045EA0C4CACFB0223C9EB07079F424FF005
:1056700000054AD346D062462B465DE79440C2F10E
:10568000200921FA09FC914020FA09F9260CBCFBFB
:10569000F6F806FB18CCA7B207FB08F349EA0109A4
:1056A0004FEA194141EA0C4C634500FA02F509D969
:1056B0001CEB040C08F1FF323BD2634539D9A8F149
:1056C0000208A444C3EB0C0CBCFBF6F306FB13C1AD
:1056D00007FB03F21FFA89F949EA01418A4207D917
:1056E000091903F1FF3022D28A4220D9023B21441A
:1056F000891A43EA084343E73A4605E7334618E781
:105700000A4666E7B0409042B5D20CF1FF32002362
:1057100012E7334632460FE79A458DD9ACF1020CB9
:1057200023448AE7B9459AD9023D274498E70346BE
:10573000DEE79046C6E70238214435E710B40C4650
:1057400013460146224602205DF8044B00F070BF6C
:10575000014B1868704700BFF012002008B5002107
:10576000044600F0C3FF044B1868C36B03B19847AD
:105770002046FDF727FF00BFFC96000870B50F4ECE
:105780000F4D761BB61007D0043D0024013455F8A8
:10579000043F9847A642F9D10A4E0B4D01F056F945
:1057A000761BB61008D0043D0024013455F8043FA0
:1057B0009847A642F9D170BD70BD00BF586A000875
:1057C000586A0008746A0008586A0008024B0146CB
:1057D000186800F00BB800BFF0120020024B014621
:1057E000186801F067B800BFF01200202DE9F04FF3
:1057F00001F10B05162D83B0064627D935F00705B4
:1058000027D4A94225D8304600F03CFBB5F5FC7FF3
:1058100026D2C14F4FEAD50C07EBCC03DC689C4283
:1058200000F0D2816368E26823F0030323445868E0
:10583000A16840F00105CA60304691605D6000F0EB
:1058400023FB0834204603B0BDE8F08F1025A942A1
:10585000D9D900240C232046336003B0BDE8F08F73
:105860005FEA552C00F08980BCF1040F00F26081E2
:105870004FEA951C0CF1380C4FEA4C01A64F07EB90
:105880008101CC68A14205D10CE0002B79DAE468F3
:10589000A14207D0626822F00302531B0F2BF4DDF4
:1058A0000CF1FF3C0CF1010C9B4B3C6903F1080E21
:1058B000744500F07E81616821F003014A1B0F2AC4
:1058C00000F36481002AC3F814E0C3F810E069DA39
:1058D000B1F5007F80F03A81C9088A104FF00108C5
:1058E00008FA02F803EBC1015A68886848EA020224
:1058F000A060E1605A608C60C4604FEAAC03012094
:10590000984090425BD8024206D12CF0030C400034
:1059100002420CF1040CFAD007EBCC084446E146F5
:10592000E3689C4207D146E1002A80F25781DB6898
:105930009C4200F04081596821F003014A1B0F2A64
:10594000F2DD1C4654F808CFD96845F0010942F051
:1059500001081D44C3F804903046CCF80C10C1F87F
:1059600008C07D613D61C5F80CE0C5F808E0C5F8E8
:105970000480AA5000F088FA64E77E214FF03F0CC3
:105980007CE722445068E368A16840F00105CB60E1
:1059900030469960556000F077FA0834204603B02D
:1059A000BDE8F08F21444B68304643F001034B6063
:1059B00000F06AFA0834204603B0BDE8F08FBC68F6
:1059C000636823F00309A94504D3C5EB09030F2B32
:1059D00000F39180514B524A1968136805EB010A94
:1059E000013304EB090B00F061810AF5805A0AF1DA
:1059F0000F0A2AF47F6A2AF00F0A304651460192B4
:105A000000F04CFCB0F1FF3F8046019A00F00181AC
:105A1000834500F2FB80DFF814C1C345DCF8003099
:105A20005344CCF8003000F04A8112683C490132FE
:105A30001BBFCBEB080B5B44C1F80080CCF80030F7
:105A400018F0070300F01481C3F10802C3F5805376
:105A500090440833C244CAF30B0ACAEB030A514606
:105A60003046CDF804C000F019FC431CDDF804C03A
:105A700000F03581C8EB0002524442F00102DCF82C
:105A80000030BC425344C7F80880CCF80030C8F856
:105A90000420DFF898A015D0B9F10F0F40F2EB8089
:105AA0006168A9F10C0222F0070201F0010142EA4B
:105AB000010E0520A1180F2AC4F804E04860886090
:105AC00000F21181174ABC6811688B4288BF1360CD
:105AD000154A11688B4288BF1360626822F0030286
