:020000040800F2
:1000000000C000204D380008313B0008353B000897
:10001000393B00083D3B0008413B0008913B00088C
:10002000913B0008913B0008913B0008913B000880
:10003000913B0008913B0008913B000851400008AB
:10004000913B0008913B0008913B0008B537000840
:10005000913B0008913B0008913B0008913B000850
:10006000913B0008913B0008913B0008913B000840
:10007000913B0008913B0008913B0008913B000830
:10008000913B0008913B0008093C0008913B0008A7
:10009000913B0008913B0008913B0008913B000810
:1000A000DD42000801430008254300085D430008C5
:1000B000B14300082144000891440008913B000826
:1000C000913B0008913B0008913B0008913B0008E0
:1000D000913B000889470008DD47000831480008C7
:1000E000913B0008FD370008913B0008B945000826
:1000F000DD4500080146000839460008593C000863
:10010000913B0008913B000801450008913B000825
:1001100085480008D9480008714500089545000841
:10012000913B0008913B0008913B0008913B00087F
:1001300010B5054C237833B9044B13B10448AFF321
:1001400000800123237010BD08170020000000006C
:10015000D46C000808B5064B1BB106480649AFF33E
:1001600000800648036813B1054B03B1984708BDEA
:1001700000000000D46C00080C17002008170020B5
:100180000000000002F0FABD38B50D46044602F04A
:1001900010FE290A49006039204601F0FE0102F0F4
:1001A0009FFE204602F075FEE9B2204602F098FE5E
:1001B000204602F06EFE204602F0FBFD2046A12103
:1001C00002F08EFE204602F064FE0021204602F07E
:1001D000AEFE0546204602F03FFE204602F004FE39
:1001E000284638BD70B50D461646044602F0E1FDBE
:1001F000290A49006039204601F0FE0102F070FE34
:10020000204602F046FEE9B2204602F069FE204692
:1002100002F03FFE3146204602F062FE204602F028
:1002200038FE204602F0E0FDBDE870400A2004F0F0
:10023000C9BF000008B50E4A5178937843EA0123FC
:10024000A3F52043113B032B07D8DFE803F00C0E86
:100250000204022008BD032008BD002180220448BA
:1002600005F00AFF08BD002008BD012008BD00BF41
:100270002417002010B5074C6018114602F0B2FC9C
:10028000054B1B781C4414F8073C1B1A5842584174
:1002900010BD00BF24170020A6170020084B1879B6
:1002A0005B7943EA002045F25553984205D04CF261
:1002B0000403C31A5842584170470120704700BFD9
:1002C00024170020044B9B79552B044B0CBF0122B3
:1002D00000221A70704700BF24170020A4170020C6
:1002E00010B5084CE379552B01D1012010BD06480B
:1002F00001F077F9E3798342F7D0D0F1010038BFFC
:10030000002010BD24170020AA17002013B50D4BA4
:100310001C7A552C01D1012012E00B48694601F0EE
:10032000BBF800231A461DF803108C42F3D019B90C
:100330000132D2B2052AEED00133052BF3D10020D1
:1003400002B010BD24170020AA17002070B5054682
:100350001E46FFF78FFF0446A8B12846FFF79EFF11
:10036000044648B12846FFF7ADFF2846FFF7B8FF1F
:10037000044658B9A6B909E01249134804F0FCFC38
:100380001148124919E01048114916E02846FFF7B4
:10039000BDFF044698B99DF8103043B901240EE022
:1003A0000C49094804F0E8FC07480B4905E00B49F3
:1003B000054804F0E1FC0448094904F0DDFC20464E
:1003C00070BD00BF20840008081800204E8400087B
:1003D0007C840008A0840008D78400080E850008EB
:1003E000468500081E4B13B51B78002B35D0002323
:1003F0000093042117220123FFF7A8FF20B3194B14
:100400001C7A012C1DD11848D97C01F05BF970B120
:10041000224616480F2103F059F82146144800F0EF
:1004200045FD12482146022202F088FF0CE00F48E9
:100430001021022203F04AF80E490F4804F09CFCF8
:1004400002E00A4802F0F4FD0C4B06481A7800213D
:1004500002B0BDE8104005F00FBE02B010BD00BFF5
:100460000D00002024170020A817002000180020ED
:10047000A71700207A85000808180020A61700207A
:10048000164B07B51B7833B30023009304210A22CF
:100490000123FFF75BFFA8B11148124900F0AEFF3E
:1004A00038B11149114804F067FC114803210222B8
:1004B00006E010490D4804F05FFC0D4804210122BC
:1004C00003F004F80C4B0D481A78002103B05DF8D6
:1004D00004EB05F0D1BD03B05DF804FB0D00002076
:1004E000AA1700202C170020BE850008081800203D
:1004F0000018002000860008A617002024170020FE
:1005000013B50023009304210F22FFF71FFF08B348
:100510001B4C1C4804F10A0100F0E5FD68B31948C2
:1005200004F10A0100F01FFE38B31749174804F020
:1005300023FC1448E17901F01BF8A0B114491348D9
:1005400004F01AFC13480521012202F0BFFF0D48F8
:1005500000F0EAFE104B0A481A78002102B0BDE80C
:10056000104005F089BD09480C4904F005FC094814
:100570000621012202F0AAFFECE704480849F4E74B
:1005800024170020AA170020CD8600080818002094
:100590004286000800180020A61700208886000860
:1005A000FA8600080E4B07B51B78ABB10023009309
:1005B000042105220123FFF7C9FE20B101210948CA
:1005C0000A4602F0BBFE084B08481A78002103B027
:1005D0005DF804EB05F050BD03B05DF804FB00BF0F
:1005E0000D00002000180020A6170020241700206E
:1005F00010B50446FFF71EFE032817D8DFE800F009
:1006000002070C112046BDE81040FFF7EBBE204664
:10061000BDE81040FFF734BF2046BDE81040FFF7AB
:100620006FBF2046BDE81040FFF7BCBF10BD000003
:100630002DE9F047484C00268146267003F0FCFB6C
:1006400037463546454804F053FA00287FDD03F06D
:10065000F3FB94F800A041480AF10103237004F071
:10066000F3F9DFF8108108F80A00032004F0AAFD6E
:1006700023781022434413F8011C394804F0D6FBB8
:100680003748384904F05DFB94F90030002B06DA56
:10069000314B002140468022197005F0EDFC227894
:1006A00008EB020313F8013CFE2B03D1561EF6B2F1
:1006B0005FBB02E04FBB0D2B27D00027052DC1D11A
:1006C0002949274804F058FB2548284904F054FBE1
:1006D00036B9274B1B7893B14846FFF789FF0EE0E8
:1006E00021780023891BDAB2F0188A42C0B203F1E4
:1006F0000103EEDA18F8000008F80200F3E700231F
:100700002370BDE8F04703F097BB042D1BD8DFE84A
:1007100005F003070C1116000A3B5D425D4114E031
:100720000D2B0CBF022500250FE00A2B0CBF032563
:1007300000250AE00D2B0CBF0425002505E00A2B3F
:10074000BED0002501E00127B8E701277AE70023A2
:100750002370BDE8F08700BFA617002020180020F6
:1007600008180020CB980008358700085987000832
:100770000C0000202417002008B51D20002104F0E3
:100780008FFC1D20012104F0F1FC1020002104F059
:1007900087FC1120002104F083FC1C20002104F0C0
:1007A0007FFC1120002104F0E1FC1C20012104F059
:1007B000DDFCBDE808401020002104F0D7BC00009B
:1007C000014804F0F3B900BF2018002008B561B15A
:1007D00000211C2004F0CAFC962004F0F3FCBDE8C4
:1007E00008401C20012104F0C1BC08BD08B500214F
:1007F0001D2004F0BBFC0C4804F0DBF902200021B2
:1008000004F04EFC0320002104F04AFC02200021E9
:1008100004F0ACFC0320002104F0A8FCBDE8084073
:100820001C20002104F0A2BC2018002010B50B7879
:10083000452B12D14B78522B0FD18B78CC78303B93
:1008400003EB8303303C04EB4304E4B221460A2269
:10085000034804F0F4FA204610BD0A2010BD00BF82
:10086000081800200B784F2B07D148784B2804D16B
:1008700013704B780120537070470020704730B5DB
:100880000020C4B20D5D01302C2D01D01D55F8E7BC
:10089000601C5525C0B21D55904204D20C5C1C54FE
:1008A0000130C0B2F8E730BDF8B54C78432C08D120
:1008B0008C78532C05D1CC78B4F151056C426C4145
:1008C00000E000240026F5B24F5D01363A2FFAD140
:1008D0000135EDB200279542FEB207F1010706D8B7
:1008E00011F805C0013501F806C0EDB2F3E73CB9D7
:1008F0002046C2B2B2420BD20A5C1A540130F8E769
:10090000069A022412681470721ED2B2FFF7B7FF63
:100910000120F8BD37B5154809B9154900E015495A
:1009200004F00FFA642004F04DFC00240F4804F09A
:10093000DFF80028E5B208DD062C14D00B4804F0DF
:1009400083F80DF804000134F0E755B19DF802304A
:100950004F2B08D19DF80300B0F14B03584258418A
:1009600002E0284600E0002003B030BD201800203F
:10097000848700088887000810B5012104461D20DF
:1009800004F0F4FB07484FF4165104F00FF9204629
:100990000121FFF71BFF20460121BDE81040FFF7B2
:1009A000B9BF00BF201800202DE9F0419EB005AD71
:1009B0000C4607460021904628466422039305F022
:1009C0005BFB21462C4804F0BCF9642004F0FAFBE0
:1009D0000024294804F08CF80028E6B207DD642CD6
:1009E00045D0254804F030F828550134F1E726B900
:1009F0002249234804F0C0F939E09DF814300D2B4A
:100A000035D19DF815300A2B31D11EAB334413F884
:100A1000653C0A2B2BD1023E1EAB334413F8643CD9
:100A20000D2B24D10021CCB2A31CDBB2B34201F1C7
:100A3000010107DA1EAA134413F8643C144404F8B5
:100A4000643CF0E738462946FFF7F0FE0A280CD14F
:100A500003AB00933846294622464346FFF724FF5E
:100A600000280CBF0320022002E0012000E0032048
:100A70001EB0BDE8F08100BF201800208E8700085E
:100A8000081800202DE9F041B2B006460D46904608
:100A90000021642268461F4605F0EEFA19A80021DD
:100AA000642205F0E9FA0024E3B2E85C013420B1E5
:100AB00032AA134403F8640CF6E70146CAB25D1883
:100AC00018F80240EDB232AA01312A4414B102F8FA
:100AD000644CF3E70D2302F8643C6B1C32A8DBB2D4
:100AE00003442F480A2203F8642C036819A95B68A1
:100AF00098472C48AA1C036819A99B68D2B298474A
:100B0000642004F05FFB274803F0F2FF0028E5B201
:100B100008DD642C3FD0234803F096FF0DF8040055
:100B20000134F0E7002D36D09DF800300D2B32D186
:100B30009DF801300A2B2ED132AB2B4413F8C93C5F
:100B40000A2B28D1023D32AB2B4413F8C83C0D2BA5
:100B500021D100218B1CDBB2AB4201F1010209DA89
:100B600032A8034413F8C83CC9B2014401F8C83C98
:100B70001146EFE730466946FFF758FE0A2808D1CC
:100B8000304669463A46FFF76DFE80F00100C0B27C
:100B900002E0012000E0032032B0BDE8F08100BF98
:100BA0000818002020180020F7B51E4604461746F6
:100BB0000D4600218DF80710FFF7ACFE03F03CF95D
:100BC000204631462FB12A460DF10703FFF7ECFE10
:100BD00003E0089A2B46FFF755FF03282AD8DFE8E1
:100BE00000F011040207002311E01648164901E045
:100BF0001448164904F0C0F820460121FFF78AFE88
:100C000000201CE012490F4804F0B6F812E09DF8ED
:100C100007205E1CDBB29A420A4809D9E95C10221F
:100C200004F004F907480B4904F08BF83346EEE76B
:100C300004F08CF820460121FFF76CFE012003B080
:100C4000F0BD00BF08180020A2870008B387000885
:100C5000BC870008CB9800082DE9F0438BB004AFA7
:100C6000804600210922384602AE002405F004FA2D
:100C700000944046314601222C4BFFF795FF054674
:100C800010B92B482B494BE02346F25C07AC092AEC
:100C900001D8303204E0A2F10A01052998BF3732A9
:100CA000E2540133082BF0D14FF0000922488DF8AF
:100CB000249000F0F7FD0246C0B120491C4804F022
:100CC0005BF81D48394600F05BFD50B14B46E15CD6
:100CD000FA5C914217D10133082BF8D11448184916
:100CE0001EE01849124804F047F807E00094404617
:100CF0003146154BFFF758FF054698B121460E487F
:100D000000F08EFD0AE01149094804F035F800971B
:100D10004046314600220C4BFFF746FF054601E0F6
:100D200004F02AF828460BB0BDE8F083D28700080B
:100D300008180020DD870008A8170020FD8700089C
:100D4000858800081B8800083F880008488800083C
:100D50002DE9F04F89B002AF07F10C0683468946B2
:100D600090461C46304600210A2205F085F9002CE9
:100D700050D1C7F804D05846CDF800803146012242
:100D80004B46FFF711FF824608B1214606E0404975
:100D9000404803F0F1FF3F483F496FE0CCB218F8FC
:100DA00004300131002BF9D1E11D01F4FC71ADEBF0
:100DB000010D02A9D8B2A04203D2F05CC85401339D
:100DC000F8E70B46581AC0B2A0420DD213F8010B37
:100DD000092801D8303004E0A0F10A05052DF1D82A
:100DE000373003F8010CEDE70025EBB2A34243D204
:100DF0004B5D013508EB050010F8010C9842F4D06A
:100E00002649244803F0B8FF2248254903F0B4FFDF
:100E10007B689D466C460023DAB219F80210013354
:100E20000A29F9D1931D03F4FC73ADEB030DA2F174
:100E3000020E02AB0020C1B2551EA94200F1010012
:100E400003DA19F801505D54F5E700223D215A55A7
:100E5000584603F80E10CDF800803146FFF7A4FE87
:100E6000054628B90B480F4903F086FFAA4601E062
:100E70004FF0010AA54605E006480B4903F07CFF48
:100E80007B689D4650461C37BD46BDE8F08F00BFCD
:100E9000AF88000808180020D5880008F9880008E5
:100EA0005089000892890008C78900087FB50F2281
:100EB00004460D466846002105F0DEF862486349A5
:100EC00003F05AFF0A2602F0B7FF002D6CD120462E
:100ED000FFF7C2FE5E498DF800005E4A2B462046B1
:100EE000FFF736FF5C498DF801005C4A2B4620462F
:100EF000FFF72EFF5A498DF802005A4A2B4620462A
:100F0000FFF726FF58498DF80300584A2B46204624
:100F1000FFF71EFF564A57492B468DF8040020461E
:100F2000FFF716FF8DF80500534800F00BFCF12881
:100F30000CBF524A494A52492B462046FFF708FF48
:100F400050498DF80600504A00232046FFF700FF65
:100F50004E498DF807004C4A00232046FFF7F8FE63
:100F60004B498DF80800454A00232046FFF7F0FE64
:100F700048498DF80900484A00232046FFF7E8FE5B
:100F800046498DF80A00464A00232046FFF7E0FE56
:100F9000324A8DF80B00434920460023FFF7D8FE64
:100FA0000D228DF80C000EE0334800F0CBFBF12849
:100FB0000CBF324A294A204631490023FFF7C8FEB8
:100FC00001228DF8000000231DF80310A9B936494D
:100FD0001D4803F0D1FE2046FFF7CEFC2046FFF768
:100FE00005FC02F029FF2046FFF7C6FC4FF4FA602B
:100FF00004F0E8F802F020FF05E00133D9B2914295
:10100000E2D304B070BD294803F072FD002803DD6F
:10101000264803F019FDF6E7013E16F0FF067FF4BF
:1010200052AF2349084803F0A7FE2249064803F0BF
:10103000A3FE40F6B83004F0C5F802F0FDFE04B09F
:10104000BDE8704002F02CBF08180020EF890008AE
:101050001E8A00082A8A0008338A0008308A00089D
:101060003D8A0008498A0008528A00085E8A000802
:10107000728A0008678A0008A81700207F8A000883
:10108000758A0008828A00088C8A00088F8A000806
:10109000998A0008A38A0008AC8A0008AF8A000871
:1010A000B98A0008BC8A0008C68A000820180020F7
:1010B000E38A00080F8B00081520012104F056B8C0
:1010C0001520002104F052B810B500210446152067
:1010D00003F0E6FF1520012104F048F82046BDE8A2
:1010E0001040FFF74FB87FB505460E46FFF7E8FF03
:1010F0000D2433192146284613F80D2C0134FFF72F
:1011000071F8162CF5D13046092101F06BFD064629
:10111000214628463246FFF765F80D242146284629
:10112000FFF732F801AB23440134162C03F80D0C01
:10113000F4D101A8092101F055FDB04203D0FFF719
:10114000BBFF00200DE028460B21FFF71DF85528B6
:1011500004D028460B215522FFF744F8FFF7ACFFD7
:10116000012004B070BD7FB505460E46FFF7A8FF0D
:10117000172433192146284613F8172C0134FFF79A
:1011800031F8202CF5D13046092101F02BFD06461F
:10119000214628463246FFF725F8172421462846DF
:1011A000FEF7F2FF01AB23440134202C03F8170CA7
:1011B000F4D101A8092101F015FDB04203D0FFF7D9
:1011C0007BFF00200DE028460C21FEF7DDFF5528AF
:1011D00004D028460C215522FFF704F8FFF76CFFD6
:1011E000012004B070BDF0B585B001AD06460F46D4
:1011F00028460021092204F03FFF0D2421463046F5
:10120000FEF7C2FF2B190134162C03F80D0CF5D193
:1012100021463046FEF7B8FF09210446284601F072
:10122000E1FC844206D10023EA5CFA540133092B25
:10123000FAD101E0002000E0012005B0F0BDF0B5DA
:1012400085B001AD06460F4628460021092204F06C
:1012500013FF172421463046FEF796FF2B19013461
:10126000202C03F8170CF5D121463046FEF78CFFF1
:1012700009210446284601F0B5FC844206D100232A
:10128000EA5CFA540133092BFAD101E0002000E0B6
:10129000012005B0F0BD37B50C461E210546FEF70E
:1012A00073FF1F218DF804002846FEF76DFF022111
:1012B0008DF8050001A801F095FC207003B030BD49
:1012C00010B50B210446FEF75FFF88B1FFF7F8FE6B
:1012D000204600220B21FEF785FFFFF7EDFE20469A
:1012E0000B21FEF751FFD0F1010038BF002010BDE7
:1012F000012010BD10B50C210446FEF745FF88B152
:10130000FFF7DEFE204600220C21FEF76BFFFFF701
:10131000D3FE20460C21FEF737FFD0F1010038BF85
:10132000002010BD012010BD10B521210446FEF79C
:101330002BFF552811D0FFF7C3FE2046552221214F
:10134000FEF750FFFFF7B8FE20462121FEF71CFFF5
:10135000B0F155035842584110BD012010BD08B5E9
:101360002121FEF711FFB0F155035842584108BD45
:1013700070B504460D46FFF736FF20B120462946DA
:10138000FFF75DFF48BB20462946FFF72CFF48B119
:101390001549164803F0F0FC20462946BDE8704088
:1013A000FFF7E1BE20462946FFF749FF06460F48F2
:1013B00046B10F4903F0E0FC20462946BDE87040E5
:1013C000FFF791BE0B4903F0D7FC2046FFF778FFEB
:1013D0002046FFF78FFF304670BD0749034803F0F2
:1013E000CBFC012070BD00BF388B0008081800201E
:1013F0006F8B0008A68B0008BA8B0008F8B504466E
:101400000E462F2573192046294613F82F7CFEF728
:10141000BBFE874203D10135342DF3D136E0FFF70F
:101420004FFE2F2573192946204613F82F2C01351E
:10143000FEF7D8FE342DF5D10521304601F0D2FB60
:101440000746294620463A46FEF7CCFE2F25204681
:101450002946FEF799FE731913F82F3C834217D1E2
:101460000135342DF3D120462946FEF78DFEB842D2
:101470000ED120463521FEF787FE552804D02046A0
:1014800035215522FEF7AEFEFFF716FE0120F8BD0E
:10149000FFF712FE0020F8BDF7B505460E462F24D3
:1014A00021462846FEF770FE00AB23440134342C5D
:1014B00003F82F0CF4D10521684601F093FB214677
:1014C00007462846FEF760FE874207D100231DF835
:1014D0000320F2540133052BF9D101E0002000E094
:1014E000012003B0F0BD73B505462F2421462846E0
:1014F000FEF74AFE00AB23440134342C03F82F0CD2
:10150000F4D16846052101F06DFB214606462846C8
:10151000FEF73AFE331A5842584102B070BD38B552
:101520000546FFF7CDFD2F2428462146FEF72CFE69
:1015300068B1284621460022FEF754FE284621467F
:10154000FEF722FE18B1FFF7B7FD002038BD0134C9
:10155000342CE9D128463521FEF716FE20B1284665
:1015600035210022FEF73EFEFFF7A6FD012038BD23
:1015700037B50D468DF8071036210446FEF704FEF8
:1015800085422BD002ADFFF79BFD15F8012D2046BB
:101590003621FEF727FE0121284601F023FB3721E3
:1015A00002462046FEF71EFE20463621FEF7ECFDE1
:1015B0009DF8073083420DD120463821FEF7E4FD27
:1015C000552804D0204638215522FEF70BFEFFF7A0
:1015D00073FD03E0FFF770FD002000E0012003B081
:1015E00030BD3621FEF7D0BD37B536210546FEF7B2
:1015F000CBFD02AB03F8010D1846012101F0F2FA10
:10160000372104462846FEF7BFFD231A58425841A9
:1016100003B030BD10B536210446FEF7B5FD88B1E4
:10162000FFF74EFD204636210022FEF7DBFD204667
:101630003621FEF7A9FD18B1FFF73EFD002010BDD1
:10164000FFF73AFD012010BD0020704700207047D1
:10165000002070470020704710B548210446FEF76F
:1016600093FD552811D0FFF72BFD20465522482128
:10167000FEF7B8FDFFF720FD20464821FEF784FD68
:10168000B0F155035842584110BD012010BD10B5AE
:101690004D210446FEF778FD552810D0FFF710FDC8
:1016A000204655224D21FEF79DFDFFF705FD204602
:1016B0000021FEF769FD003018BF012010BD012098
:1016C00010BD000037B58DF807101031C9B20129DF
:1016D000044629D84C21FEF757FD9DF80730834278
:1016E00028D002ADFFF7ECFC15F8012D20464C2167
:1016F000FEF778FD0121284601F074FA4E210246DA
:101700002046FEF76FFD20464C21FEF73DFD9DF87B
:101710000730834205D12046FFF7B9FFFFF7CCFC25
:1017200008E0FFF7C9FC03E00448054903F024FB87
:10173000002000E0012003B030BD00BF08180020E9
:10174000EA8B000837B54C210446FEF71DFD02ABBD
:1017500003F8010D1846012101F044FA4E21054617
:101760002046FEF711FD854202D19DF8070004E0F6
:101770002046F021FFF7A6FFF02003B030BD0000A7
:10178000F7B505460E464F2421462846FEF7FCFCD9
:1017900000AB23440134572C03F84F0CF4D108213B
:1017A000684601F01FFA214607462846FEF7ECFC82
:1017B00087420CD100231DF80320F2540133082B7B
:1017C000F9D10448044903F0D7FA012000E00020D1
:1017D00003B0F0BD08180020208C000810B5582177
:1017E0000446FEF7D1FC552808D0FFF769FC2046D7
:1017F00058215522FEF7F6FCFFF75EFC10BD10B530
:1018000058210446FEF7C0FC40B1FFF759FC2046C2
:1018100058210022FEF7E6FCFFF74EFC10BD000049
:10182000F7B50F460546FFF74BFC3846082101F097
:10183000D9F94F2406463B192146284613F84F2C68
:101840000134FEF7CFFC572CF5D12146284632460D
:10185000FEF7C8FC4F2421462846FEF795FC00AB56
:1018600023440134572C03F84F0CF4D16846082167
:1018700001F0B8F9864206D02846FFF7C0FFFFF70F
:101880001BFC002007E00549054803F075FA2846CF
:10189000FFF7A4FF012003B0F0BD00BF358C0008A6
:1018A0000818002008B55821FEF76EFCB0F155036A
:1018B0005842584108BD70B504460E461546FFF71C
:1018C000FFFB204632462221FEF78CFC20462321D6
:1018D0002A46FEF787FCFFF7EFFB70BDFEF754BC0E
:1018E000FEF752BC70B504460E461546FFF7E8FBFE
:1018F000204632462421FEF775FC204625212A4643
:10190000FEF770FCFFF7D8FB70BD08B55921FEF754
:101910003BFCB0F155035842584108BD7FB53349EF
:101920000546334803F028FA02F086FA40F6B8304C
:1019300003F048FC02F080FA40F6B83003F042FCB5
:1019400002F07AFA2A4803F0D3F800280ADD284882
:1019500003F07AF8C1B2274803F022FB022003F01B
:1019600031FCEFE7234CA668002E34D0204603F06C
:1019700082FB21461E4803F0F5F91F4901A803F038
:10198000AAFA01A9204603F068FB064601A803F065
:1019900060FA1748EEB1194903F0EEF918492046EC
:1019A00003F0C4FA28462121FEF7EEFB40B1FFF711
:1019B00087FB284621210022FEF714FCFFF77CFB61
:1019C00028462121FEF7E0FBD0F1010038BF0020BE
:1019D0000AE00C4901E006480B4903F0CDF9204626
:1019E000074903F0A3FA304604B070BD4A8C0008E2
:1019F00008180020C01700209B8C00089F8C00084E
:101A0000F1980008D58C0008008D000800220260C3
:101A100042607047006820B103688B4201D0806843
:101A2000F9E7704770B504460C2016460D4604F0E1
:101A300011F800228260226880E860000AB9206004
:101A400001E062689060606070BD10B51446FFF7F9
:101A5000E1FF08B14460012010BD08B5FFF7DAFFCF
:101A600000B1406808BD01F51C414131FFF7DABF04
:101A700001F51C414131FFF7E8BF01F51C4141313F
:101A8000FFF7EBBF002A01F1010114BF4FF47F42C1
:101A90000022FFF7C7BF002A01F51C5101F1110117
:101AA00014BF4FF47F420022FFF7BCBF01F5EA41AB
:101AB0003131FFF7B7BF002A01F1010114BF4FF424
:101AC0007F420022FFF7C1BF002A01F51C5101F13E
:101AD000110114BF4FF47F420022FFF7B6BF01F59A
:101AE000EA413131FFF7B1BF08B50131FFF7B5FF6A
:101AF000B0F57F435842584108BD01F51C5108B567
:101B00001131FFF7AAFFB0F57F435842584108BD95
:101B100001F5EA413131FFF7A0BF70B50446806896
:101B20000D46164603F09EFF0220207303F092FF3D
:101B3000803D0323A06005704670637370BDF8B5E7
:101B4000531E7C2B04460F46164602D903210A4633
:101B500017E001F51C414131FFF75CFF18B9204641
:101B6000032102220DE0A06803F07CFF701C4000FE
:101B7000C0B2207303F06EFFA06030B9204603218D
:101B80000422BDE8F840FFF7C8BF03230370237B9E
:101B90000025023B4370E9192046FFF76EFFA3685A
:101BA0000135020A03F81520A368B54203EB45038B
:101BB0005870F0D103236373F8BD70B504460E4628
:101BC0001546FFF755FF18B920460621022208E006
:101BD00020463146FFF751FFA84206D02046062195
:101BE0000422BDE87040FFF798BF0223637370BD05
:101BF0002DE9F8431F4616467A1E7A2A044688467F
:101C00009DF8203008D8B3EB470F05D106F51C45E9
:101C1000413505EB070903E020461021032218E0B7
:101C20004D450AD029462046FFF7F4FE013500282D
:101C3000F6D12046102102220BE0A06803F012FF2B
:101C40000520207303F006FFA06030B92046102164
:101C50000422BDE8F843FFF760BF10230370330A86
:101C60004370002307718670C37008F1060537447E
:101C7000BE4205F102050BD015F8022C15F8013C07
:101C80003146204643EA0222FFF7F2FE0136EFE733
:101C900003236373BDE8F8832DE9F843531EB3F5BE
:101CA000FA6F04460F46154602D30121032219E0BC
:101CB0000131FFF7AFFE18B920460121022211E0E1
:101CC000A06803F0CFFEC5F3C7036A070CBF023359
:101CD00003332373207B03F0BDFEA06030B92046A0
:101CE00001210422BDE8F843FFF717BF0123037069
:101CF000237B05EB0708023B43703E460025464523
:101D00001CD031462046FFF7EFFEC7F10109B14470
:101D10004FEAD909012109F10203A268A94010B1D3
:101D2000D05C014302E0D05C20EA01010135EDB254
:101D3000082DD15408BF00250136E0E70323637363
:101D4000BDE8F8832DE9F843531EB3F5FA6F044656
:101D50000F46154602D3022103221BE001F51C5158
:101D60001131FFF757FE18B920460121022211E078
:101D7000A06803F077FEC5F3C7036A070CBF023300
:101D800003332373207B03F065FEA06030B9204647
:101D900002210422BDE8F843FFF7BFBE022303700F
:101DA000237B05EB0708023B43703E460025464572
:101DB0001CD031462046FFF7A0FEC7F10109B1440F
:101DC0004FEAD909012109F10203A268A94010B123
:101DD000D05C014302E0D05C20EA01010135EDB2A4
:101DE000082DD15408BF00250136E0E703236373B3
:101DF000BDE8F883F8B5531E7C2B04460F46164603
:101E000002D90421032217E001F5EA413131FFF73D
:101E100001FE18B92046012102220DE0A06803F05E
:101E200021FE701C4000C0B2207303F013FEA060BE
:101E300030B9042120460A46BDE8F840FFF76DBEE0
:101E400004230370237B0025023B4370E9192046DD
:101E5000FFF75EFEA3680135020A03F81520A368A8
:101E6000B54203EB45035870F0D103236373F8BD0B
:101E7000B2F57F4F70B504460E4603D012B105216E
:101E8000032215E0151C18BF0125204631462A46BD
:101E9000FFF711FE18B920460521022208E020466E
:101EA0003146FFF721FEA84206D020460521042234
:101EB000BDE87040FFF731BE0223637370BD2DE9AA
:101EC000F8431D468946DB08690705F1FF3118BF55
:101ED0000133B1F5F66F164604469DF8202005D271
:101EE0009A4203D1771C07EB050803E020460F2137
:101EF000032218E047450AD039462046FFF78AFDFD
:101F000001370028F6D120460F2102220BE0A068FD
:101F100003F0A8FD0520207303F09CFDA06030B9FC
:101F200020460F210422BDE8F843FFF7F6BD0F233A
:101F30000370330A43702B0A05718670C3703544F1
:101F4000B0460027A84514D0C6F10103434409EB6D
:101F5000D3039A7941463A410137FFB2204602F055
:101F60000102FFF7A8FD082F08BF002708F10108AC
:101F7000E8E703236373BDE8F88373B50C46A378E1
:101F80006278E578097843EA0222237943EA052357
:101F90004D1E0F2D3FD8DFE805F01C230F2A310816
:101FA0003E3E3E3E3E3E3E3E381611461A4602B08A
:101FB000BDE87040FFF701BE11461A4602B0BDE809
:101FC0007040FFF7BCBD617900912146FFF710FE1C
:101FD00027E011461A4602B0BDE87040FFF75CBE2C
:101FE00011461A4602B0BDE87040FFF7ABBE11467D
:101FF0001A4602B0BDE87040FFF7FCBE11461A4613
:1020000002B0BDE87040FFF733BF6179009121460F
:10201000FFF755FF05E0012202B0BDE87040FFF771
:102020007CBD02B070BD10B50446FFF7EFFC204642
:1020300010BD80F8281001207047000070B5049E84
:102040000161C6610446154608461146DAB202F03F
:1020500071FD4FF4FA6003F0B5F8002E08DBF6B21C
:102060003046002103F01CF83046002103F07EF8D2
:10207000B5F5964F06DD40F2EE23236240F2D663BB
:10208000636207E0044B93FBF5F32362034B93FB7E
:10209000F5F56562012070BDC0E1E400C00E1602D6
:1020A00070B50446C0690D46002806DBC0B20121A8
:1020B00003F05CF8012003F085F80023227B5E1C0E
:1020C000DBB29A42206905D90268E95C1268904740
:1020D0003346F3E703689B699847606A03F080F82A
:1020E000E069002803DBC0B2002103F03FF870BDB7
:1020F000F0B5C9430B4EC9B2705C0B4DC0436C5C6C
:10210000C0B20021AC46CFB2BB4207D0555C013112
:102110004540705D60401CF80540F4E744EA00204B
:10212000F0BD00BF238D0008238E00082DE9F0418B
:102130000D78037BFF2D01EB030204460E4612F8D7
:10214000028C12F8017C03D090F82820AA420BD10F
:10215000A268033B204612F8011BDBB2FFF7C8FF61
:1021600047EA0827874202D00020BDE8F0812046D8
:10217000711CFFF702FFFF2D4FF0010002D16073C9
:10218000BDE8F081BDE8F081F8B50446C0690E46AF
:10219000002806DBC0B2012102F0E8FF012003F0B5
:1021A00011F8206994F8281003681B6898470022EA
:1021B000237B571CD2B29A42256906D22B68B15CA8
:1021C0001B68284698473A46F2E7A26894F8281018
:1021D0002046FFF78DFF2B6806461B68C6F30721D4
:1021E000284698472069F1B203681B689847206920
:1021F00003689B699847606A02F0F2FFE069002873
:1022000003DBC0B2002102F0B1FFF8BDF8B5002336
:102210000446037320690368DB689847237B984270
:1022200008DD20690368DB6898472073206A02F0A4
:10223000D7FFEFE753B3184603F00CFC0023A06070
:10224000227BDDB2AA4203F1010707D92069A66803
:1022500003681B6998473B467055F1E72046A16823
:10226000FFF764FF68B1637B032B04D12046A168AC
:10227000FFF78AFF05E0022B03D12046A168FFF794
:102280000FFFA06803F0EEFB00232373F8BD0000EE
:102290000148112101F0E3B9AD170020064B1A687F
:1022A00001321A601A68B2F5615F04D300221A6025
:1022B000024B01221A707047B0170020CD17002082
:1022C00010B5084C0849204602F0B9FC204601210F
:1022D000064A02F0D3FC20460021BDE8104002F07F
:1022E000A5BC00BF0419002040420F009D22000839
:1022F00010B5054C204602F08BFC20460021BDE8BD
:10230000104002F093BC00BF04190020014802F005
:1023100077BC00BF0419002008B501F08DFD03480B
:1023200000F0F6FABDE8084000F02ABACE17002007
:1023300013B52448FFF713F8234C002834D120703C
:1023400022492048FEF7CFFE20B11E481F49FEF764
:102350000AFF68BB1B48FFF75DF918B11948FFF782
:10236000DEF850BB01238DF8003016480023694683
:102370008DF801308DF802308DF803308DF804307F
:10238000FFF73CF818B11248124902F0F5FC0D486D
:102390000121FFF7EDF818B10D480F4902F0ECFCF0
:1023A0000B480E4902F0E8FC0123237002B010BD77
:1023B0000B49074802F0E0FCCCE70A49044802F068
:1023C000DBFCCFE7AA1700200D000020B417002087
:1023D00008180020238F0008608F00089C8F0008D9
:1023E000DF8F00081390000830B586488DB000F0EC
:1023F000E3F9854B06201A684FF47A7122F0E06207
:1024000042F080621A6001F007FD80484FF41651D7
:1024100002F0CCFB7E484FF41651FEF7D1F901F0E3
:1024200086FC7C49794802F0A7FC7B48FEF74CFE0D
:102430007A4800F0EFFB01F0FFFC7548FEF79CF9CD
:1024400001217348FEF766FA754D4FF4FA6002F009
:10245000B9FE002473482C70FEF7EAF801232B70B4
:1024600001F0EAFC21466A48FEF720FD6E48FFF7BE
:10247000F3F86E49654802F07FFC6D482221FFF7B2
:102480002FFA0128044605D169482321FFF728FACD
:102490000546E0B1002266480121FFF70CFA6549C4
:1024A000684602F018FD694606A802F035FD1022C4
:1024B000012103A802F04BFD03A906A802F08EFD3E
:1024C0005D4902F098FD0021044609A816E05B4929
:1024D000684602F000FD694606A802F01DFD21468F
:1024E000102203A802F033FD03A906A802F076FD2E
:1024F000514902F080FD2946044609A8102202F045
:1025000026FD204609A902F069FD01463F4802F078
:1025100029FC09A802F09DFC03A802F09AFC06A879
:1025200002F097FC684602F094FC41482421FFF732
:10253000D5F90128044616D13D482521FFF7CEF9EB
:10254000054680B93E4906A802F0C5FC06A909A8BF
:1025500002F0E2FC214609A802F05FFD364902F0D4
:102560004AFD294614E0002231480121FFF7BAF95B
:10257000344906A802F0AFFC06A909A802F0CCFC79
:10258000012109A802F049FD2B4902F034FD002188
:1025900002F043FD01461D4802F0E4FB09A802F0E9
:1025A00058FC06A802F055FC2748FFF7B7F9FFF7DB
:1025B000BFFE25482549FEF7DBFEA0B92449134894
:1025C00002F0DAFB2349114802F0D6FB224800F062
:1025D00047FE1448FEF72CF840F6B83000F0DAFC5D
:1025E00001F02AFCE5E71D49084802F0C5FB01F0AF
:1025F00023FCFFF765FE1A49044802F0BDFB0DB04D
:1026000030BD00BFCE170020040001400818002094
:10261000A71700205A900008AB170020FC170020D5
:102620000C000020A5170020A8170020F198000832
:10263000A91700200F910008338C00085A91000858
:102640007091000886910008AA170020B417002096
:10265000639000089790000800180020C6900008BA
:10266000ED90000810B5064C0649204602F033FCF8
:1026700020460549054ABDE8104002F0BDBE00BF36
:10268000C0170020F1980008534E000808000020F1
:1026900001480021FEF70ABCA71700201FB53048EB
:1026A00001A9FEF765FE2F4CC0B92F492F4802F053
:1026B00063FB2F4800F0D4FD2E48FDF7B9FF40F62C
:1026C000B83002F07FFD01F0B7FB23780133DBB2B5
:1026D000322B2370E3D901F0E3FBE0E70023237002
:1026E0001F48FEF700FFC0B92349204802F044FB11
:1026F0001F4800F047FD1F48FDF79AFF40F6B8302D
:1027000002F060FD01F098FB23780133DBB2322B3D
:102710002370E5D901F0C4FBE2E7002323701048E1
:10272000FEF762FFC0B91549104802F025FB1048BA
:1027300000F096FD0F48FDF77BFF40F6B83002F041
:1027400041FD01F079FB23780133DBB2322B23709A
:10275000E5D901F0A5FBE2E70023237004B010BD2A
:10276000AA170020CC170020D191000808180020DB
:1027700000180020A51700201F920008779200087B
:1027800008B50A4B1A787AB100221A70FFF7BEFD1D
:10279000FFF77EFFFFF782FFFFF7AAFDBDE80840C5
:1027A0000348044902F0E8BA08BD00BFCD17002075
:1027B00008180020CD92000813B5524C4FF0FF339B
:1027C00000934FF41652002320464F49FFF736FC82
:1027D00020460121FFF72DFC002120460A46FFF785
:1027E00051F9204601210022FFF74CF92046022131
:1027F0000022FFF747F9204603210022FFF742F9A4
:10280000204604210022FFF73DF920460521002241
:10281000FFF738F9204606210022FFF733F920465A
:1028200007210022FFF72EF9204608210022FFF79A
:1028300029F9204609210022FFF724F920460A2120
:102840000022FFF71FF920460B210022FFF71AF99B
:10285000204664210022FFF71EF920466521002250
:10286000FFF719F9204666210022FFF714F92046E8
:1028700067210022FFF70FF9204668210022FFF7A9
:102880000AF9204669210022FFF705F920466A214E
:102890000022FFF700F920466B210022FFF7FBF82A
:1028A0002046C8210022FFF701F92046C921002255
:1028B000FFF7FCF82046CA210022FFF7F7F8204670
:1028C000CB210022FFF7F2F82046CC210022FFF7AF
:1028D000EDF82046CD210022FFF7E8F82046CE2172
:1028E0000022FFF7E3F82046CF210022FFF7DEF8B1
:1028F00020464FF496717F2202B0BDE81040FFF7EA
:10290000B2B800BFD0170020201800207047000088
:1029100010B57B4C2046FFF779FC20460021FFF7DD
:10292000E3F801461E2002F021FC20460121FFF7BA
:10293000DBF801461F2002F019FC20460221FFF7B8
:10294000D3F80146262002F011FC20460321FFF7B0
:10295000CBF80146272002F009FC20460421FFF7AE
:10296000C3F80146282002F001FC20460521FFF7AC
:10297000BBF80146292002F0F9FB20460621FFF7AB
:10298000B3F80146082002F0F1FB20460721FFF7CB
:10299000ABF801460B2002F0E9FB20460821FFF7C7
:1029A000A3F801460C2002F0E1FB20460921FFF7C5
:1029B0009BF801460D2002F0D9FB20460A21FFF7C3
:1029C00093F801460F2002F0D1FB20460B21FFF7C0
:1029D0008BF801462A2002F0C9FB202002F0B0FB50
:1029E000021C18BF012264212046FFF76DF8212048
:1029F00002F0A6FB021C18BF012265212046FFF74A
:102A000063F8222002F09CFB021C18BF0122662101
:102A10002046FFF759F8232002F092FB021C18BF52
:102A2000012267212046FFF74FF82C2002F088FB97
:102A3000021C18BF012268212046FFF745F82B2011
:102A400002F07EFB021C18BF012269212046FFF71D
:102A50003BF8322002F074FB021C18BF01226A21ED
:102A60002046FFF731F8132002F06AFB021C18BF62
:102A700001226B212046FFF727F8002002F052FBCD
:102A8000C82102462046FFF72AF8012002F04AFB3F
:102A9000C92102462046FFF722F8042002F042FB3B
:102AA000CA2102462046FFF71AF8052002F03AFB39
:102AB000CB2102462046FFF712F8062002F032FB37
:102AC000CC2102462046FFF70AF8072002F02AFB35
:102AD000CD2102462046FFF702F8242002F022FB17
:102AE000CE2102462046FEF7FAFF252002F01AFB0F
:102AF000CF2102462046BDE81040FEF7F0BF00BFE0
:102B0000D017002010B5002101223148FEF7D3FF75
:102B1000012104460A462E48FEF7CDFF08B10134D4
:102B2000E4B22B4802210122FEF7C5FF08B10134AF
:102B3000E4B2274803210122FEF7BDFF08B10134AA
:102B4000E4B2234804210122FEF7B5FF08B10134A5
:102B5000E4B21F4805210122FEF7ADFF08B10134A0
:102B6000E4B21B4806210122FEF7A5FF08B101349B
:102B7000E4B2174807210122FEF79DFF08B1013496
:102B8000E4B2134808210122FEF795FF08B1013491
:102B9000E4B20F4809210122FEF78DFF08B101348C
:102BA000E4B20B480A210122FEF785FF08B1013487
:102BB000E4B207480B210122FEF77DFF38B10B2C50
:102BC00004D10448FFF7A4FE012010BD002010BD71
:102BD000D0170020CE1700200148FFF724BA00BF0D
:102BE000D0170020002330B5054618468B420FDA77
:102BF000EA5C5040082210F0010F4FEA60041ABF4F
:102C000084F0E000C0B2E0B2013AF4D10133EDE764
:102C100030BD000008B51E20002102F041FA1F203F
:102C2000002102F03DFA2620002102F039FA272087
:102C3000002102F035FA2820002102F031FA292083
:102C4000002102F02DFA0820002102F029FA0B20C1
:102C5000002102F025FA0C20002102F021FA0D20BB
:102C6000002102F01DFA0F20002102F019FA2A209B
:102C7000002102F015FA2020022102F011FA212091
:102C8000022102F00DFA2120022102F009FA22208D
:102C9000022102F005FA2320022102F001FA2C2081
:102CA000022102F0FDF92C20022102F0F9F92B207B
:102CB000022102F0F5F90020022102F0F1F90120D1
:102CC000022102F0EDF90420022102F0E9F90520C9
:102CD000022102F0E5F90620022102F0E1F90720C5
:102CE000022102F0DDF92420022102F0D9F9252089
:102CF000022102F0D5F91548FEF707FE98B91449EC
:102D0000144802F039F801F097F81348FFF7FAFE7B
:102D100040B912490F4802F02FF84FF47A7002F0D0
:102D200051FAF2E708BD0B480D4902F025F80A48B0
:102D3000FFF7ECFD40B90949064802F01DF84FF4D1
:102D40007A7002F03FFAF2E708BD00BFAC1700202E
:102D50000593000808180020CE17002044930008AF
:102D60006E930008014801F04BBF00BF0819002016
:102D7000014801F04DBF00BF0819002008B516201A
:102D8000002102F08DF91720002102F089F91620A8
:102D9000012102F0EBF9BDE808401720012102F003
:102DA000E5B91720002102F07BB91720042102F0B9
:102DB00077B908B5FFF7F5FF1720012102F0D6F922
:102DC0000121162002F0D2F9052002F009FA0021B3
:102DD000172002F0CBF9062002F002FABDE8084005
:102DE0001620002102F0C2B908B5FFF7DAFF16205D
:102DF000002102F0BBF91720002102F0B7F90121F0
:102E0000162002F0B3F9062002F0EAF9172001219A
:102E100002F0ACF9BDE80840062002F0E1B910B5B7
:102E200000210446162002F0A1F92046FFF7B9FF61
:102E30000021172002F09AF9022002F0D1F90121B5
:102E4000162002F093F9052002F0CAF9BDE81040FF
:102E50001620002102F08AB910B500210446162080
:102E600002F084F92046FFF79CFF0121172002F0B1
:102E70007DF9022002F0B4F90121162002F076F962
:102E8000052002F0ADF9BDE810401620002102F047
:102E90006DB970B50646FFF788FF0121172002F0D3
:102EA00065F9012002F09CF91620012102F05EF97B
:102EB000012002F095F9FB25172002F041F90446A4
:102EC00040B1013D15F0FF05F6D13046FFF78CFF0C
:102ED000012070BD1620214602F048F9204670BD41
:102EE00038B50C46FFF75DFF1620002102F03EF9D1
:102EF000082524F07F0303F0FF01172003B101210F
:102F000002F034F90121162002F030F9022002F01B
:102F100067F91620002102F029F9013D0220640022
:102F200002F05EF915F0FF05E4B2E2D138BDF8B564
:102F300005460F46FFF739FF08260024002116201A
:102F400002F014F9022002F04BF91620012102F0E0
:102F50000DF964001720E4B202F0F2F808B1013470
:102F6000E4B20120013E02F03BF916F0FF06E5D184
:102F7000284617B9FFF770FF01E0FFF750FF204622
:102F8000F8BD01F00F03090901EB810103EB4100DA
:102F9000C0B27047074A30B5136815462C68191837
:102FA0008C42044A04D81168994238BF1368F5E787
:102FB00030BD00BF5819002037B50C460C480DF144
:102FC0000701FEF768F99DF807304FF47A7058430F
:102FD000084902F0ECF89DF8073005466420584394
:102FE000054902F0E4F82844206003B030BD00BF7A
:102FF000AA17002060E31600400D030070B50E46CE
:1030000015460024E3B2AB42074809D2315D1022D5
:1030100001F00CFF0448054901F093FE0134F1E78B
:10302000BDE8704001F092BE08180020CB9800085F
:1030300030B595B040220546002104A803F01CF8E5
:10304000002314A941F8503D28466946FFF7B4FF14
:10305000009802F0C5F800F0EFFEFE238DF8103066
:10306000E0238DF8113011238DF8123024238DF8D0
:103070001330C0238DF8143004238DF815303B4BEA
:103080001B7803B155233A488DF81630FEF7A9FA9C
:1030900001AC8DF8170021463548FEF7FDF90023F5
:1030A00004AA1A44E15C0133052B1172F8D13048AF
:1030B0002146FEF798F8002304AA1A44E15C013384
:1030C000092B5173F8D10024012305A824218DF880
:1030D00026308DF827408DF828408DF829408DF84E
:1030E0002A408DF82B408DF82C408DF82D408DF81E
:1030F0002E408DF82F408DF830408DF831408DF8FE
:1031000032408DF833408DF834408DF835408DF8DD
:1031100036408DF83740FFF765FD8DF83800E3073E
:1031200004AB234404F1010454BF0D220A22062CEF
:1031300083F82920F3D10F490F4801F01DFE04A99F
:1031400028462F22FFF75AFF0C48FFF70BFE0C48CA
:1031500004A903682F229B689847C82002F032F820
:103160000648FFF705FE15B030BD00BFA4170020CC
:10317000AA170020B093000808180020FC170020B0
:103180002018002010B586B014220446002101A8A2
:1031900002F072FF002306A941F8183D2046694657
:1031A000FFF70AFF009802F01BF800F045FEFE232F
:1031B0008DF80430E0238DF8053012238DF80630A9
:1031C00005238DF80730C0238DF8083004238DF8CF
:1031D00009301D4B1B7803B155231C488DF80A306C
:1031E000FEF7FFF901238DF80B00052102A88DF8E9
:1031F0000C30FFF7F7FC00238DF80D00DA0701AA69
:103200001A4403F1010354BF0D210A21062B9172C8
:10321000F4D10F490F4801F0AFFD01A9204610225B
:10322000FFF7ECFE0C48FFF79DFD0C4801A9036871
:1032300010229B689847C82001F0C4FF0648FFF79A
:1032400097FD06B010BD00BFA4170020AA170020EC
:10325000CC93000808180020FC170020201800203C
:1032600010B586B014220446002101A802F004FF24
:10327000002306A941F8183D20466946FFF79CFE49
:10328000009801F0ADFF00F0D7FDFE238DF804306B
:10329000E0238DF8053013238DF8063005238DF8D3
:1032A0000730C0238DF8083004238DF809301D4BFA
:1032B0001B7803B155231C488DF80A30FEF791F9AD
:1032C00001238DF80B00052102A88DF80C30FFF7C3
:1032D00089FC00238DF80D00DA0701AA1A4403F1D6
:1032E000010354BF0D210A21062B9172F4D10F491D
:1032F0000F4801F041FD01A920461022FFF77EFE94
:103300000C48FFF72FFD0C4801A9036810229B68A9
:103310009847C82001F056FF0648FFF729FD06B080
:1033200010BD00BFA4170020AA170020CC930008EE
:1033300008180020FC17002020180020F0B593B0DA
:103340000C460546174602A80021402202F094FED2
:103350000023019300F070FD34B1284601A9FFF766
:103360002BFE019801F03CFF00F066FDFE238DF876
:103370000830E0238DF8093014238DF80A301A2321
:103380008DF80B30C0238DF80C3004238DF80D30F0
:10339000444B1B7803B1552343488DF80E30FEF79C
:1033A00020F9424E002401238DF80F003178404867
:1033B0008DF810308DF811408DF812408DF81340C3
:1033C000FFF7DFFD71788DF814003948FFF7D9FD5C
:1033D0008DF815003448FEF737F98DF8160032489D
:1033E000FEF736F98DF818002F488DF81740FEF7D4
:1033F0002DF98DF81A002C488DF819408DF81B40D6
:103400008DF81C40FEF726F901462948FFF7B9FD63
:103410008DF81D002748FEF795F914238DF81E003E
:103420008DF81F3003A853231A218DF820308DF812
:1034300021408DF822408DF823408DF824408DF8EE
:103440002540FFF7CFFB8DF82600E30702AB2344AE
:1034500004F1010454BF0D220A22062CDA77F4D1BC
:103460001549164801F088FC284602A92522FFF7D5
:10347000C5FD0024E3B2BB4212D200F0DDFC1048CF
:10348000FFF770FC0F4802A9036825229B68984744
:103490000D4801F0A5FE0A48FFF76AFC0134E9E790
:1034A00013B0F0BDA4170020AA170020FE170020BB
:1034B000FD170020A8170020F2930008081800202C
:1034C000FC17002020180020400D03002DE9F041DA
:1034D0008AB00546884617460021192203A802F043
:1034E000CBFD00260AA941F8206D2846404CFFF785
:1034F00063FD029801F074FE00F09EFC23780BB18E
:10350000637833B900963B48394901223A4BFDF7BD
:103510004BFBFE238DF80C30E0238DF80D30152386
:103520008DF80E300E238DF80F30C0238DF810303B
:1035300004238DF81130314B1B7803B155233048EB
:103540008DF81230FEF74DF8012321788DF8130025
:103550002C488DF814308DF81580FFF712FD617836
:103560008DF816002748FFF70CFD00248DF8170092
:103570000E2104A88DF818408DF819408DF81A40D6
:103580008DF81B408DF81C408DF81D40FFF72AFB7D
:103590008DF81E00E30703AB234404F1010454BF7C
:1035A0000D220A22062CDA74F4D11749174801F0CB
:1035B000E3FB284603A91922FFF720FD1448FFF773
:1035C000D1FB0024E3B2BB420CD200F035FC114821
:1035D00003A9036819229B689847C82001F0F2FDEF
:1035E0000134EFE70A48FFF7C3FB0AB0BDE8F081FA
:1035F000FE170020A71700200C940008A417002035
:10360000AA170020FD1700201694000808180020B3
:10361000FC17002020180020122938B50546144652
:1036200008460BD0132910D0112916D100F06CF8E0
:103630000CB120460FE047F6FF700CE000F064F894
:10364000002CF6D149F63F4005E000F05DF8002C73
:10365000EFD14FF2234000F0DFF8284638BD13B514
:103660000022044601A8FFF7D7FF204602B010BD94
:10367000054B1B681B685B0103F1844394331A6894
:10368000002AFCD0704700BF10000020054B1B68CB
:103690001B685B0103F184438C331A68002AFCD059
:1036A000704700BF1000002008B5FFF7E1FF054B91
:1036B00000221B681B685B0103F18443C3F88C2064
:1036C00008BD00BF1000002008B5FFF7D1FF054B73
:1036D00001221B681B685B0103F18443C3F890203F
:1036E00008BD00BF1000002008B5FFF7C1FF054B63
:1036F00000221B681B685B0103F18443C3F8902020
:1037000008BD00BF1000002010B5044600F00FFBFC
:1037100000F01AFB204A112C136A23F44073136241
:1037200013460BD005D8C4B1102C2AD10023136244
:1037300027E0122C11D0132C1AD022E0174A0021B6
:103740001160012142F8081C154A126812F0FF0F9F
:10375000FAD01A6A42F4807212E0124A0121116012
:10376000114A1268002AFBD01A6A42F4007207E07C
:103770000E4A126812F0FF0FFAD01A6A42F4407231
:103780001A620B4B01221A60FFF78EFFFFF77EFFD4
:10379000BDE81040FFF76CBF001002400804424231
:1037A00004044242800442428404424244004242B1
:1037B0003C044242F8B5104B1E6835682B686F68B0
:1037C0001F4017F0010403D074680CB1A047012416
:1037D000BA0704D5B36813B1984744F002047B07D5
:1037E00004D5F36813B1984744F004046B6823EAE6
:1037F00004046C60F8BD00BF1000002008B5044B45
:103800001B681B691BB19847024B01221A6008BD57
:1038100010000020C482204210B50446FFF744FF88
:10382000FFF734FFFFF724FFFFF74EFF064B220C94
:103830001B68A4B21B689A60DC60FFF755FFBDE807
:103840001040FFF715BF00BF1000002001498D4652
:103850000149084700C000205D38000808B5124B38
:10386000124A1968914201D0002301E0104B07E091
:103870001048D4188442F9D2C858D0500433F7E71E
:103880000D4A934203D2002243F8042BF8E702F0DA
:10389000B9F800200146024601F0FBFB074B0BB1D3
:1038A00002F0A0F8FEE700BF2C9A000800000020FC
:1038B000081700200817002060190020E5590008AB
:1038C00008B50D4B1A680AB90C4A1A601B680C4AF5
:1038D000D21A824204DB09494242591A914206DA5D
:1038E00002F07AF80C2303604FF0FF3008BD024A63
:1038F00018441060184608BD041800206019002004
:1039000020440128FEE70000124B10B51968092277
:103910000A23114801F000F9104B022219681048DF
:10392000032301F0F9F80F4B1A2219680E481B23E4
:1039300001F0F2F80D4B2A2219680D482B2301F0F3
:10394000EBF8BDE810400B4B0B4819682C223223D2
:1039500001F0E2B8CC01002008180020D0010020BE
:1039600020180020D401002038180020BC0E0020B0
:1039700050180020C00E00206818002010B5044622
:1039800000F0BAF9034B20461978BDE8104000F06A
:1039900013B900BF2C000020F8B50446056800F0FC
:1039A000A7FB22680023510101F184410B608021B3
:1039B00029600121A9622B61EB606379696113B110
:1039C0008B4203D02BE04FF400436B644FF6FF7340
:1039D000D36200256E1CF7B22046394600F092FBF8
:1039E000D0B1236848F6FF7103F1340242F8251084
:1039F00018336D1017F0010F53F8252014BF6FF026
:103A0000FF016FF47F4101EA020214BF68214FF405
:103A1000D0410A4343F82520042E3546DAD12168E7
:103A200001224B01490103F1844301F18441C3F8B0
:103A300080220A60F8BD704738B5274B274C1A68BA
:103A4000022042F010021A6000F084F900250020E4
:103A500000F04AFA65602368182023F400232360ED
:103A600000F04FFA102000F04CFA00F043F8A56087
:103A7000102000F039FA102000F060FA0028FAD087
:103A800000F039F8164800F065FA182000F02CFA1A
:103A9000182000F053FA0028FAD0022000F014FA9F
:103AA00000214FF0006000F0E3F90E4800F0C8FA82
:103AB00000F038F80C4B188800F008F90B4800F0BB
:103AC00009F90B4800F0F0FA00F02EF800F02DF89C
:103AD000FFF7B1FF38BD00BF0020024000100240D8
:103AE000300000203F1901002E0000207D39000821
:103AF00099390008704708B50020014600F078FAAF
:103B000001204FF4806100F073FA0021022000F0E0
:103B10006FFA2D2000F07CFABDE808400320002158
:103B200000F066BA00F020B9704700F06BB90000F1
:103B3000012007E0022005E0032003E0042001E06B
:103B40000520FFE70D4A0121116072B60C4A0021E1
:103B50001160074902B4084902B486B005498E468F
:103B6000704700BFAFF30080AFF30080AFF3008079
:103B700000000061F9FFFFFFD149000814ED00E0EB
:103B800010E000E0AFF30080AFF30080AFF30080FF
:103B9000FEE710B50446007900F0F8F92079BDE899
:103BA000104000F00BBA03689A6822F4602242F4D5
:103BB0008012114399607047002370B51A461C4665
:103BC000072B4FEA430503DCEE1801FA06F63443EF
:103BD0001D4401FA05F501330A2B42EA0502EFD133
:103BE0000368DC601A6170BD0368DA6A22F0F8725B
:103BF000DA6259639A6842F480029A601A689207FE
:103C0000FCD5D86C80B2704738B5124D2A6813685D
:103C10001C68A10706D5196821F002011960936894
:103C200003B19847620708D52B681A681B691168A9
:103C300021F00401116003B19847E30708D52B6810
:103C40001A68DB68116821F00101116003B198471F
:103C500038BD00BF7400002038B5124D2A681368C3
:103C60001C68A10706D5196821F002011960936844
:103C700003B19847620708D52B681A681B69116859
:103C800021F00401116003B19847E30708D52B68C0
:103C90001A68DB68116821F00101116003B19847CF
:103CA00038BD00BF78000020036801225B0103F1EA
:103CB000844303F58673191F1A6018680028FCD125
:103CC00043F8042C0B68002BFCD1704701460420FC
:103CD00000F08EB9054B10B504461868A047044B98
:103CE0001868A047034B1868A04710BD7400002057
:103CF000700000207800002010B50446FFF749FF4F
:103D000020464FF46021FFF74EFF2368012103F1A5
:103D1000404308335A015B0102F1844203F18443BA
:103D2000116520461960BDE81040FFF7BDBF08B51A
:103D3000142000F02BF9042000F028F9BDE8084019
:103D4000042000F03BB90000014B01221A607047CB
:103D500020000E42034B1A6822F00702104318603D
:103D6000704700BF0020024008B50B4801F079FA07
:103D70000A4801F076FA0A4801F073FA094801F09E
:103D800070FA094801F06DFA084801F06AFABDE8D6
:103D90000840074801F065BA7C000020840000203C
:103DA0008C000020940000209C000020A400002033
:103DB000AC00002070B501F00704A4000F25A54059
:103DC0000368C80853F82060092A26EA050514BFCD
:103DD0001646082606FA04F4082A44EA050443F8BD
:103DE000204006D1012000FA01F1DA6822EA01013F
:103DF00006E0092A05D1012000FA01F1DA68114331
:103E0000D96070BD08B5032000F0C0F8BDE80840D7
:103E1000032000F0D3B80000064B45F255521A605B
:103E20004CF6CC42586099601A604AF6AA221A6091
:103E3000704700BF00300040024B4AF6AA221A60C9
:103E4000704700BF0030004000284FEA011105DA3A
:103E5000064B00F00F00C9B21954704700F16040E2
:103E6000C9B200F5614080F80013704714ED00E01E
:103E700021F0604138B521F07F01084B084398607C
:103E800000241D4660B20F210134FFF7DDFF3C2CFA
:103E9000F8D1F02385F8233038BD00BF00ED00E0F5
:103EA000044A054BD16801F440710B43D360BFF362
:103EB0004F8FFEE700ED00E00400FA05014B13F818
:103EC00010007047D4970008064B5A6822F003028E
:103ED00002435A6080005A6802F00C028242FAD112
:103EE000704700BF00100240030A0121C0B201FA6E
:103EF00000F003F1804303F504331A68104318609F
:103F00007047030A0121C0B201FA00F003F18043B7
:103F100003F504331A6822EA000018607047030AA8
:103F20000122C0B202FA00F003F1804303F504332A
:103F30001B6818420CBF002001207047030A0222B0
:103F4000C0B202FA00F003F1804303F504331B68AA
:103F50001840704738B54368044618201D68FFF7BD
:103F6000DEFF20B106488121064A00F03BFD064BEA
:103F700021685A680D4322F4741215435D6038BD00
:103F800064970008B89700080010024010B5044676
:103F9000FFF794FF074B53F82020074B03EB440433
:103FA000637803EBC2039B0003F1844301221A6090
:103FB00010BD00BFB4000020D497000810B504461F
:103FC000FFF77CFF084B53F82020084B03EB440419
:103FD000637803EBC2039B0003F1844301221A6060
:103FE00000221A6010BD00BFC0000020D497000856
:103FF00010B5054B054C5A6854F8200022EA00021F
:104000001143596010BD00BF0010024030980008F5
:1040100010B50446FFF752FF074B53F82020074B1B
:1040200003EB4404637803EBC2039B0003F1844376
:1040300000221A6010BD00BFC8000020D4970008FD
:10404000024B072258601A60704700BF10E000E082
:1040500008B5044B1A6801321A60034B1B6803B1A0
:10406000984708BD581900208018002011F0010F52
:1040700070B542EA03030CBF0825002503FA05F5D5
:10408000006801F1FF3400F11800C4F3400450F857
:10409000241014BF6FF0FF066FF47F4631402943B0
:1040A00040F8241070BD000010B504460848A04731
:1040B0000848A0470848A0470848A0470848A04724
:1040C0000848A0470848A0470848A04710BD00BFBF
:1040D00080010020A8010020D4000020F80000206A
:1040E0001C010020400100204C010020580100204C
:1040F00010B504460079FFF749FF2079BDE810406C
:10410000FFF75CBF03791E2B10D9212B0ED0202B7B
:104110000ED9222B01D0252B04D102298CBF0020DF
:10412000012070474B1E584258417047012070478C
:10413000002070478B1C40F823200368012203F104
:1041400040430C3301EBC3039B0003F184431A602B
:1041500042790379FAB9B3F11A025342534107295C
:104160004BD8DFE801F004090909090E0E13002BF2
:104170000CBF2C23192337E0002B0CBF2E231B234D
:1041800032E0002B0CBF2D231A232DE0002B0CBF97
:104190002B23182328E01B3B0C2B1CD8DFE803F053
:1041A000212307090B0D1B0F1113151719001E23CF
:1041B0001AE0322318E0362316E0372314E01823E0
:1041C00012E0192310E01A230EE02B230CE02C231D
:1041D0000AE02D2308E0094840F2BF11084A00F028
:1041E00001BC1C2300E01D235909012203F01F0319
:1041F00002FA03F3034A42F821307047449800085A
:10420000318A000800E100E00368002203F1404326
:104210000C3301EBC3039B0003F1844302311A60AA
:1042200040F8212070470000F8B54E1EF3B2032B72
:1042300004460D46174604D92648DA21264A00F0DE
:10424000D1FB6379022B43D0032F41D8DFE807F07D
:104250000212223520462946FFF7D6FF236803F1D4
:1042600040432033DB0003EB8606B60006F18446AC
:10427000002320E02368002203F140430C3305EBC8
:10428000C3039B0003F184431A6020462946602241
:10429000082303E02046294610220023FFF7E6FE0C
:1042A000236803F140432033DB0003EB8606B600AE
:1042B00006F1844601233360F8BD23684FF2F122F2
:1042C0009A6103229A605B0103F1844301221A6020
:1042D000F8BD00BF449800089798000810B5074B38
:1042E0001C68E16822690A40120606D55B6A23B1A0
:1042F0009847236923F08003236110BD80010020CB
:1043000010B5074B1C68E16822690A40D20706D540
:104310009B6823B19847236923F00103236110BDF3
:1043200080010020F8B50C4F3D68EB682E691E40F7
:1043300016F0400403D03C6A0CB1A0474024B306F9
:1043400004D5FB6913B1984744F020042B6923EA94
:1043500004042C61F8BD00BF80010020F8B5134FA4
:104360003E68F36835691D4015F0100403D0BC6940
:104370000CB1A0471024290704D57B6913B19847D5
:1043800044F008046A0704D53B6913B1984744F028
:104390000404AB0704D5FB6813B1984744F002044A
:1043A000336923EA04043461F8BD00BF80010020B2
:1043B000F8B51A4E3768FB683D691D4015F040049A
:1043C00003D0346A0CB1A0474024EB0604D5B3698E
:1043D00013B1984744F01004280704D5736913B14A
:1043E000984744F00804690704D5336913B1984726
:1043F00044F00404AA0704D5F36813B1984744F0C5
:104400000204EB0704D5B36813B1984744F00104E4
:104410003B6923EA04043C61F8BD00BFA801002009
:10442000F8B51A4E3768FB683D691D4015F0400429
:1044300003D0346A0CB1A0474024EB0604D5B3691D
:1044400013B1984744F01004280704D5736913B1D9
:10445000984744F00804690704D5336913B19847B5
:1044600044F00404AA0704D5F36813B1984744F054
:104470000204EB0704D5B36813B1984744F0010474
:104480003B6923EA04043C61F8BD00BFD40000206E
:10449000F8B51A4E3768FB683D691D4015F04004B9
:1044A00003D0346A0CB1A0474024EB0604D5B369AD
:1044B00013B1984744F01004280704D5736913B169
:1044C000984744F00804690704D5336913B1984745
:1044D00044F00404AA0704D5F36813B1984744F0E4
:1044E0000204EB0704D5B36813B1984744F0010404
:1044F0003B6923EA04043C61F8BD00BFF8000020DA
:10450000F8B51A4E3768FB683D691D4015F0400448
:1045100003D0346A0CB1A0474024EB0604D5B3693C
:1045200013B1984744F01004280704D5736913B1F8
:10453000984744F00804690704D5336913B19847D4
:1045400044F00404AA0704D5F36813B1984744F073
:104550000204EB0704D5B36813B1984744F0010493
:104560003B6923EA04043C61F8BD00BF1C01002044
:1045700010B5074B1C68E16822690A40D20706D5CE
:104580009B6823B19847236923F00103236110BD81
:104590004001002010B5074B1C68E16822690A4001
:1045A000D20706D59B6823B19847236923F00103FE
:1045B000236110BD4C01002010B5074B1C68E16859
:1045C00022690A40120606D55B6A23B1984723691F
:1045D00023F08003236110BD5801002010B5074B64
:1045E0001C68E16822690A40D20706D59B6823B19E
:1045F0009847236923F00103236110BD580100206F
:10460000F8B50C4F3D68EB682E691E4016F040046B
:1046100003D03C6A0CB1A0474024B30604D5FB6923
:1046200013B1984744F020042B6923EA04042C6159
:10463000F8BD00BF58010020F8B5134F3E68F3687D
:1046400035691D4015F0100403D0BC690CB1A047BA
:104650001024290704D57B6913B1984744F0080456
:104660006A0704D53B6913B1984744F00404AB07CB
:1046700004D5FB6813B1984744F00204336923EA78
:1046800004043461F8BD00BF58010020818802682D
:10469000034689B2505C99881A8989B292B29142D4
:1046A00017BF9A880022013292B2C0B29A80704736
:1046B000C28838B5838892B29BB201329A420446CE
:1046C0000D461AD0C288038992B29BB29A4202D197
:1046D00083889BB28BB14FF0FF30E288236892B29F
:1046E0009D54E288238992B29BB29A4217BFE38815
:1046F000002301339BB2E38038BD2046FFF7C6FF9D
:10470000EBE770B51E460546084611460422059C97
:10471000FFF750FB9DF810100B223046FFF74AFBC5
:104720002B6804F00F01DA6804F0300422F4F05230
:104730001204120C42EA4122DA601A6922F4405251
:104740001204120C42EA04241C6170BD38B5044600
:10475000154611B900F0EAF8014619235943AD0096
:104760006423B1FBF5F1B1FBF3F21201100903FB75
:10477000101109013231B1FBF3F303F00F0321688B
:104780001A4392B28A6038BD38B5114DEB6898066D
:1047900007D52B68990604D569680E48C9B2FFF79A
:1047A00087FFEB680A4C1A0611D523681B060ED545
:1047B00009488288C38892B29BB29A4203D0FFF71D
:1047C00065FF606038BDE36823F08003E36038BDB7
:1047D00000380140901800208418002038B5114D91
:1047E000EB68980607D52B68990604D569680E48CA
:1047F000C9B2FFF75DFFEB680A4C1A0611D52368B2
:104800001B060ED509488288C38892B29BB29A4291
:1048100003D0FFF73BFF606038BDE36823F08003FF
:10482000E36038BD004400409C180020CC180020F4
:1048300038B5114DEB68980607D52B68990604D555
:1048400069680E48C9B2FFF733FFEB680A4C1A06D5
:1048500011D523681B060ED509488288C38892B2F9
:104860009BB29A4203D0FFF711FF606038BDE36846
:1048700023F08003E36038BD00480040A818002002
:10488000E418002038B5114DEB68980607D52B6861
:10489000990604D569680E48C9B2FFF709FFEB68AD
:1048A0000A4C1A0611D523681B060ED509488288C2
:1048B000C38892B29BB29A4203D0FFF7E7FE6060D2
:1048C00038BDE36823F08003E36038BD004C00404E
:1048D000B4180020D818002038B5114DEB689806A0
:1048E00007D52B68990604D569680E48C9B2FFF749
:1048F000DFFEEB680A4C1A0611D523681B060ED59D
:1049000009488288C38892B29BB29A4203D0FFF7CB
:10491000BDFE606038BDE36823F08003E36038BD0E
:1049200000500040C0180020F018002008B590F892
:104930009002FFF7C3FA20B10128034818BF0020F6
:1049400008BD024808BD00BF00A24A04005125026C
:1049500013B504468DF8071020460DF1070101221A
:1049600000F0DAFC0028F7D002B010BD38B50546DB
:104970004C1E14F8011F19B12846FFF7E9FFF8E7AC
:1049800038BD000008B5114B01211C6803222046E8
:10499000FFF710FA002301211A469342206834BF22
:1049A00002254FF40035B2F5007F056103F10103E4
:1049B00003D0002A08BF012101E04FF0FF31B3F519
:1049C000007F04BF52180023E7E700BF609700088C
:1049D00008B5034B0BB1AFF3008062B6FFF7D2FF0F
:1049E00000000000F8B5144B06460D4617460BB301
:1049F000AFF3008011490446FFF7B8FF204639465F
:104A0000FFF7B4FF20460E49FFF7B0FF20463146BE
:104A1000FFF7ACFF20460B49FFF7A8FF20462946C9
:104A200000F0C8FC20460A21FFF792FF20460D2126
:104A3000FFF78EFFFFF7CCFF00000000B3980008DF
:104A4000C9980008CA98000803695B68D9889A88E1
:104A500089B292B2D8888A1A998880B289B288427B
:104A600003D2198989B201310A4492B282B199887C
:104A70001A6889B2505C99881A8989B292B29142B7
:104A800017BF9A880022013292B2C0B29A80704752
:104A90004FF0FF30704703695B689988DA8889B204
:104AA00092B2914205D09A881B6892B2985CC0B2CB
:104AB00070474FF0FF30704703699A689088D1883B
:104AC00080B289B28842F9D11A6813685B06FCD5B6
:104AD000704713B504698DF8071020460DF10701E2
:104AE000012200F019FC0028F7D0012002B010BD0F
:104AF00003695B68D8889A8880B292B2D988801A94
:104B00009A8889B292B2914203D21B899BB2013337
:104B1000184480B27047000030B5002545604FF45E
:104B20007A758560024D016105600275437530BD7F
:104B30000099000803692DE9F74FDB6804469942A4
:104B40000F4692462CD890F81480174D4FEA08185B
:104B500008EB050690F8159070684FEA091909EB03
:104B6000050B717B10B10022FFF75EFB206900F09E
:104B700083FB337B9BF80C2020698DE8080459F8EF
:104B8000051058F80530FFF7BCFD206900213A46B2
:104B9000FFF7DCFD206903B0BDE8F04F00F096BBE5
:104BA00003B0BDE8F08F00BF309400080022FFF78B
:104BB000C1BF006900F094BB044B02791B789A4294
:104BC00002D1034B1B681860704700BF1419002006
:104BD00020190020002310B50446036072B6054B6F
:104BE00019311970044B18600448FFF75DFA62B67A
:104BF000204610BD1419002020190020B94B0008D0
:104C0000036800221B685B0103F184431A6070474C
:104C1000036801221B685B0103F184431A6070473B
:104C2000036801391B6889B29962704703681B6881
:104C3000DA6A92B2914228BF11465962704738B57C
:104C4000054639B9036801221B689962DA62D86A9D
:104C500080B238BD48244C434FF6FF71B4FBF1F1EC
:104C6000013189B204EB5104B4FBF1F4FFF7D8FF32
:104C70002B68A4B21B682046DC6238BD0068C9B24C
:104C8000FFF758BA08B501211048FFF7A3FF02212A
:104C90000F48FFF79FFF03210E48FFF79BFF0421FA
:104CA0000D48FFF797FF05210C48FFF793FF0621FA
:104CB0000B48FFF78FFF07210A48FFF78BFFBDE87E
:104CC000084009480821FFF785BF00BFFC180020F5
:104CD0000019002004190020081900200C190020D8
:104CE000101900201C1900201819002070B5054665
:104CF0000E460024315D29B12A6828461268904783
:104D00000134F7E7204670BDF8B505460C46164657
:104D10008F18BC4206D02B6828461B6814F8011B6C
:104D20009847F6E73046F8BD10B502680B46946820
:104D300009689A68A04710BD08B503681B689847C2
:104D400008BD08B503685B68984708BD38B50D21F4
:104D50000546FFF7F1FF0A2104462846FFF7ECFF5E
:104D6000204438BD38B50446FFF7DEFF054620462F
:104D7000FFF7ECFF284438BD38B50446FFF7E1FFE4
:104D800005462046FFF7E2FF284438BD2DE9F04FE5
:104D900014461D4691B054EA050381469DF868B05B
:104DA00004D13021FFF7C8FF01202EE04FF00008AA
:104DB0005FFA8BF600272046294632463B4600F034
:104DC00021FB08F101080DF1000AC2440AF8012C88
:104DD000204629463B46324600F014FB04460D4669
:104DE00054EA0503E4D1002408F1FF381DF8081047
:104DF0004846092994BF30313731C9B2FFF79CFFCB
:104E00000444B8F1000FEFD1204611B0BDE8F08F97
:104E100070B5049921B90368D1B21B68984770BD79
:104E2000C9B20491BDE87040FFF7B0BF07B50023D9
:104E30000092CAB2FFF7ECFF03B05DF804FB38B58F
:104E40000446FFF7F3FF05462046FFF77FFF28449F
:104E500038BD10B50446006800F004FE204610BDC1
:104E600010B50446006808B100F0FCFD0023236083
:104E7000A360636010BD38B504460D46006801317B
:104E800001F068F910B184E82100012038BD036801
:104E900010B5044613B143688B4207D22046FFF792
:104EA000EAFF20B1A3680BB922681370012010BD7E
:104EB00070B50E46114604461546FFF7E8FF18B9CF
:104EC0002046FFF7CDFF04E0A5602068314601F0E1
:104ED00059FC204670BD38B500230446036043608A
:104EE00083600D4639B1084601F0AAFC2946024606
:104EF0002046FFF7DDFF204638BD884210B50B463F
:104F0000044607D0096819B19A68FFF7D1FF01E09C
:104F1000FFF7A6FF204610BD10B50023044603602E
:104F200043608360FFF7E9FF204610BD38B50546B2
:104F30000C4641B1084601F083FC21460246284652
:104F4000FFF7B6FF01E0FFF78BFF284638BD10B52D
:104F500000238AB00446036043608360084601A9C9
:104F600000F07DF9204601A9FFF7E0FF20460AB0D6
:104F700010BD70B5044685680E4609B9002070BDA5
:104F800062B115442946FFF782FF0028F6D0206859
:104F9000A3683146184401F0F5FBA560012070BDFF
:104FA00007B500238DF80410012201A98DF8053002
:104FB000FFF7DFFF03B05DF804FB1FB504460A22CC
:104FC0000846694600F04BF9684601F039FC69462D
:104FD00002462046FFF7CDFF04B010BD0B4610B5CA
:104FE00009689A680446FFF7C4FF10B92046FFF726
:104FF00037FF204610BD38B504460D4641B108467E
:1050000001F01EFC294602462046FFF7B2FF10B908
:105010002046FFF725FF204638BD10B50446FFF7B0
:10502000CCFF10B92046FFF71BFF204610BD0368D8
:105030000A680BB15AB905E022B1896811B110783C
:10504000404270473BB1806830B1187870471846CD
:10505000114601F079BA1846704708B582688B6826
:105060009A4206D1FFF7E3FFD0F1010038BF0020DC
:1050700008BD002008BD10B504683CB114F8010B50
:1050800020B101F00DFC04F8010CF7E710BDFEF7AC
:10509000D3BC08B5FDF7A8F9FDF73EF9FCE7000021
:1050A000322870B53BD8082939D8DFE801F0051A55
:1050B000080B0E11081417000024032213E000242B
:1050C000042210E0002422460DE0002409220AE018
:1050D0000024082207E001240B2204E001240F220F
:1050E00001E0002407220E4B00011E18317B1858E6
:1050F000FEF760FE706890B1717B24B10122BDE8BB
:105100007040FFF791B80368013903F14043203341
:10511000DB0003EB81039B0003F184431C6070BD43
:1051200030940008054B03EB001000F10803806881
:1051300010B19979FEF758BD704700BF3094000850
:1051400032280ED8084B00011A18127B012101FAEF
:1051500002F21B581B689B681A420CBF00200120FA
:1051600070470020704700BF30940008322810D8E4
:10517000084B00011A18127B1B58012000FA02F29A
:10518000D1F1010138BF0021090102FA01F11B68C8
:10519000196170473094000810B5044630B100F032
:1051A000B9FF90FBF4F303FB140010BD10BD88425F
:1051B00010B5044604DA081AFFF7EEFF204410BDCC
:1051C00010BD0000054B70B51C6806461D4600F07A
:1051D0000EF82B681B1BB342F9D370BD5819002081
:1051E0000C235843431E18460138FDD870477047BA
:1051F000F0B58BB059B3931E222B2AD80A2A2AD194
:10520000002828DA4042012501AB1E4670B1B0FBF0
:10521000F2F702FB1704092C3846D8BF303403F1EB
:105220000107C8BF57341C703B46EFE7B342EED0CE
:105230001DB12D204A1C087000E00A46B34204D973
:1052400013F8010D02F8010BF8E70023137008466C
:1052500003E0002001E00025D6E70BB0F0BDFFF72A
:10526000C7BF10B504460079FEF790FE2079BDE86F
:105270001040FEF7A3BE0000436800227F2110B556
:105280009A80DA80198100F1100119608368044660
:105290009A80DA8040F2FF121A8100F190021A60BF
:1052A00090F89002FEF772FE94F891325AB2002AFA
:1052B00008DB012103F01F0301FA03F30249521135
:1052C00041F8223010BD00BF00E100E00368DA6859
:1052D00042F02C02DA60DA6842F40052DA60704779
:1052E00010B5036882689488D188A4B289B28C42D0
:1052F000F9D1DA68910402D51A685206F9D5DA684C
:1053000022F40052DA6043689A8892B2DA808368A5
:105310009A8892B2DA8010BDF0B5836805460468B9
:1053200000209F88DE88BFB2B6B2B74204D0E368DF
:1053300023F08003E36027E026683606F7D5904225
:10534000F5D00E5C01306660EBE7DF889E88BFB267
:10535000B6B20137B74211F800C01DD0DF881E89F0
:10536000BFB2B6B2B74213D0DF881E68BFB206F82C
:1053700007C0DF881E89BFB2B6B2B74218D0DE8838
:105380000136B6B2DE8001309042AB68DDD303E077
:105390009E88B6B2002EE7D19A88DB8892B29BB283
:1053A0009A4200D1F0BDE36843F08003E360F0BDB2
:1053B0000026E7E77FB5064600240A22B1FBF2F398
:1053C00002FB1312013401AD2819303200F8012C10
:1053D0001946002BF1D114F1FF340BD32B5D8DF85E
:1053E000033030460DF103010122FFF795FF00283D
:1053F000F7D0F0E704B070BD03460846194600F048
:10540000E1BA00BF4BB942B9002908BF002802D059
:105410004FF0FF31084600F03BB882B0EC462DE972
:10542000005000F01DF8DDF804E002B00CBC70473D
:105430002DE9704F089E14461D468046894600F0AF
:1054400029F804FB01F3A4FB00AB00FB05329344F5
:10545000B8EB0A0869EB0B09C6E90089BDE8708F53
:105460002DE9704F089E14461D468046894600F07F
:1054700061F900FB05F5A0FB04AB04FB0154A34458
:10548000B8EB0A0869EB0B09C6E90089BDE8708F23
:10549000704700BF00292DE9F00FC0F2A180002461
:1054A000002BC0F29880154606460F46002B3FD1D0
:1054B0008A4258D9B2FA82F34BB1C3F1200201FA01
:1054C00003F720FA02F29D4000FA03F61743290C75
:1054D000B7FBF1F201FB1277A8B200FB02F34FEA2F
:1054E000164C4CEA0747BB4209D97F1902F1FF3C31
:1054F00080F00581BB4240F20281023A2F44FF1A3C
:10550000B7FBF1F301FB137100FB03F0B6B246EAFF
:105510000141884208D9491903F1FF3780F0F18031
:10552000884240F2EE80023B43EA0242002303E05D
:105530008B420AD900231A461046194614B140423C
:1055400061EB4101BDE8F00F7047B3FA83F8B8F1A1
:10555000000F40F088808B4202D3824200F2E2804A
:1055600000230122E8E712B90123B3FBF2F5B5FAF3
:1055700085F2002A3AD17F1B280C1FFA85FC0123F3
:10558000B7FBF0F100FB11770CFB01F24FEA164874
:1055900048EA0747BA4207D97F1901F1FF3802D21A
:1055A000BA4200F2C4804146BF1AB7FBF0F200FBDA
:1055B00012700CFB02FCB6B246EA0040844507D9E3
:1055C000401902F1FF3702D2844500F2AE803A461C
:1055D00042EA0142B0E7E443524263EB430362E72D
:1055E000404261EB41014FF0FF3459E79540C2F171
:1055F000200927FA09F126FA09F99740280CB1FB8E
:10560000F0F800FB18111FFA85FC0CFB08F349EABF
:1056100007094FEA194747EA01418B4206FA02F6A9
:1056200008D9491908F1FF327AD28B4278D9A8F10A
:1056300002082944C91AB1FBF0F300FB13170CFB55
:1056400003F21FFA89F949EA0747BA4207D97F19D5
:1056500003F1FF3160D2BA425ED9023B2F44BF1A38
:1056600043EA08438CE7C8F1200225FA02F103FA65
:1056700008FC27FA02F320FA02F207FA08F741EAD7
:105680000C0C4FEA1C49B3FBF9F109FB11331FFA6B
:105690008CFA0AFB01FB17433A0C42EA03439B4591
:1056A00005FA08F008D913EB0C0301F1FF3235D2EB
:1056B0009B4533D902396344CBEB0303B3FBF9F2C7
:1056C00009FB12330AFB02FABFB247EA0347BA45A5
:1056D00008D917EB0C0702F1FF331BD2BA4519D9D1
:1056E000023A674442EA0145A5FB0001CAEB0707FD
:1056F0008F424FF000030AD305D02A461CE76246CA
:10570000FDE63B4610E706FA08F68642F5D26A1E29
:10571000002311E71A46E5E70B46A0E71146CBE761
:10572000904687E74346424606E7023A50E7023989
:105730002F4439E72DE9F00F144605460E46002B9D
:1057400043D18A4253D9B2FA82F757B1C7F1200642
:1057500020FA06F601FA07F302FA07F400FA07F551
:105760001E43210CB6FBF1F201FB1266A0B200FB56
:1057700002F32F0C47EA0646B34209D9361902F163
:10578000FF3780F0FD80B34240F2FA80023A2644AF
:10579000F61AB6FBF1F301FB136100FB03F0ADB2A7
:1057A00045EA0141884208D9091903F1FF3680F022
:1057B000E980884240F2E680023B43EA024200234D
:1057C00010461946BDE8F00F70478B424CD8B3FA2B
:1057D00083F6002E4FD18B4202D3824200F2DD804D
:1057E000BDE8F00F0023012210461946704712B998
:1057F0000124B4FBF2F4B4FA84F2002A40F082806F
:10580000091B260CA7B20123B1FBF6F006FB101111
:1058100007FB00F24FEA154C4CEA01418A4207D9D6
:10582000091900F1FF3C02D28A4200F2C8806046AA
:10583000891AB1FBF6F206FB121107FB02F7ADB2B3
:1058400045EA0145AF4208D92C1902F1FF3180F039
:105850009B80A74240F29880023A42EA00421046FA
:105860001946BDE8F00F704700231A461046194646
:10587000BDE8F00F7047C6F1200522FA05F703FADC
:1058800006F421FA05F301FA06FB20FA05F53C437C
:105890004FEA1448B3FBF8FC08FB1C331FFA84F9E9
:1058A00009FB0CFA45EA0B0B4FEA1B4545EA03439B
:1058B0009A4502FA06F204D91B190CF1FF356FD391
:1058C000AC46CAEB0303B3FBF8F508FB153309FB41
:1058D00005F91FFA8BFB4BEA0347B94504D93F1979
:1058E00005F1FF3362D31D4645EA0C4CACFB0223A5
:1058F000C9EB07079F424FF000054AD346D06246E6
:105900002B465DE79440C2F1200921FA09FC914041
:1059100020FA09F9260CBCFBF6F806FB18CCA7B256
:1059200007FB08F349EA01094FEA194141EA0C4C27
:10593000634500FA02F509D91CEB040C08F1FF32AB
:105940003BD2634539D9A8F10208A444C3EB0C0C3F
:10595000BCFBF6F306FB13C107FB03F21FFA89F940
:1059600049EA01418A4207D9091903F1FF3022D2DD
:105970008A4220D9023B2144891A43EA084343E77B
:105980003A4605E7334618E70A4666E7B0409042D4
:10599000B5D20CF1FF32002312E7334632460FE74F
:1059A0009A458DD9ACF1020C23448AE7B9459AD9BE
:1059B000023D274498E70346DEE79046C6E70238F3
:1059C000214435E710B40C46134601462246022016
:1059D0005DF8044B00F070BF014B1868704700BFC2
:1059E000F012002008B50021044600F0C3FF044B6C
:1059F0001868C36B03B198472046FDF783FF00BFCB
:105A00002499000870B50F4E0F4D761BB61007D0C5
:105A1000043D0024013455F8043F9847A642F9D1CB
:105A20000A4E0B4D01F056F9761BB61008D0043D16
:105A30000024013455F8043F9847A642F9D170BDBF
:105A400070BD00BFE06C0008E06C0008006D00084D
:105A5000E06C0008024B0146186800F00BB800BF6C
:105A6000F0120020024B0146186801F067B800BF31
:105A7000F01200202DE9F04F01F10B05162D83B037
:105A8000064627D935F0070527D4A94225D8304640
:105A900000F03CFBB5F5FC7F26D2C14F4FEAD50C98
:105AA00007EBCC03DC689C4200F0D2816368E268BB
:105AB00023F0030323445868A16840F00105CA603D
:105AC000304691605D6000F023FB0834204603B04F
:105AD000BDE8F08F1025A942D9D900240C23204617
