:020000040800F2
:1000000000C000202134000811370008153700080F
:10001000193700081D37000821370008713700081C
:100020007137000871370008713700087137000810
:10003000713700087137000871370008313C00083B
:1000400071370008713700087137000889330008DC
:1000500071370008713700087137000871370008E0
:1000600071370008713700087137000871370008D0
:1000700071370008713700087137000871370008C0
:100080007137000871370008E93700087137000838
:1000900071370008713700087137000871370008A0
:1000A000BD3E0008E13E0008053F00083D3F000856
:1000B000913F0008014000087140000871370008B6
:1000C0007137000871370008713700087137000870
:1000D0007137000869430008BD4300081144000857
:1000E00071370008D13300087137000899410008C2
:1000F000BD410008E14100081942000839380008F4
:100100007137000871370008E140000871370008B6
:1001100065440008B94400085141000875410008D1
:10012000713700087137000871370008713700080F
:1001300010B5054C237833B9044B13B10448AFF321
:1001400000800123237010BD08170020000000006C
:10015000B468000808B5064B1BB106480649AFF362
:1001600000800648036813B1054B03B1984708BDEA
:1001700000000000B46800080C17002008170020D9
:100180000000000002F052BC38B50D46044602F0F3
:1001900068FC290A49006039204601F0FE0102F09E
:1001A000F7FC204602F0CDFCE9B2204602F0F0FC5C
:1001B000204602F0C6FC204602F053FC2046A12156
:1001C00002F0E6FC204602F0BCFC0021204602F0D2
:1001D00006FD0546204602F097FC204602F05CFC36
:1001E000284638BD70B50D461646044602F039FC67
:1001F000290A49006039204601F0FE0102F0C8FCDE
:10020000204602F09EFCE9B2204602F0C1FC2046E6
:1002100002F097FC3146204602F0BAFC204602F07C
:1002200090FC204602F038FCBDE870400A2004F043
:10023000B9BD000008B50E4A5178937843EA01230E
:10024000A3F52043113B032B07D8DFE803F00C0E86
:100250000204022008BD032008BD002180220448BA
:1002600005F0FAFC08BD002008BD012008BD00BF54
:100270002417002010B5074C6018114602F040FB0F
:10028000054B1B781C4414F8073C1B1A5842584174
:1002900010BD00BF24170020A6170020084B1879B6
:1002A0005B7943EA002045F25553984205D04CF261
:1002B0000403C31A5842584170470120704700BFD9
:1002C00024170020044B9B79552B044B0CBF0122B3
:1002D00000221A70704700BF24170020A4170020C6
:1002E00010B5084CE379552B01D1012010BD06480B
:1002F00001F06DF9E3798342F7D0D0F1010038BF06
:10030000002010BD24170020AB17002013B50D4BA3
:100310001C7A552C01D1012012E00B48694601F0EE
:10032000CDF800231A461DF803108C42F3D019B9FA
:100330000132D2B2052AEED00133052BF3D10020D1
:1003400002B010BD24170020AB17002070B5054681
:100350001E46FFF78FFF0446A8B12846FFF79EFF11
:10036000044648B12846FFF7ADFF2846FFF7B8FF1F
:10037000044658B9A6B909E01249134804F0ECFA4A
:100380001148124919E01048114916E02846FFF7B4
:10039000BDFF044698B99DF8103043B901240EE022
:1003A0000C49094804F0D8FA07480B4905E00B4905
:1003B000054804F0D1FA0448094904F0CDFA204672
:1003C00070BD00BF00800008041800202E800008C7
:1003D0005C80000880800008B7800008EE8000087C
:1003E000268100081E4B13B51B78002B35D0002347
:1003F0000093042117220123FFF7A8FF20B3194B14
:100400001C7A012C1DD11848D97C01F03BF970B140
:10041000224616480F2102F043FE2146144800F000
:1004200057FD12482146022202F072FD0CE00F48EF
:100430001021022202F034FE0E490F4804F08CFA1B
:1004400002E00A4802F04CFC0C4B06481A780021E6
:1004500002B0BDE8104005F0FFBB02B010BD00BF08
:100460000D00002024170020A8170020FD170020F1
:10047000A71700205A81000804180020A6170020A2
:10048000164B07B51B7833B30023009304210A22CF
:100490000123FFF75BFFA8B11148124900F0C0FF2C
:1004A00038B11149114804F057FA114803210222CA
:1004B00006E010490D4804F04FFA0D4804210122CE
:1004C00002F0EEFD0C4B0D481A78002103B05DF8E8
:1004D00004EB05F0C1BB03B05DF804FB0D00002088
:1004E000AB1700202C1700209E8100080418002064
:1004F000FD170020E0810008A61700202417002027
:1005000013B50023009304210F22FFF71FFF08B348
:100510001B4C1C4804F10A0100F0F7FD68B31948B0
:1005200004F10A0100F031FE38B31749174804F00E
:1005300013FA1448E17901F011F8A0B114491348F5
:1005400004F00AFA13480521012202F0A9FD0D4822
:1005500000F0FCFE104B0A481A78002102B0BDE8FA
:10056000104005F079BB09480C4904F0F5F9094839
:100570000621012202F094FDECE704480849F4E763
:1005800024170020AB170020AD82000804180020BB
:1005900022820008FD170020A617002068820008AC
:1005A000DA8200080E4B07B51B78ABB1002300932D
:1005B000042105220123FFF7C9FE20B101210948CA
:1005C0000A4602F0A5FC084B08481A78002103B03F
:1005D0005DF804EB05F040BB03B05DF804FB00BF21
:1005E0000D000020FD170020A61700202417002072
:1005F00010B50446FFF71EFE032817D8DFE800F009
:1006000002070C112046BDE81040FFF7EBBE204664
:10061000BDE81040FFF734BF2046BDE81040FFF7AB
:100620006FBF2046BDE81040FFF7BCBF10BD000003
:100630002DE9F047484C00268146267003F0ECF97E
:1006400037463546454804F043F800287FDD03F07F
:10065000E3F994F800A041480AF10103237003F084
:10066000E3FFDFF8108108F80A00032004F09AFB8A
:1006700023781022434413F8011C394804F0C6F9CA
:100680003748384904F04DF994F90030002B06DA68
:10069000314B002140468022197005F0DDFA2278A6
:1006A00008EB020313F8013CFE2B03D1561EF6B2F1
:1006B0005FBB02E04FBB0D2B27D00027052DC1D11A
:1006C0002949274804F048F92548284904F044F905
:1006D00036B9274B1B7893B14846FFF789FF0EE0E8
:1006E00021780023891BDAB2F0188A42C0B203F1E4
:1006F0000103EEDA18F8000008F80200F3E700231F
:100700002370BDE8F04703F087B9042D1BD8DFE85C
:1007100005F003070C1116000A3B5D425D4114E031
:100720000D2B0CBF022500250FE00A2B0CBF032563
:1007300000250AE00D2B0CBF0425002505E00A2B3F
:10074000BED0002501E00127B8E701277AE70023A2
:100750002370BDE8F08700BFA61700201C180020FA
:10076000041800206F9200081583000839830008E0
:100770000C0000202417002008B51D20002104F0E3
:100780007FFA1D20012104F0E1FA1020002104F07D
:1007900077FA1120002104F073FA1C20002104F0E4
:1007A0006FFA1120002104F0D1FA1C20012104F07D
:1007B000CDFABDE808401020002104F0C7BA0000BF
:1007C000014803F0E3BF00BF1C18002008B561B169
:1007D00000211C2004F0BAFA962004F0E3FABDE8E8
:1007E00008401C20012104F0B1BA08BD08B5002161
:1007F0001D2004F0ABFA0C4803F0CBFF02200021CF
:1008000004F03EFA0320002104F03AFA022000210D
:1008100004F09CFA0320002104F098FABDE8084097
:100820001C20002104F092BA1C18002010B50B788F
:10083000452B12D14B78522B0FD18B78CC78303B93
:1008400003EB8303303C04EB4304E4B221460A2269
:10085000034804F0E4F8204610BD0A2010BD00BF94
:10086000041800200B784F2B07D148784B2804D16F
:1008700013704B780120537070470020704730B5DB
:100880000020C4B20D5D01302C2D01D01D55F8E7BC
:10089000601C5525C0B21D55904204D20C5C1C54FE
:1008A0000130C0B2F8E730BDF8B54C78432C08D120
:1008B0008C78532C05D1CC78B4F151056C426C4145
:1008C00000E000240026F5B24F5D01363A2FFAD140
:1008D0000135EDB200279542FEB207F1010706D8B7
:1008E00011F805C0013501F806C0EDB2F3E73CB9D7
:1008F0002046C2B2B2420BD20A5C1A540130F8E769
:10090000069A022412681470721ED2B2FFF7B7FF63
:100910000120F8BD37B5154809B9154900E015495A
:1009200003F0FFFF642004F03DFA00240F4803F0B9
:10093000CFFE0028E5B208DD062C14D00B4803F0EA
:1009400073FE0DF804000134F0E755B19DF8023054
:100950004F2B08D19DF80300B0F14B03584258418A
:1009600002E0284600E0002003B030BD1C18002043
:10097000648300086883000810B5012104461D2027
:1009800004F0E4F907484FF4165103F0FFFE204647
:100990000121FFF71BFF20460121BDE81040FFF7B2
:1009A000B9BF00BF1C1800202DE9F0419EB005AD75
:1009B0000C4607460021904628466422039305F022
:1009C0004BF921462C4803F0ACFF642004F0EAF90F
:1009D0000024294803F07CFE0028E6B207DD642CE1
:1009E00045D0254803F020FE28550134F1E726B90B
:1009F0002249234803F0B0FF39E09DF814300D2B55
:100A000035D19DF815300A2B31D11EAB334413F884
:100A1000653C0A2B2BD1023E1EAB334413F8643CD9
:100A20000D2B24D10021CCB2A31CDBB2B34201F1C7
:100A3000010107DA1EAA134413F8643C144404F8B5
:100A4000643CF0E738462946FFF7F0FE0A280CD14F
:100A500003AB00933846294622464346FFF724FF5E
:100A600000280CBF0320022002E0012000E0032048
:100A70001EB0BDE8F08100BF1C1800206E83000886
:100A8000041800202DE9F041B2B006460D4690460C
:100A90000021642268461F4605F0DEF819A80021EF
:100AA000642205F0D9F80024E3B2E85C013420B1F7
:100AB00032AA134403F8640CF6E70146CAB25D1883
:100AC00018F80240EDB232AA01312A4414B102F8FA
:100AD000644CF3E70D2302F8643C6B1C32A8DBB2D4
:100AE00003442F480A2203F8642C036819A95B68A1
:100AF00098472C48AA1C036819A99B68D2B298474A
:100B0000642004F04FF9274803F0E2FD0028E5B225
:100B100008DD642C3FD0234803F086FD0DF8040067
:100B20000134F0E7002D36D09DF800300D2B32D186
:100B30009DF801300A2B2ED132AB2B4413F8C93C5F
:100B40000A2B28D1023D32AB2B4413F8C83C0D2BA5
:100B500021D100218B1CDBB2AB4201F1010209DA89
:100B600032A8034413F8C83CC9B2014401F8C83C98
:100B70001146EFE730466946FFF758FE0A2808D1CC
:100B8000304669463A46FFF76DFE80F00100C0B27C
:100B900002E0012000E0032032B0BDE8F08100BF98
:100BA000041800201C180020F7B51E4604461746FE
:100BB0000D4600218DF80710FFF7ACFE02F02CFF68
:100BC000204631462FB12A460DF10703FFF7ECFE10
:100BD00003E0089A2B46FFF755FF03282AD8DFE8E1
:100BE00000F011040207002311E01648164901E045
:100BF0001448164903F0B0FE20460121FFF78AFE93
:100C000000201CE012490F4803F0A6FE12E09DF8F8
:100C100007205E1CDBB29A420A4809D9E95C10221F
:100C200003F0F4FE07480B4903F07BFE3346EEE782
:100C300003F07CFE20460121FFF76CFE012003B08B
:100C4000F0BD00BF041800208283000893830008D1
:100C50009C8300086F9200082DE9F0438BB004AF2D
:100C6000804600210922384602AE002404F0F4FF39
:100C70000094404631460122324BFFF795FF05466E
:100C800030B93149314803F067FE3048304953E00C
:100C90002346F25C07AC092A01D8303204E0A2F105
:100CA0000A01052998BF3732E2540133082BF0D1ED
:100CB0004FF0000927488DF8249000F0D3FD02463C
:100CC00000B32549214803F047FE24491F4803F09B
:100CD00043FE2048394600F033FD70B14B46E15CDD
:100CE000FA5C91421BD10133082BF8D11C491748FB
:100CF00003F032FE15481B491EE01B49134803F060
:100D00002BFE07E0009440463146184BFFF74CFF9E
:100D1000054698B121460F4800F062FD0AE01449EB
:100D20000A4803F019FE00974046314600220F4B57
:100D3000FFF73AFF054601E003F00EFE28460BB030
:100D4000BDE8F083A8830008B383000804180020DE
:100D5000D3830008A8170020F68300081484000835
:100D60009C840008C6840008328400085684000869
:100D70005F8400082DE9F04F89B002AF07F10C063F
:100D80008346894690461C46304600210A2204F0DC
:100D900063FF002C50D1C7F804D05846CDF800802E
:100DA000314601224B46FFF7FFFE824608B121463D
:100DB00006E04049404803F0CFFD3F483F496FE01F
:100DC000CCB218F804300131002BF9D1E11D01F447
:100DD000FC71ADEB010D02A9D8B2A04203D2F05CC8
:100DE000C8540133F8E70B46581AC0B2A0420DD2DE
:100DF00013F8010B092801D8303004E0A0F10A05EE
:100E0000052DF1D8373003F8010CEDE70025EBB2E2
:100E1000A34243D24B5D013508EB050010F8010CED
:100E20009842F4D02649244803F096FD22482549EB
:100E300003F092FD7B689D466C460023DAB219F8F8
:100E4000021001330A29F9D1931D03F4FC73ADEBB1
:100E5000030DA2F1020E02AB0020C1B2551EA94241
:100E600000F1010003DA19F801505D54F5E70022A2
:100E70003D215A55584603F80E10CDF800803146F2
:100E8000FFF792FE054628B90B480F4903F064FDB1
:100E9000AA4601E04FF0010AA54605E006480B49C5
:100EA00003F05AFD7B689D4650461C37BD46BDE8A1
:100EB000F08F00BFE8840008041800200E850008A9
:100EC0003285000889850008CB8500080086000867
:100ED0007FB50F2204460D466846002104F0BCFE93
:100EE0006248634903F038FD0A2602F095FD002DA3
:100EF0006CD12046FFF7B0FE5E498DF800005E4AD7
:100F00002B462046FFF736FF5C498DF801005C4A0E
:100F100001232046FFF72EFF5A498DF802005A4A56
:100F20002B462046FFF726FF58498DF80300584A04
:100F30002B462046FFF71EFF564A57492B468DF891
:100F400004002046FFF716FF8DF80500534800F017
:100F5000D9FBF1280CBF524A494A52490123204685
:100F6000FFF708FF50498DF80600504A002320463D
:100F7000FFF700FF4E498DF807004C4A002320463A
:100F8000FFF7F8FE4B498DF80800454A002320463C
:100F9000FFF7F0FE48498DF80900484A0023204633
:100FA000FFF7E8FE46498DF80A00464A002320462E
:100FB000FFF7E0FE324A8DF80B004349204600233C
:100FC000FFF7D8FE0D228DF80C000EE0334800F03C
:100FD00099FBF1280CBF324A294A204631490023A7
:100FE000FFF7C8FE01228DF8000000231DF8031052
:100FF000A9B936491D4803F0AFFC2046FFF7BCFCF9
:101000002046FFF7F3FB02F007FD2046FFF7B4FC94
:101010004FF4FA6003F0C6FE02F0FEFC05E0013377
:10102000D9B29142E2D304B070BD294803F050FB1D
:10103000002803DD264803F0F7FAF6E7013E16F034
:10104000FF067FF452AF2349084803F085FC22498C
:10105000064803F081FC40F6B83003F0A3FE02F02E
:10106000DBFC04B0BDE8704002F00ABD04180020AB
:101070002886000857860008638600086C860008EA
:101080006986000876860008828600088B8600083C
:1010900097860008AB860008A0860008A8170020E5
:1010A000B8860008AE860008BB860008C586000822
:1010B000C8860008D2860008DC860008E58600089D
:1010C000E8860008F2860008F5860008FF8600081A
:1010D0001C1800201C8700084887000815200121E3
:1010E00003F034BE1520002103F030BE10B50021FE
:1010F0000446152003F0C4FD1520012103F026FE4F
:101100002046BDE81040FFF73DB87FB505460E46C6
:10111000FFF7E8FF0D2433192146284613F80D2C5C
:101120000134FFF75FF8162CF5D13046092101F0A4
:10113000E7FB0646214628463246FFF753F80D24C2
:1011400021462846FFF720F801AB23440134162C32
:1011500003F80D0CF4D101A8092101F0D1FBB04234
:1011600003D0FFF7BBFF00200DE028460B21FFF75F
:101170000BF8552804D028460B215522FFF732F8EA
:10118000FFF7ACFF012004B070BD7FB505460E46E9
:10119000FFF7A8FF172433192146284613F8172C08
:1011A0000134FFF71FF8202CF5D13046092101F05A
:1011B000A7FB0646214628463246FFF713F81724B8
:1011C00021462846FEF7E0FF01AB23440134202CE2
:1011D00003F8170CF4D101A8092101F091FBB042EA
:1011E00003D0FFF77BFF00200DE028460C21FEF71F
:1011F000CBFF552804D028460C215522FEF7F2FFDC
:10120000FFF76CFF012004B070BDF0B585B001ADF3
:1012100006460F4628460021092204F01DFD0D2434
:1012200021463046FEF7B0FF2B190134162C03F887
:101230000D0CF5D121463046FEF7A6FF09210446E4
:10124000284601F05DFB844206D10023EA5CFA5493
:101250000133092BFAD101E0002000E0012005B0A4
:10126000F0BDF0B585B001AD06460F462846002119
:10127000092204F0F1FC172421463046FEF784FFD2
:101280002B190134202C03F8170CF5D121463046D8
:10129000FEF77AFF09210446284601F031FB84421B
:1012A00006D10023EA5CFA540133092BFAD101E09C
:1012B000002000E0012005B0F0BD37B50C461E212E
:1012C0000546FEF761FF1F218DF804002846FEF752
:1012D0005BFF02218DF8050001A801F011FB2070D1
:1012E00003B030BD10B50B210446FEF74DFF88B1A9
:1012F000FFF7F8FE204600220B21FEF773FFFFF7F1
:10130000EDFE20460B21FEF73FFFD0F1010038BF74
:10131000002010BD012010BD10B50C210446FEF7C1
:1013200033FF88B1FFF7DEFE204600220C21FEF7D6
:1013300059FFFFF7D3FE20460C21FEF725FFD0F121
:10134000010038BF002010BD012010BD10B52121C3
:101350000446FEF719FF552811D0FFF7C3FE2046BB
:1013600055222121FEF73EFFFFF7B8FE204621213E
:10137000FEF70AFFB0F155035842584110BD012055
:1013800010BD08B52121FEF7FFFEB0F1550358420C
:10139000584108BD70B504460D46FFF736FF20B131
:1013A00020462946FFF75DFF48BB20462946FFF748
:1013B0002CFF48B11549164803F0CEFA20462946BD
:1013C000BDE87040FFF7E1BE20462946FFF749FF20
:1013D00006460F4846B10F4903F0BEFA204629469B
:1013E000BDE87040FFF791BE0B4903F0B5FA204607
:1013F000FFF778FF2046FFF78FFF304670BD0749A3
:10140000034803F0A9FA012070BD00BF71870008EE
:1014100004180020A8870008DF870008F387000869
:10142000F8B504460E462F2573192046294613F8B1
:101430002F7CFEF7A9FE874203D10135342DF3D16D
:1014400036E0FFF74FFE2F2573192946204613F883
:101450002F2C0135FEF7C6FE342DF5D1052130467F
:1014600001F04EFA0746294620463A46FEF7BAFEF4
:101470002F2520462946FEF787FE731913F82F3CC7
:10148000834217D10135342DF3D120462946FEF78A
:101490007BFEB8420ED120463521FEF775FE552859
:1014A00004D0204635215522FEF79CFEFFF716FE9C
:1014B0000120F8BDFFF712FE0020F8BDF7B5054684
:1014C0000E462F2421462846FEF75EFE00AB23443D
:1014D0000134342C03F82F0CF4D10521684601F0B7
:1014E0000FFA214607462846FEF74EFE874207D1EF
:1014F00000231DF80320F2540133052BF9D101E03C
:10150000002000E0012003B0F0BD38B50546FFF72C
:10151000E9FD2F2428462146FEF736FE68B128460D
:1015200021460022FEF75EFE28462146FEF72CFEED
:1015300018B1FFF7D3FD002038BD0134342CE9D1B8
:1015400028463521FEF720FE20B12846352100220D
:10155000FEF748FEFFF7C2FD012038BD37B50D4646
:101560008DF8071036210446FEF70EFE85422BD07B
:1015700002ADFFF7B7FD15F8012D20463621FEF725
:1015800031FE0121284601F0BBF9372102462046F1
:10159000FEF728FE20463621FEF7F6FD9DF80730BF
:1015A00083420DD120463821FEF7EEFD552804D0A8
:1015B000204638215522FEF715FEFFF78FFD03E088
:1015C000FFF78CFD002000E0012003B030BD362184
:1015D000FEF7DABD10B536210446FEF7D5FD88B119
:1015E000FFF780FD204636210022FEF7FBFD204656
:1015F0003621FEF7C9FD18B1FFF770FD002010BDC0
:10160000FFF76CFD012010BD0020704700207047DF
:10161000002070470020704710B548210446FEF7AF
:10162000B3FD552811D0FFF75DFD20465522482116
:10163000FEF7D8FDFFF752FD20464821FEF7A4FD36
:10164000B0F155035842584110BD012010BD10B5EE
:101650004D210446FEF798FD552810D0FFF742FDB6
:10166000204655224D21FEF7BDFDFFF737FD2046F0
:101670000021FEF789FD003018BF012010BD0120B8
:1016800010BD000037B58DF807101031C9B201291F
:10169000044629D84C21FEF777FD9DF80730834298
:1016A00028D002ADFFF71EFD15F8012D20464C2174
:1016B000FEF798FD0121284601F022F94E2102464D
:1016C0002046FEF78FFD20464C21FEF75DFD9DF87C
:1016D0000730834205D12046FFF7B9FFFFF7FEFC34
:1016E00008E0FFF7FBFC03E00448054903F034F988
:1016F000002000E0012003B030BD00BF041800202E
:101700002388000837B54C210446FEF73DFD02ABA7
:1017100003F8010D1846012101F0F2F84E210546AB
:101720002046FEF731FD854202D19DF8070004E016
:101730002046F021FFF7A6FFF02003B030BD0000E7
:10174000F7B505460E464F2421462846FEF71CFDF8
:1017500000AB23440134572C03F84F0CF4D108217B
:10176000684601F0CDF8214607462846FEF70CFDF5
:1017700087420CD100231DF80320F2540133082BBB
:10178000F9D10448044903F0E7F8012000E0002003
:1017900003B0F0BD041800205988000810B5582186
:1017A0000446FEF7F1FC552808D0FFF79BFC2046C5
:1017B00058215522FEF716FDFFF790FC10BD10B51D
:1017C00058210446FEF7E0FC40B1FFF78BFC2046B1
:1017D00058210022FEF706FDFFF780FC10BD000037
:1017E000F7B50F460546FFF77DFC3846082101F0A6
:1017F00087F84F2406463B192146284613F84F2CFC
:101800000134FEF7EFFC572CF5D12146284632462D
:10181000FEF7E8FC4F2421462846FEF7B5FC00AB56
:1018200023440134572C03F84F0CF4D168460821A7
:1018300001F066F8864206D02846FFF7C0FFFFF7A2
:101840004DFC002007E00549054803F085F82846CF
:10185000FFF7A4FF012003B0F0BD00BF6E880008B1
:101860000418002008B55821FEF78EFCB0F155038E
:101870005842584108BD70B504460E461546FFF75C
:1018800031FC204632462221FEF7ACFC20462321C3
:101890002A46FEF7A7FCFFF721FC70BDFEF774BCDB
:1018A000FEF772BC70B504460E461546FFF71AFCEB
:1018B000204632462421FEF795FC204625212A4663
:1018C000FEF790FCFFF70AFC70BD000030B52A4916
:1018D00087B02A4803F040F802F09EF841F28830C1
:1018E00003F060FA02F098F8244802F0F1FE0028B4
:1018F0000ADD224802F098FEC1B2214803F040F907
:10190000022003F04FFAEFE71D4CA368002B2DD007
:10191000204603F0A0F92146184803F013F81949AE
:1019200003A803F0C8F8204603A903F086F905468A
:1019300003A803F07EF8B5B16846134903F0BBF87D
:10194000694603A803F0D8F8214603A803F036F946
:1019500001460A4802F0F6FF03A803F06AF8684659
:1019600003F067F806E00548084901E00348084924
:1019700002F0F2FF07B030BD838800080418002091
:10198000EC170020D4880008D8880008E3880008F5
:101990000E8900080022026042607047006820B192
:1019A00003688B4201D08068F9E7704770B5044640
:1019B0000C2016460D4603F03DFE00228260226890
:1019C00080E860000AB9206001E0626890606060B1
:1019D00070BD10B51446FFF7E1FF08B14460012067
:1019E00010BD08B5FFF7DAFF00B1406808BD01F58A
:1019F0001C414131FFF7DABF01F51C414131FFF7CE
:101A0000E8BF01F51C414131FFF7EBBF002A01F1AE
:101A1000010114BF4FF47F420022FFF7C7BF002A25
:101A200001F51C5101F1110114BF4FF47F42002256
:101A3000FFF7BCBF01F5EA413131FFF7B7BF002A1C
:101A400001F1010114BF4FF47F420022FFF7C1BF33
:101A5000002A01F51C5101F1110114BF4FF47F421E
:101A60000022FFF7B6BF01F5EA413131FFF7B1BF00
:101A700008B50131FFF7B5FFB0F57F435842584133
:101A800008BD01F51C5108B51131FFF7AAFFB0F5EB
:101A90007F435842584108BD01F5EA413131FFF713
:101AA000A0BF70B5044680680D46164603F0CAFD17
:101AB0000220207303F0BEFD803D0323A06005706B
:101AC0004670637370BDF8B5531E7C2B04460F46F9
:101AD000164602D903210A4617E001F51C4141319F
:101AE000FFF75CFF18B92046032102220DE0A06831
:101AF00003F0A8FD701C4000C0B2207303F09AFDF3
:101B0000A06030B9204603210422BDE8F840FFF769
:101B1000C8BF03230370237B0025023B4370E919F0
:101B20002046FFF76EFFA3680135020A03F815206F
:101B3000A368B54203EB45035870F0D103236373E8
:101B4000F8BD70B504460E461546FFF755FF18B9A7
:101B500020460621022208E020463146FFF751FFC9
:101B6000A84206D0204606210422BDE87040FFF7B7
:101B700098BF0223637370BD2DE9F8431F461646D4
:101B80007A1E7A2A044688469DF8203008D8B3EB9E
:101B9000470F05D106F51C45413505EB070903E064
:101BA00020461021032218E04D450AD02946204640
:101BB000FFF7F4FE01350028F6D12046102102225D
:101BC0000BE0A06803F03EFD0520207303F032FD1A
:101BD000A06030B9204610210422BDE8F843FFF789
:101BE00060BF10230370330A4370002307718670AF
:101BF000C37008F106053744BE4205F102050BD05B
:101C000015F8022C15F8013C3146204643EA022221
:101C1000FFF7F2FE0136EFE703236373BDE8F883B5
:101C20002DE9F843531EB3F5FA6F04460F461546E7
:101C300002D30121032219E00131FFF7AFFE18B9E9
:101C400020460121022211E0A06803F0FBFCC5F34D
:101C5000C7036A070CBF023303332373207B03F0EF
:101C6000E9FCA06030B9204601210422BDE8F84318
:101C7000FFF717BF01230370237B05EB0708023B27
:101C800043703E46002546451CD031462046FFF7AE
:101C9000EFFEC7F10109B1444FEAD909012109F169
:101CA0000203A268A94010B1D05C014302E0D05CFD
:101CB00020EA01010135EDB2082DD15408BF0025FD
:101CC0000136E0E703236373BDE8F8832DE9F843A9
:101CD000531EB3F5FA6F04460F46154602D3022190
:101CE00003221BE001F51C511131FFF757FE18B913
:101CF00020460121022211E0A06803F0A3FCC5F3F5
:101D0000C7036A070CBF023303332373207B03F03E
:101D100091FCA06030B9204602210422BDE8F843BE
:101D2000FFF7BFBE02230370237B05EB0708023BCE
:101D300043703E46002546451CD031462046FFF7FD
:101D4000A0FEC7F10109B1444FEAD909012109F107
:101D50000203A268A94010B1D05C014302E0D05C4C
:101D600020EA01010135EDB2082DD15408BF00254C
:101D70000136E0E703236373BDE8F883F8B5531E2B
:101D80007C2B04460F46164602D90421032217E095
:101D900001F5EA413131FFF701FE18B92046012172
:101DA00002220DE0A06803F04DFC701C4000C0B2A0
:101DB000207303F03FFCA06030B9042120460A469E
:101DC000BDE8F840FFF76DBE04230370237B0025B8
:101DD000023B4370E9192046FFF75EFEA368013518
:101DE000020A03F81520A368B54203EB45035870B7
:101DF000F0D103236373F8BDB2F57F4F70B504468D
:101E00000E4603D012B10521032215E0151C18BFA0
:101E10000125204631462A46FFF711FE18B9204613
:101E20000521022208E020463146FFF721FEA842A4
:101E300006D0204605210422BDE87040FFF731BEE0
:101E40000223637370BD2DE9F8431D468946DB0804
:101E5000690705F1FF3118BF0133B1F5F66F16467A
:101E600004469DF8202005D29A4203D1771C07EB47
:101E7000050803E020460F21032218E047450AD059
:101E800039462046FFF78AFD01370028F6D1204663
:101E90000F2102220BE0A06803F0D4FB0520207381
:101EA00003F0C8FBA06030B920460F210422BDE832
:101EB000F843FFF7F6BD0F230370330A43702B0A74
:101EC00005718670C3703544B0460027A84514D00C
:101ED000C6F10103434409EBD3039A7941463A41E1
:101EE0000137FFB2204602F00102FFF7A8FD082FDC
:101EF00008BF002708F10108E8E703236373BDE882
:101F0000F88373B50C46A3786278E578097843EADC
:101F10000222237943EA05234D1E0F2D3FD8DFE827
:101F200005F01C230F2A31083E3E3E3E3E3E3E3E1B
:101F3000381611461A4602B0BDE87040FFF701BEE0
:101F400011461A4602B0BDE87040FFF7BCBD61798A
:101F500000912146FFF710FE27E011461A4602B015
:101F6000BDE87040FFF75CBE11461A4602B0BDE8FE
:101F70007040FFF7ABBE11461A4602B0BDE8704094
:101F8000FFF7FCBE11461A4602B0BDE87040FFF7ED
:101F900033BF617900912146FFF755FF05E001222B
:101FA00002B0BDE87040FFF77CBD02B070BD10B557
:101FB0000446FFF7EFFC204610BD80F828100120F2
:101FC0007047000070B5049E0161C6610446154665
:101FD00008461146DAB202F09DFB4FF4FA6002F0B7
:101FE000E1FE002E08DBF6B23046002102F048FE8A
:101FF0003046002102F0AAFEB5F5964F06DD40F20C
:10200000EE23236240F2D663636207E0044B93FB46
:10201000F5F32362034B93FBF5F56562012070BD78
:10202000C0E1E400C00E160270B50446C0690D465A
:10203000002806DBC0B2012102F088FE012002F078
:10204000B1FE0023227B5E1CDBB29A42206905D9D7
:102050000268E95C126890473346F3E703689B69BE
:102060009847606A02F0ACFEE069002803DBC0B26A
:10207000002102F06BFE70BDF0B5C9430B4EC9B232
:10208000705C0B4DC0436C5CC0B20021AC46CFB25B
:10209000BB4207D0555C01314540705D60401CF883
:1020A0000540F4E744EA0020F0BD00BF3189000894
:1020B000318A00082DE9F0410D78037BFF2D01EBFB
:1020C000030204460E4612F8028C12F8017C03D07B
:1020D00090F82820AA420BD1A268033B204612F8B0
:1020E000011BDBB2FFF7C8FF47EA0827874202D08F
:1020F0000020BDE8F0812046711CFFF702FFFF2D94
:102100004FF0010002D16073BDE8F081BDE8F081BD
:10211000F8B50446C0690E46002806DBC0B20121AE
:1021200002F014FE012002F03DFE206994F8281010
:1021300003681B6898470022237B571CD2B29A423F
:10214000256906D22B68B15C1B68284698473A4639
:10215000F2E7A26894F828102046FFF78DFF2B685D
:1021600006461B68C6F30721284698472069F1B246
:1021700003681B689847206903689B699847606AF1
:1021800002F01EFEE069002803DBC0B2002102F06D
:10219000DDFDF8BDF8B5002304460373206903682C
:1021A000DB689847237B984208DD20690368DB6879
:1021B00098472073206A02F003FEEFE753B31846F6
:1021C00003F038FA0023A060227BDDB2AA4203F1BB
:1021D000010707D92069A66803681B6998473B4631
:1021E0007055F1E72046A168FFF764FF68B1637B93
:1021F000032B04D12046A168FFF78AFF05E0022BDC
:1022000003D12046A168FFF70FFFA06803F01AFA78
:1022100000232373F8BD00000148112101F009B823
:10222000AC170020064B1A6801321A601A681D2A82
:1022300004D900221A60034B01221A70704700BFB4
:10224000B0170020F817002010B5084C08492046A8
:1022500002F0E5FA20460121064A02F0FFFA204684
:102260000021BDE8104002F0D1BA00BF00190020E3
:1022700040420F002522000810B57C4C01F0CCFB39
:102280002046FFF787FF20460021FFF7F1FB0146BC
:102290001E2002F05BFD20460121FFF7E9FB01460D
:1022A0001F2002F053FD20460221FFF7E1FB01460B
:1022B000262002F04BFD20460321FFF7D9FB014603
:1022C000272002F043FD20460421FFF7D1FB014601
:1022D000282002F03BFD20460521FFF7C9FB0146FF
:1022E000292002F033FD20460621FFF7C1FB0146FD
:1022F000082002F02BFD20460721FFF7B9FB01461D
:102300000B2002F023FD20460821FFF7B1FB014618
:102310000C2002F01BFD20460921FFF7A9FB014616
:102320000D2002F013FD20460A21FFF7A1FB014614
:102330000F2002F00BFD20460B21FFF799FB014611
:102340002A2002F003FD202002F0EAFC021C18BF44
:10235000012264212046FFF77BFB212002F0E0FCF4
:10236000021C18BF012265212046FFF771FB2220C5
:1023700002F0D6FC021C18BF012264212046FFF7A0
:1023800067FB232002F0CCFC021C18BF0122652150
:102390002046FFF75DFB2C2002F0C2FC021C18BF98
:1023A000012264212046FFF753FB2B2002F0B8FCEA
:1023B000021C18BF012265212046FFF749FB32208D
:1023C00002F0AEFC021C18BF012264212046FFF778
:1023D0003FFB132002F0A4FC021C18BF0122652160
:1023E0002046FFF735FB002002F08CFCC821024696
:1023F0002046FFF738FB012002F084FCC921024689
:102400002046FFF730FB042002F07CFCC821024686
:102410002046FFF728FB052002F074FCC921024684
:102420002046FFF720FB062002F06CFCC821024684
:102430002046FFF718FB072002F064FCC921024682
:102440002046FFF710FB242002F05CFCC821024666
:102450002046FFF708FB252002F054FCC921024664
:102460002046BDE81040FFF7FEBA00BFC0170020AD
:1024700013B5524C4FF0FF3300934FF41652002324
:1024800020464F49FFF79EFD20460121FFF795FDAD
:10249000002120460A46FFF7B9FA20460121002212
:1024A000FFF7B4FA204602210022FFF7AFFA2046D8
:1024B00003210022FFF7AAFA204604210022FFF799
:1024C000A5FA204605210022FFF7A0FA20460621A2
:1024D0000022FFF79BFA204607210022FFF796FA19
:1024E000204608210022FFF791FA20460921002208
:1024F000FFF78CFA20460A210022FFF787FA2046D0
:102500000B210022FFF782FA204664210022FFF708
:1025100086FA204665210022FFF781FA20466421D1
:102520000022FFF77CFA204665210022FFF777FAA8
:10253000204664210022FFF772FA2046652100221E
:10254000FFF76DFA204664210022FFF768FA204663
:1025500065210022FFF763FA2046C8210022FFF719
:1025600069FA2046C9210022FFF764FA2046C821F3
:102570000022FFF75FFA2046C9210022FFF75AFA2E
:102580002046C8210022FFF755FA2046C921002223
:10259000FFF750FA2046C8210022FFF74BFA2046E9
:1025A000C9210022FFF746FA20464FF496717F2298
:1025B00002B0BDE81040FFF71ABA00BFC0170020F4
:1025C0001C18002013B51F48FEF7DBFE1E4C38BB5D
:1025D00020701E491B48FEF798FD20B119481B4981
:1025E000FEF7D3FD00BB1748FEF7F4FF18B11548FE
:1025F000FEF78BFFE8B901238DF800301148002366
:1026000069468DF801308DF802308DF803308DF871
:102610000430FEF705FF18B10D480E4902F09CF991
:102620000123237002B010BD0B49094802F094F950
:10263000D9E70A49064802F08FF90949044802F02F
:102640008BF9D8E7AB1700200D000020B41700204D
:1026500004180020318B00086C8B00089B8B00084D
:10266000CA8B000830B58DB0FFF702FF814B062002
:102670001A684FF47A7122F0E06242F000721A6038
:1026800001F0BAF97C484FF4165102F07FF84FF48C
:1026900016517A48FEF794F801F039F97848FEF7B8
:1026A00025FD784800F043F901F0B6F97348FEF7CC
:1026B00063F801217148FEF72DF9734D4FF4FA606C
:1026C00002F070FB002471482C70FDF7B1FF01236C
:1026D0002B7001F0A1F921466848FEF7F9FB6C4820
:1026E000FEF79AFF6B49644802F036F96A482221E6
:1026F000FFF7D6F80128044605D167482321FFF7E4
:10270000CFF80546E0B1002263480121FFF7B3F896
:102710006249684602F0CFF9694606A802F0ECF972
:102720001022012103A802F002FA03A906A802F070
:1027300045FA5B4902F04FFA0021044609A816E069
:102740005849684602F0B7F9694606A802F0D4F97C
:102750002146102203A802F0EAF903A906A802F014
:102760002DFA4F4902F037FA2946044609A81022EB
:1027700002F0DDF9204609A902F020FA01463E48A0
:1027800002F0E0F809A802F054F903A802F051F9A8
:1027900006A802F04EF9684602F04BF93E482421A3
:1027A000FFF77CF80128044616D13B482521FFF7A6
:1027B00075F8054680B93C4906A802F07CF906A9DF
:1027C00009A802F099F9214609A802F016FA34493D
:1027D00002F001FA294614E000222F480121FFF7F8
:1027E00061F8324906A802F066F906A909A802F0C4
:1027F00083F9012109A802F000FA294902F0EBF956
:10280000002102F0FAF901461B4802F09BF809A8E2
:1028100002F00FF906A802F00CF92548FFF756F868
:10282000FFF7D0FE22482349FEF7B4FDA0B92249A4
:10283000114802F091F821490F4802F08DF8204824
:1028400000F0F8FA1148FDF7F3FE40F6B83000F05A
:10285000F9F901F0E1F8E5E71A49074802F07CF8D8
:1028600001F0DAF8FFF7F0FC1749034802F074F8BA
:102870000DB030BD0400014004180020A71700204F
:10288000AA170020F91700200C000020A51700202F
:10289000A817002095920008A9170020928C000824
:1028A0006C880008DD8C0008F38C0008098D000896
:1028B000AB170020B4170020E68B00081A8C000824
:1028C000FD170020498C0008708C000810B5074CDB
:1028D0000749204602F0EFF820460649064A02F072
:1028E0007BFBBDE810400548FFF761BBEC170020FB
:1028F00095920008334A000808000020C017002005
:10290000002330B5054618468B420FDAEA5C50408A
:10291000082210F0010F4FEA60041ABF84F0E000B3
:10292000C0B2E0B2013AF4D10133EDE730BD08B5F1
:102930001E20002102F0A4F91F20002102F0A0F9BE
:102940002620002102F09CF92720002102F098F9AE
:102950002820002102F094F92920002102F090F9AA
:102960000820002102F08CF90B20002102F088F9E8
:102970000C20002102F084F90D20002102F080F9E2
:102980000F20002102F07CF92A20002102F078F9C2
:102990002020022102F074F92120022102F070F9B6
:1029A0002120022102F06CF92220022102F068F9B4
:1029B0002320022102F064F92C20022102F060F9A8
:1029C0002C20022102F05CF92B20022102F058F9A0
:1029D0000020022102F054F90120022102F050F9F6
:1029E0000420022102F04CF90520022102F048F9EE
:1029F0000620022102F044F90720022102F040F9EA
:102A00002420022102F03CF9BDE8084025200221E3
:102A100002F036B9014801F0E3BE00BF04190020FE
:102A2000014801F0E5BE00BF0419002008B51620DA
:102A3000002102F025F91720002102F021F91620CB
:102A4000012102F083F9BDE808401720012102F0BE
:102A50007DB91720002102F013B91720042102F0DC
:102A60000FB908B5FFF7F5FF1720012102F06EF945
:102A70000121162002F06AF9052002F0A1F90021D7
:102A8000172002F063F9062002F09AF9BDE8084029
:102A90001620002102F05AB908B5FFF7DAFF162018
:102AA000002102F053F91720002102F04FF9012113
:102AB000162002F04BF9062002F082F917200121BE
:102AC00002F044F9BDE80840062002F079B910B5DB
:102AD00000210446162002F039F92046FFF7B9FF1D
:102AE0000021172002F032F9022002F069F90121D9
:102AF000162002F02BF9052002F062F9BDE8104023
:102B00001620002102F022B910B50021044616203B
:102B100002F01CF92046FFF79CFF0121172002F06C
:102B200015F9022002F04CF90121162002F00EF9ED
:102B3000052002F045F9BDE810401620002102F002
:102B400005B970B50646FFF788FF0121172002F08E
:102B5000FDF8012002F034F91620012102F0F6F808
:102B6000012002F02DF9FB25172002F0D9F80446C8
:102B700040B1013D15F0FF05F6D13046FFF78CFF5F
:102B8000012070BD1620214602F0E0F8204670BDFD
:102B900038B50C46FFF75DFF1620002102F0D6F88D
:102BA000082524F07F0303F0FF01172003B1012162
:102BB00002F0CCF80121162002F0C8F8022002F041
:102BC000FFF81620002102F0C1F8013D0220640048
:102BD00002F0F6F815F0FF05E4B2E2D138BDF8B521
:102BE00005460F46FFF739FF08260024002116206E
:102BF00002F0ACF8022002F0E3F81620012102F006
:102C0000A5F864001720E4B202F08AF808B1013494
:102C1000E4B20120013E02F0D3F816F0FF06E5D140
:102C2000284617B9FFF770FF01E0FFF750FF204675
:102C3000F8BD01F00F03090901EB810103EB41002D
:102C4000C0B27047074A30B5136815462C6819188A
:102C50008C42044A04D81168994238BF1368F5E7DA
:102C600030BD00BF5419002037B50C460C480DF19B
:102C70000701FEF722FB9DF807304FF47A705843A6
:102C8000084902F084F89DF807300546642058434F
:102C9000054902F07CF82844206003B030BD00BF35
:102CA000AB17002060E31600400D030070B50E4620
:102CB00015460024E3B2AB42074809D2315D102229
:102CC00001F0A4FE0448054901F02BFE0134F1E7B0
:102CD000BDE8704001F02ABE041800206F92000881
:102CE00030B595B040220546002104A802F0B4FF9B
:102CF000002314A941F8503D28466946FFF7B4FF68
:102D0000009802F05DF800F087FEFE238DF8103089
:102D1000E0238DF8113011238DF8123024238DF823
:102D20001330C0238DF8143004238DF815303B4B3D
:102D30001B7803B155233A488DF81630FEF747FC4F
:102D400001AC8DF8170021463548FEF7B7FB00238C
:102D500004AA1A44E15C0133052B1172F8D1304802
:102D60002146FEF752FA002304AA1A44E15C01331B
:102D7000092B5173F8D10024012305A824218DF8D3
:102D800026308DF827408DF828408DF829408DF8A1
:102D90002A408DF82B408DF82C408DF82D408DF871
:102DA0002E408DF82F408DF830408DF831408DF851
:102DB00032408DF833408DF834408DF835408DF831
:102DC00036408DF83740FFF79BFD8DF83800E3075C
:102DD00004AB234404F1010454BF0D220A22062C43
:102DE00083F82920F3D10F490F4801F0B5FD04A95C
:102DF00028462F22FFF75AFF0C48FFF70BFE0C481E
:102E000004A903682F229B689847C82001F0CAFFD5
:102E10000648FFF705FE15B030BD00BFA41700201F
:102E2000AB170020548D000804180020F91700206B
:102E30001C18002010B586B014220446002101A8F9
:102E400002F00AFF002306A941F8183D2046694612
:102E5000FFF70AFF009801F0B3FF00F0DDFDFE234D
:102E60008DF80430E0238DF8053013238DF80630FB
:102E700005238DF80730C0238DF8083004238DF822
:102E800009301D4B1B7803B155231C488DF80A30BF
:102E9000FEF79DFB01238DF80B00052102A88DF89C
:102EA0000C30FFF72DFD00238DF80D00DA0701AA85
:102EB0001A4403F1010354BF0D210A21062B91721C
:102EC000F4D10F490F4801F047FD01A92046102217
:102ED000FFF7ECFE0C48FFF79DFD0C4801A90368C5
:102EE00010229B689847C82001F05CFF0648FFF756
:102EF00097FD06B010BD00BFA4170020AB1700203F
:102F0000708D000804180020F91700201C180020FC
:102F1000F0B593B00C460546174602A800214022A2
:102F200002F09AFE0023019300F076FD34B12846AA
:102F300001A9FFF799FE019801F042FF00F06CFD36
:102F4000FE238DF80830E0238DF8093014238DF826
:102F50000A301A238DF80B30C0238DF80C3004236F
:102F60008DF80D30444B1B7803B1552343488DF841
:102F70000E30FEF72CFB424E002401238DF80F008B
:102F8000317840488DF810308DF811408DF812409E
:102F90008DF81340FFF74DFE71788DF81400394815
:102FA000FFF747FE8DF815003448FEF72DFB8DF82E
:102FB00016003248FEF72CFB8DF818002F488DF8CC
:102FC0001740FEF723FB8DF81A002C488DF81940A6
:102FD0008DF81B408DF81C40FEF71CFB014629486C
:102FE000FFF727FE8DF81D002748FEF78BFB142303
:102FF0008DF81E008DF81F3003A853231A218DF879
:1030000020308DF821408DF822408DF823408DF836
:1030100024408DF82540FFF773FC8DF82600E30768
:1030200002AB234404F1010454BF0D220A22062CF2
:10303000DA77F4D11549164801F08EFC284602A92A
:103040002522FFF733FE0024E3B2BB4212D200F088
:10305000E3FC1048FFF7DEFC0F4802A903682522B5
:103060009B6898470D4801F0ABFE0A48FFF7D8FC73
:103070000134E9E713B0F0BDA4170020AB1700201E
:10308000FB170020FA170020A8170020968D0008D3
:1030900004180020F91700201C180020400D030020
:1030A0002DE9F0418AB005468846174600211922CD
:1030B00003A802F0D1FD00260AA941F8206D284698
:1030C000404CFFF7D1FD029801F07AFE00F0A4FC1D
:1030D00023780BB1637833B900963B483949012214
:1030E0003A4BFDF761FDFE238DF80C30E0238DF89F
:1030F0000D3015238DF80E300E238DF80F30C023C0
:103100008DF8103004238DF81130314B1B7803B14A
:10311000552330488DF81230FEF759FA01232178F3
:103120008DF813002C488DF814308DF81580FFF7BA
:1031300080FD61788DF816002748FFF77AFD00249E
:103140008DF817000E2104A88DF818408DF819404D
:103150008DF81A408DF81B408DF81C408DF81D40ED
:10316000FFF7CEFB8DF81E00E30703AB234404F109
:10317000010454BF0D220A22062CDA74F4D1174937
:10318000174801F0E9FB284603A91922FFF78EFD35
:103190001448FFF73FFC0024E3B2BB420CD200F01E
:1031A0003BFC114803A9036819229B689847C82073
:1031B00001F0F8FD0134EFE70A48FFF731FC0AB0EF
:1031C000BDE8F081FB170020A7170020B08D000894
:1031D000A4170020AB170020FA170020BA8D0008B2
:1031E00004180020F91700201C180020122938B5F7
:1031F0000546144608460BD0132910D0112916D1C4
:1032000000F06CF80CB120460FE047F6FF700CE0C0
:1032100000F064F8002CF6D149F63F4005E000F0DC
:103220005DF8002CEFD14FF2234000F0DFF8284684
:1032300038BD13B50022044601A8FFF7D7FF20468A
:1032400002B010BD054B1B681B685B0103F1844392
:1032500094331A68002AFCD0704700BF1000002089
:10326000054B1B681B685B0103F184438C331A68B0
:10327000002AFCD0704700BF1000002008B5FFF7FF
:10328000E1FF054B00221B681B685B0103F18443CF
:10329000C3F88C2008BD00BF1000002008B5FFF760
:1032A000D1FF054B01221B681B685B0103F18443BE
:1032B000C3F8902008BD00BF1000002008B5FFF73C
:1032C000C1FF054B00221B681B685B0103F18443AF
:1032D000C3F8902008BD00BF1000002010B50446C0
:1032E00000F015FB00F020FB204A112C136A23F498
:1032F0004073136213460BD005D8C4B1102C2AD1E9
:103300000023136227E0122C11D0132C1AD022E0D4
:10331000174A00211160012142F8081C154A126861
:1033200012F0FF0FFAD01A6A42F4807212E0124AC9
:1033300001211160114A1268002AFBD01A6A42F476
:10334000007207E00E4A126812F0FF0FFAD01A6AF4
:1033500042F440721A620B4B01221A60FFF78EFF93
:10336000FFF77EFFBDE81040FFF76CBF0010024082
:10337000080442420404424280044242840442421D
:10338000440042423C044242F8B5104B1E68356886
:103390002B686F681F4017F0010403D074680CB1EC
:1033A000A0470124BA0704D5B36813B1984744F085
:1033B00002047B0704D5F36813B1984744F0040472
:1033C0006B6823EA04046C60F8BD00BF10000020A5
:1033D00008B5044B1B681B691BB19847024B0122BF
:1033E0001A6008BD10000020C482204210B50446B7
:1033F000FFF744FFFFF734FFFFF724FFFFF74EFF0F
:10340000064B220C1B68A4B21B689A60DC60FFF7B5
:1034100055FFBDE81040FFF715BF00BF10000020AA
:1034200001498D460149084700C000203134000899
:1034300008B5124B124A1968914201D0002301E0ED
:10344000104B07E01048D4188442F9D2C858D05025
:103450000433F7E70D4A934203D2002243F8042BCA
:10346000F8E702F0BFF800200146024601F001FC37
:10347000074B0BB102F0A6F8FEE700BFCC930008A3
:103480000000002008170020081700206019002005
:10349000C555000808B50D4B1A680AB90C4A1A60E0
:1034A0001B680C4AD21A824204DB09494242591A6B
:1034B000914206DA02F080F80C2303604FF0FF30EF
:1034C00008BD024A18441060184608BD00180020C4
:1034D0006019002000400128FEE70000124B10B5E3
:1034E000196809220A23114801F006F9104B02223B
:1034F00019681048032301F0FFF80F4B1A221968CE
:103500000E481B2301F0F8F80D4B2A2219680D48CC
:103510002B2301F0F1F8BDE810400B4B0B48196864
:103520002C22322301F0E8B8CC010020041800203E
:10353000D00100201C180020D401002034180020E5
:10354000BC0E00204C180020C00E00206418002083
:1035500010B5044600F0C0F9034B20461978BDE8C9
:10356000104000F019B900BF2C000020F8B5044647
:10357000056800F0ADFB22680023510101F1844190
:103580000B60802129600121A9622B61EB606379C6
:10359000696113B18B4203D02BE04FF400436B649D
:1035A0004FF6FF73D36200256E1CF7B220463946F2
:1035B00000F098FBD0B1236848F6FF7103F13402A4
:1035C00042F8251018336D1017F0010F53F825201D
:1035D00014BF6FF0FF016FF47F4101EA020214BFD4
:1035E00068214FF4D0410A4343F82520042E354684
:1035F000DAD1216801224B01490103F1844301F131
:103600008441C3F880220A60F8BD704738B5274B63
:10361000274C1A68022042F010021A6000F08AF962
:103620000025002000F050FA65602368182023F47C
:103630000023236000F055FA102000F052FA00F049
:1036400043F8A560102000F03FFA102000F066FA61
:103650000028FAD000F039F8164800F06BFA18206C
:1036600000F032FA182000F059FA0028FAD00220AF
:1036700000F01AFA00214FF0006000F0E9F90E485E
:1036800000F0CEFA00F038F80C4B188800F00EF974
:103690000B4800F00FF90B4800F0F6FA00F02EF896
:1036A00000F02DF8FFF7B1FF38BD00BF0020024049
:1036B00000100240300000203F1901002E000020C1
:1036C000513500086D350008704708B500200146E7
:1036D00000F07EFA01204FF4806100F079FA0021B9
:1036E000022000F075FA2D2000F082FABDE80840B3
:1036F0000320002100F06CBA00F026B9704700F0FA
:1037000071B900000000000000000000000000008F
:10371000012007E0022005E0032003E0042001E08F
:103720000520FFE70D4A0121116072B60C4A002105
:103730001160074902B4084902B486B005498E46B3
:10374000704700BFAFF30080AFF30080AFF300809D
:1037500000000061F9FFFFFFB145000814ED00E033
:1037600010E000E0AFF30080AFF30080AFF3008023
:10377000FEE710B50446007900F0F8F92079BDE8BD
:10378000104000F00BBA03689A6822F4602242F4F9
:103790008012114399607047002370B51A461C4689
:1037A000072B4FEA430503DCEE1801FA06F6344313
:1037B0001D4401FA05F501330A2B42EA0502EFD157
:1037C0000368DC601A6170BD0368DA6A22F0F8727F
:1037D000DA6259639A6842F480029A601A68920722
:1037E000FCD5D86C80B2704738B5124D2A68136882
:1037F0001C68A10706D5196821F0020119609368B9
:1038000003B19847620708D52B681A681B691168CD
:1038100021F00401116003B19847E30708D52B6834
:103820001A68DB68116821F00101116003B1984743
:1038300038BD00BF7400002038B5124D2A681368E7
:103840001C68A10706D5196821F002011960936868
:1038500003B19847620708D52B681A681B6911687D
:1038600021F00401116003B19847E30708D52B68E4
:103870001A68DB68116821F00101116003B19847F3
:1038800038BD00BF78000020036801225B0103F10E
:10389000844303F58673191F1A6018680028FCD149
:1038A00043F8042C0B68002BFCD170470146042020
:1038B00000F08EB9054B10B504461868A047044BBC
:1038C0001868A047034B1868A04710BD740000207B
:1038D000700000207800002010B50446FFF749FF73
:1038E00020464FF46021FFF74EFF2368012103F1CA
:1038F000404308335A015B0102F1844203F18443DF
:10390000116520461960BDE81040FFF7BDBF08B53E
:10391000142000F02BF9042000F028F9BDE808403D
:10392000042000F03BB90000014B01221A607047EF
:1039300020000E42034B1A6822F007021043186061
:10394000704700BF0020024008B50B4801F079FA2B
:103950000A4801F076FA0A4801F073FA094801F0C2
:1039600070FA094801F06DFA084801F06AFABDE8FA
:103970000840074801F065BA7C0000208400002060
:103980008C000020940000209C000020A400002057
:10399000AC00002070B501F00704A4000F25A5407D
:1039A0000368C80853F82060092A26EA050514BFF1
:1039B0001646082606FA04F4082A44EA050443F8E1
:1039C000204006D1012000FA01F1DA6822EA010163
:1039D00006E0092A05D1012000FA01F1DA68114355
:1039E000D96070BD08B5032000F0C0F8BDE80840FC
:1039F000032000F0D3B80000064B45F255521A6080
:103A00004CF6CC42586099601A604AF6AA221A60B5
:103A1000704700BF00300040024B4AF6AA221A60ED
:103A2000704700BF0030004000284FEA011105DA5E
:103A3000064B00F00F00C9B21954704700F1604006
:103A4000C9B200F5614080F80013704714ED00E042
:103A500021F0604138B521F07F01084B08439860A0
:103A600000241D4660B20F210134FFF7DDFF3C2C1E
:103A7000F8D1F02385F8233038BD00BF00ED00E019
:103A8000044A054BD16801F440710B43D360BFF386
:103A90004F8FFEE700ED00E00400FA05014B13F83C
:103AA0001000704778910008064B5A6822F0030214
:103AB00002435A6080005A6802F00C028242FAD136
:103AC000704700BF00100240030A0121C0B201FA92
:103AD00000F003F1804303F504331A6810431860C3
:103AE0007047030A0121C0B201FA00F003F18043DC
:103AF00003F504331A6822EA000018607047030ACD
:103B00000122C0B202FA00F003F1804303F504334E
:103B10001B6818420CBF002001207047030A0222D4
:103B2000C0B202FA00F003F1804303F504331B68CE
:103B30001840704738B54368044618201D68FFF7E1
:103B4000DEFF20B106488121064A00F03BFD064B0E
:103B500021685A680D4322F4741215435D6038BD24
:103B6000089100085C9100080010024010B504465E
:103B7000FFF794FF074B53F82020074B03EB440457
:103B8000637803EBC2039B0003F1844301221A60B4
:103B900010BD00BFB40000207891000810B50446A5
:103BA000FFF77CFF084B53F82020084B03EB44043D
:103BB000637803EBC2039B0003F1844301221A6084
:103BC00000221A6010BD00BFC000002078910008DC
:103BD00010B5054B054C5A6854F8200022EA000243
:103BE0001143596010BD00BF00100240D49100087D
:103BF00010B50446FFF752FF074B53F82020074B40
:103C000003EB4404637803EBC2039B0003F184439A
:103C100000221A6010BD00BFC80000207891000883
:103C2000024B072258601A60704700BF10E000E0A6
:103C300008B5044B1A6801321A60034B1B6803B1C4
:103C4000984708BD541900207C18002011F0010F7E
:103C500070B542EA03030CBF0825002503FA05F5F9
:103C6000006801F1FF3400F11800C4F3400450F87B
:103C7000241014BF6FF0FF066FF47F4631402943D4
:103C800040F8241070BD000010B504460848A04755
:103C90000848A0470848A0470848A0470848A04748
:103CA0000848A0470848A0470848A04710BD00BFE3
:103CB00080010020A8010020D4000020F80000208E
:103CC0001C010020400100204C0100205801002070
:103CD00010B504460079FFF749FF2079BDE8104090
:103CE000FFF75CBF03791E2B10D9212B0ED0202BA0
:103CF0000ED9222B01D0252B04D102298CBF002004
:103D0000012070474B1E58425841704701207047B0
:103D1000002070478B1C40F823200368012203F128
:103D200040430C3301EBC3039B0003F184431A604F
:103D300042790379FAB9B3F11A0253425341072980
:103D40004BD8DFE801F004090909090E0E13002B16
:103D50000CBF2C23192337E0002B0CBF2E231B2371
:103D600032E0002B0CBF2D231A232DE0002B0CBFBB
:103D70002B23182328E01B3B0C2B1CD8DFE803F077
:103D8000212307090B0D1B0F1113151719001E23F3
:103D90001AE0322318E0362316E0372314E0182304
:103DA00012E0192310E01A230EE02B230CE02C2341
:103DB0000AE02D2308E0094840F2BF11084A00F04C
:103DC00001BC1C2300E01D235909012203F01F033D
:103DD00002FA03F3034A42F821307047E8910008E1
:103DE0006A86000800E100E00368002203F1404316
:103DF0000C3301EBC3039B0003F1844302311A60CF
:103E000040F8212070470000F8B54E1EF3B2032B96
:103E100004460D46174604D92648DA21264A00F002
:103E2000D1FB6379022B43D0032F41D8DFE807F0A1
:103E30000212223520462946FFF7D6FF236803F1F8
:103E400040432033DB0003EB8606B60006F18446D0
:103E5000002320E02368002203F140430C3305EBEC
:103E6000C3039B0003F184431A6020462946602265
:103E7000082303E02046294610220023FFF7E6FE30
:103E8000236803F140432033DB0003EB8606B600D2
:103E900006F1844601233360F8BD23684FF2F12216
:103EA0009A6103229A605B0103F1844301221A6044
:103EB000F8BD00BFE89100083B92000810B5074B21
:103EC0001C68E16822690A40120606D55B6A23B1C4
:103ED0009847236923F08003236110BD80010020EF
:103EE00010B5074B1C68E16822690A40D20706D565
:103EF0009B6823B19847236923F00103236110BD18
:103F000080010020F8B50C4F3D68EB682E691E401B
:103F100016F0400403D03C6A0CB1A0474024B3061D
:103F200004D5FB6913B1984744F020042B6923EAB8
:103F300004042C61F8BD00BF80010020F8B5134FC8
:103F40003E68F36835691D4015F0100403D0BC6964
:103F50000CB1A0471024290704D57B6913B19847F9
:103F600044F008046A0704D53B6913B1984744F04C
:103F70000404AB0704D5FB6813B1984744F002046E
:103F8000336923EA04043461F8BD00BF80010020D6
:103F9000F8B51A4E3768FB683D691D4015F04004BE
:103FA00003D0346A0CB1A0474024EB0604D5B369B2
:103FB00013B1984744F01004280704D5736913B16E
:103FC000984744F00804690704D5336913B198474A
:103FD00044F00404AA0704D5F36813B1984744F0E9
:103FE0000204EB0704D5B36813B1984744F0010409
:103FF0003B6923EA04043C61F8BD00BFA80100202E
:10400000F8B51A4E3768FB683D691D4015F040044D
:1040100003D0346A0CB1A0474024EB0604D5B36941
:1040200013B1984744F01004280704D5736913B1FD
:10403000984744F00804690704D5336913B19847D9
:1040400044F00404AA0704D5F36813B1984744F078
:104050000204EB0704D5B36813B1984744F0010498
:104060003B6923EA04043C61F8BD00BFD400002092
:10407000F8B51A4E3768FB683D691D4015F04004DD
:1040800003D0346A0CB1A0474024EB0604D5B369D1
:1040900013B1984744F01004280704D5736913B18D
:1040A000984744F00804690704D5336913B1984769
:1040B00044F00404AA0704D5F36813B1984744F008
:1040C0000204EB0704D5B36813B1984744F0010428
:1040D0003B6923EA04043C61F8BD00BFF8000020FE
:1040E000F8B51A4E3768FB683D691D4015F040046D
:1040F00003D0346A0CB1A0474024EB0604D5B36961
:1041000013B1984744F01004280704D5736913B11C
:10411000984744F00804690704D5336913B19847F8
:1041200044F00404AA0704D5F36813B1984744F097
:104130000204EB0704D5B36813B1984744F00104B7
:104140003B6923EA04043C61F8BD00BF1C01002068
:1041500010B5074B1C68E16822690A40D20706D5F2
:104160009B6823B19847236923F00103236110BDA5
:104170004001002010B5074B1C68E16822690A4025
:10418000D20706D59B6823B19847236923F0010322
:10419000236110BD4C01002010B5074B1C68E1687D
:1041A00022690A40120606D55B6A23B19847236943
:1041B00023F08003236110BD5801002010B5074B88
:1041C0001C68E16822690A40D20706D59B6823B1C2
:1041D0009847236923F00103236110BD5801002093
:1041E000F8B50C4F3D68EB682E691E4016F0400490
:1041F00003D03C6A0CB1A0474024B30604D5FB6948
:1042000013B1984744F020042B6923EA04042C617D
:10421000F8BD00BF58010020F8B5134F3E68F368A1
:1042200035691D4015F0100403D0BC690CB1A047DE
:104230001024290704D57B6913B1984744F008047A
:104240006A0704D53B6913B1984744F00404AB07EF
:1042500004D5FB6813B1984744F00204336923EA9C
:1042600004043461F8BD00BF580100208188026851
:10427000034689B2505C99881A8989B292B29142F8
:1042800017BF9A880022013292B2C0B29A8070475A
:10429000C28838B5838892B29BB201329A420446F2
:1042A0000D461AD0C288038992B29BB29A4202D1BB
:1042B00083889BB28BB14FF0FF30E288236892B2C3
:1042C0009D54E288238992B29BB29A4217BFE38839
:1042D000002301339BB2E38038BD2046FFF7C6FFC1
:1042E000EBE770B51E460546084611460422059CBC
:1042F000FFF750FB9DF810100B223046FFF74AFBEA
:104300002B6804F00F01DA6804F0300422F4F05254
:104310001204120C42EA4122DA601A6922F4405275
:104320001204120C42EA04241C6170BD38B5044624
:10433000154611B900F0EAF8014619235943AD00BA
:104340006423B1FBF5F1B1FBF3F21201100903FB99
:10435000101109013231B1FBF3F303F00F032168AF
:104360001A4392B28A6038BD38B5114DEB68980691
:1043700007D52B68990604D569680E48C9B2FFF7BE
:1043800087FFEB680A4C1A0611D523681B060ED569
:1043900009488288C38892B29BB29A4203D0FFF741
:1043A00065FF606038BDE36823F08003E36038BDDB
:1043B000003801408C1800208018002038B5114DBD
:1043C000EB68980607D52B68990604D569680E48EE
:1043D000C9B2FFF75DFFEB680A4C1A0611D52368D6
:1043E0001B060ED509488288C38892B29BB29A42B6
:1043F00003D0FFF73BFF606038BDE36823F0800324
:10440000E36038BD0044004098180020C818002020
:1044100038B5114DEB68980607D52B68990604D579
:1044200069680E48C9B2FFF733FFEB680A4C1A06F9
:1044300011D523681B060ED509488288C38892B21D
:104440009BB29A4203D0FFF711FF606038BDE3686A
:1044500023F08003E36038BD00480040A41800202A
:10446000E018002038B5114DEB68980607D52B6889
:10447000990604D569680E48C9B2FFF709FFEB68D1
:104480000A4C1A0611D523681B060ED509488288E6
:10449000C38892B29BB29A4203D0FFF7E7FE6060F6
:1044A00038BDE36823F08003E36038BD004C004072
:1044B000B0180020D418002038B5114DEB689806CC
:1044C00007D52B68990604D569680E48C9B2FFF76D
:1044D000DFFEEB680A4C1A0611D523681B060ED5C1
:1044E00009488288C38892B29BB29A4203D0FFF7F0
:1044F000BDFE606038BDE36823F08003E36038BD33
:1045000000500040BC180020EC18002008B590F8BE
:104510009002FFF7C3FA20B10128034818BF00201A
:1045200008BD024808BD00BF00A24A040051250290
:1045300013B504468DF8071020460DF1070101223E
:1045400000F0DAFC0028F7D002B010BD38B50546FF
:104550004C1E14F8011F19B12846FFF7E9FFF8E7D0
:1045600038BD000008B5114B01211C68032220460C
:10457000FFF710FA002301211A469342206834BF46
:1045800002254FF40035B2F5007F056103F1010308
:1045900003D0002A08BF012101E04FF0FF31B3F53D
:1045A000007F04BF52180023E7E700BF0491000812
:1045B00008B5034B0BB1AFF3008062B6FFF7D2FF33
:1045C00000000000F8B5144B06460D4617460BB325
:1045D000AFF3008011490446FFF7B8FF2046394683
:1045E000FFF7B4FF20460E49FFF7B0FF20463146E3
:1045F000FFF7ACFF20460B49FFF7A8FF20462946EE
:1046000000F0C8FC20460A21FFF792FF20460D214A
:10461000FFF78EFFFFF7CCFF000000005792000865
:104620006D9200086E92000803695B68D9889A88C9
:1046300089B292B2D8888A1A998880B289B288429F
:1046400003D2198989B201310A4492B282B19988A0
:104650001A6889B2505C99881A8989B292B29142DB
:1046600017BF9A880022013292B2C0B29A80704776
:104670004FF0FF30704703695B689988DA8889B228
:1046800092B2914205D09A881B6892B2985CC0B2EF
:1046900070474FF0FF30704703699A689088D1885F
:1046A00080B289B28842F9D11A6813685B06FCD5DA
:1046B000704713B504698DF8071020460DF1070106
:1046C000012200F019FC0028F7D0012002B010BD33
:1046D00003695B68D8889A8880B292B2D988801AB8
:1046E0009A8889B292B2914203D21B899BB201335C
:1046F000184480B27047000030B5002545604FF483
:104700007A758560024D016105600275437530BDA3
:10471000A092000803692DE9F74FDB68044699422F
:104720000F4692462CD890F81480174D4FEA08187F
:1047300008EB050690F8159070684FEA091909EB27
:10474000050B717B10B10022FFF75EFB206900F0C2
:1047500083FB337B9BF80C2020698DE8080459F813
:10476000051058F80530FFF7BCFD206900213A46D6
:10477000FFF7DCFD206903B0BDE8F04F00F096BB09
:1047800003B0BDE8F08F00BFD48D00080022FFF712
:10479000C1BF006900F094BB044B02791B789A42B8
:1047A00002D1034B1B681860704700BF101900202E
:1047B0001C190020002310B50446036072B6054B97
:1047C00019311970044B18600448FFF75DFA62B69E
:1047D000204610BD101900201C1900209947000820
:1047E000036800221B685B0103F184431A60704771
:1047F000036801221B685B0103F184431A60704760
:10480000036801391B6889B29962704703681B68A5
:10481000DA6A92B2914228BF11465962704738B5A0
:10482000054639B9036801221B689962DA62D86AC1
:1048300080B238BD48244C434FF6FF71B4FBF1F110
:10484000013189B204EB5104B4FBF1F4FFF7D8FF56
:104850002B68A4B21B682046DC6238BD0068C9B270
:10486000FFF758BA08B501211048FFF7A3FF02214E
:104870000F48FFF79FFF03210E48FFF79BFF04211E
:104880000D48FFF797FF05210C48FFF793FF06211E
:104890000B48FFF78FFF07210A48FFF78BFFBDE8A2
:1048A000084009480821FFF785BF00BFF81800201D
:1048B000FC1800200019002004190020081900200D
:1048C0000C190020181900201419002070B5054695
:1048D0000E460024315D29B12A68284612689047A7
:1048E0000134F7E7204670BDF8B505460C4616467C
:1048F0008F18BC4206D02B6828461B6814F8011B91
:104900009847F6E73046F8BD10B502680B46946844
:1049100009689A68A04710BD08B503681B689847E6
:1049200008BD08B503685B68984708BD38B50D2118
:104930000546FFF7F1FF0A2104462846FFF7ECFF82
:10494000204438BD38B50446FFF7DEFF0546204653
:10495000FFF7ECFF284438BD38B50446FFF7E1FF08
:1049600005462046FFF7E2FF284438BD2DE9F04F09
:1049700014461D4691B054EA050381469DF868B07F
:1049800004D13021FFF7C8FF01202EE04FF00008CE
:104990005FFA8BF600272046294632463B4600F058
:1049A00021FB08F101080DF1000AC2440AF8012CAC
:1049B000204629463B46324600F014FB04460D468D
:1049C00054EA0503E4D1002408F1FF381DF808106B
:1049D0004846092994BF30313731C9B2FFF79CFFEF
:1049E0000444B8F1000FEFD1204611B0BDE8F08FBC
:1049F00070B5049921B90368D1B21B68984770BD9E
:104A0000C9B20491BDE87040FFF7B0BF07B50023FD
:104A10000092CAB2FFF7ECFF03B05DF804FB38B5B3
:104A20000446FFF7F3FF05462046FFF77FFF2844C3
:104A300038BD10B50446006800F004FE204610BDE5
:104A400010B50446006808B100F0FCFD00232360A7
:104A5000A360636010BD38B504460D46006801319F
:104A600001F068F910B184E82100012038BD036825
:104A700010B5044613B143688B4207D22046FFF7B6
:104A8000EAFF20B1A3680BB922681370012010BDA2
:104A900070B50E46114604461546FFF7E8FF18B9F3
:104AA0002046FFF7CDFF04E0A5602068314601F005
:104AB00059FC204670BD38B50023044603604360AE
:104AC00083600D4639B1084601F0AAFC294602462A
:104AD0002046FFF7DDFF204638BD884210B50B4663
:104AE000044607D0096819B19A68FFF7D1FF01E0C1
:104AF000FFF7A6FF204610BD10B500230446036053
:104B000043608360FFF7E9FF204610BD38B50546D6
:104B10000C4641B1084601F083FC21460246284676
:104B2000FFF7B6FF01E0FFF78BFF284638BD10B551
:104B300000238AB00446036043608360084601A9ED
:104B400000F07DF9204601A9FFF7E0FF20460AB0FA
:104B500010BD70B5044685680E4609B9002070BDC9
:104B600062B115442946FFF782FF0028F6D020687D
:104B7000A3683146184401F0F5FBA560012070BD23
:104B800007B500238DF80410012201A98DF8053026
:104B9000FFF7DFFF03B05DF804FB1FB504460A22F0
:104BA0000846694600F04BF9684601F039FC694651
:104BB00002462046FFF7CDFF04B010BD0B4610B5EE
:104BC00009689A680446FFF7C4FF10B92046FFF74A
:104BD00037FF204610BD38B504460D4641B10846A2
:104BE00001F01EFC294602462046FFF7B2FF10B92D
:104BF0002046FFF725FF204638BD10B50446FFF7D5
:104C0000CCFF10B92046FFF71BFF204610BD0368FC
:104C10000A680BB15AB905E022B1896811B1107860
:104C2000404270473BB1806830B1187870471846F1
:104C3000114601F079BA1846704708B582688B684A
:104C40009A4206D1FFF7E3FFD0F1010038BF002000
:104C500008BD002008BD10B504683CB114F8010B74
:104C600020B101F00DFC04F8010CF7E710BDFEF7D0
:104C7000CDBC08B5FDF7F6FCFDF7FEFAFCE7000039
:104C8000322870B53BD8082939D8DFE801F0051A79
:104C9000080B0E11081417000024032213E000244F
:104CA000042210E0002422460DE0002409220AE03C
:104CB0000024082207E001240B2204E001240F2233
:104CC00001E0002407220E4B00011E18317B18580A
:104CD000FEF760FE706890B1717B24B10122BDE8DF
:104CE0007040FFF791B80368013903F14043203366
:104CF000DB0003EB81039B0003F184431C6070BD68
:104D0000D48D0008054B03EB001000F10803806808
:104D100010B19979FEF758BD704700BFD48D0008D7
:104D200032280ED8084B00011A18127B012101FA13
:104D300002F21B581B689B681A420CBF002001201E
:104D400070470020704700BFD48D0008322810D86B
:104D5000084B00011A18127B1B58012000FA02F2BE
:104D6000D1F1010138BF0021090102FA01F11B68EC
:104D700019617047D48D000810B5044630B100F0B9
:104D8000B9FF90FBF4F303FB140010BD10BD884283
:104D900010B5044604DA081AFFF7EEFF204410BDF0
:104DA00010BD0000054B70B51C6806461D4600F09E
:104DB0000EF82B681B1BB342F9D370BD54190020A9
:104DC0000C235843431E18460138FDD870477047DE
:104DD000F0B58BB059B3931E222B2AD80A2A2AD1B8
:104DE000002828DA4042012501AB1E4670B1B0FB15
:104DF000F2F702FB1704092C3846D8BF303403F110
:104E00000107C8BF57341C703B46EFE7B342EED0F2
:104E10001DB12D204A1C087000E00A46B34204D997
:104E200013F8010D02F8010BF8E700231370084690
:104E300003E0002001E00025D6E70BB0F0BDFFF74E
:104E4000C7BF10B504460079FEF790FE2079BDE893
:104E50001040FEF7A3BE0000436800227F2110B57A
:104E60009A80DA80198100F1100119608368044684
:104E70009A80DA8040F2FF121A8100F190021A60E3
:104E800090F89002FEF772FE94F891325AB2002A1E
:104E900008DB012103F01F0301FA03F30249521159
:104EA00041F8223010BD00BF00E100E00368DA687D
:104EB00042F02C02DA60DA6842F40052DA6070479D
:104EC00010B5036882689488D188A4B289B28C42F4
:104ED000F9D1DA68910402D51A685206F9D5DA6870
:104EE00022F40052DA6043689A8892B2DA808368CA
:104EF0009A8892B2DA8010BDF0B5836805460468DE
:104F000000209F88DE88BFB2B6B2B74204D0E36803
:104F100023F08003E36027E026683606F7D5904249
:104F2000F5D00E5C01306660EBE7DF889E88BFB28B
:104F3000B6B20137B74211F800C01DD0DF881E8914
:104F4000BFB2B6B2B74213D0DF881E68BFB206F850
:104F500007C0DF881E89BFB2B6B2B74218D0DE885C
:104F60000136B6B2DE8001309042AB68DDD303E09B
:104F70009E88B6B2002EE7D19A88DB8892B29BB2A7
:104F80009A4200D1F0BDE36843F08003E360F0BDD6
:104F90000026E7E77FB5064600240A22B1FBF2F3BC
:104FA00002FB1312013401AD2819303200F8012C34
:104FB0001946002BF1D114F1FF340BD32B5D8DF882
:104FC000033030460DF103010122FFF795FF002861
:104FD000F7D0F0E704B070BD03460846194600F06C
:104FE000E1BA00BF4BB942B9002908BF002802D07E
:104FF0004FF0FF31084600F03BB882B0EC462DE997
:10500000005000F01DF8DDF804E002B00CBC704761
:105010002DE9704F089E14461D468046894600F0D3
:1050200029F804FB01F3A4FB00AB00FB0532934419
:10503000B8EB0A0869EB0B09C6E90089BDE8708F77
:105040002DE9704F089E14461D468046894600F0A3
:1050500061F900FB05F5A0FB04AB04FB0154A3447C
:10506000B8EB0A0869EB0B09C6E90089BDE8708F47
:10507000704700BF00292DE9F00FC0F2A180002485
:10508000002BC0F29880154606460F46002B3FD1F4
:105090008A4258D9B2FA82F34BB1C3F1200201FA25
:1050A00003F720FA02F29D4000FA03F61743290C99
:1050B000B7FBF1F201FB1277A8B200FB02F34FEA53
:1050C000164C4CEA0747BB4209D97F1902F1FF3C55
:1050D00080F00581BB4240F20281023A2F44FF1A60
:1050E000B7FBF1F301FB137100FB03F0B6B246EA24
:1050F0000141884208D9491903F1FF3780F0F18056
:10510000884240F2EE80023B43EA0242002303E081
:105110008B420AD900231A461046194614B1404260
:1051200061EB4101BDE8F00F7047B3FA83F8B8F1C5
:10513000000F40F088808B4202D3824200F2E2806E
:1051400000230122E8E712B90123B3FBF2F5B5FA17
:1051500085F2002A3AD17F1B280C1FFA85FC012317
:10516000B7FBF0F100FB11770CFB01F24FEA164898
:1051700048EA0747BA4207D97F1901F1FF3802D23E
:10518000BA4200F2C4804146BF1AB7FBF0F200FBFE
:1051900012700CFB02FCB6B246EA0040844507D907
:1051A000401902F1FF3702D2844500F2AE803A4640
:1051B00042EA0142B0E7E443524263EB430362E751
:1051C000404261EB41014FF0FF3459E79540C2F195
:1051D000200927FA09F126FA09F99740280CB1FBB2
:1051E000F0F800FB18111FFA85FC0CFB08F349EAE4
:1051F00007094FEA194747EA01418B4206FA02F6CE
:1052000008D9491908F1FF327AD28B4278D9A8F12E
:1052100002082944C91AB1FBF0F300FB13170CFB79
:1052200003F21FFA89F949EA0747BA4207D97F19F9
:1052300003F1FF3160D2BA425ED9023B2F44BF1A5C
:1052400043EA08438CE7C8F1200225FA02F103FA89
:1052500008FC27FA02F320FA02F207FA08F741EAFB
:105260000C0C4FEA1C49B3FBF9F109FB11331FFA8F
:105270008CFA0AFB01FB17433A0C42EA03439B45B5
:1052800005FA08F008D913EB0C0301F1FF3235D20F
:105290009B4533D902396344CBEB0303B3FBF9F2EB
:1052A00009FB12330AFB02FABFB247EA0347BA45C9
:1052B00008D917EB0C0702F1FF331BD2BA4519D9F5
:1052C000023A674442EA0145A5FB0001CAEB070721
:1052D0008F424FF000030AD305D02A461CE76246EE
:1052E000FDE63B4610E706FA08F68642F5D26A1E4E
:1052F000002311E71A46E5E70B46A0E71146CBE786
:10530000904687E74346424606E7023A50E70239AD
:105310002F4439E72DE9F00F144605460E46002BC1
:1053200043D18A4253D9B2FA82F757B1C7F1200666
:1053300020FA06F601FA07F302FA07F400FA07F575
:105340001E43210CB6FBF1F201FB1266A0B200FB7A
:1053500002F32F0C47EA0646B34209D9361902F187
:10536000FF3780F0FD80B34240F2FA80023A2644D3
:10537000F61AB6FBF1F301FB136100FB03F0ADB2CB
:1053800045EA0141884208D9091903F1FF3680F046
:10539000E980884240F2E680023B43EA0242002371
:1053A00010461946BDE8F00F70478B424CD8B3FA4F
:1053B00083F6002E4FD18B4202D3824200F2DD8071
:1053C000BDE8F00F0023012210461946704712B9BC
:1053D0000124B4FBF2F4B4FA84F2002A40F0828093
:1053E000091B260CA7B20123B1FBF6F006FB101136
:1053F00007FB00F24FEA154C4CEA01418A4207D9FB
:10540000091900F1FF3C02D28A4200F2C8806046CE
:10541000891AB1FBF6F206FB121107FB02F7ADB2D7
:1054200045EA0145AF4208D92C1902F1FF3180F05D
:105430009B80A74240F29880023A42EA004210461E
:105440001946BDE8F00F704700231A46104619466A
:10545000BDE8F00F7047C6F1200522FA05F703FA00
:1054600006F421FA05F301FA06FB20FA05F53C43A0
:105470004FEA1448B3FBF8FC08FB1C331FFA84F90D
:1054800009FB0CFA45EA0B0B4FEA1B4545EA0343BF
:105490009A4502FA06F204D91B190CF1FF356FD3B5
:1054A000AC46CAEB0303B3FBF8F508FB153309FB65
:1054B00005F91FFA8BFB4BEA0347B94504D93F199D
:1054C00005F1FF3362D31D4645EA0C4CACFB0223C9
:1054D000C9EB07079F424FF000054AD346D062460A
:1054E0002B465DE79440C2F1200921FA09FC914066
:1054F00020FA09F9260CBCFBF6F806FB18CCA7B27B
:1055000007FB08F349EA01094FEA194141EA0C4C4B
:10551000634500FA02F509D91CEB040C08F1FF32CF
:105520003BD2634539D9A8F10208A444C3EB0C0C63
:10553000BCFBF6F306FB13C107FB03F21FFA89F964
:1055400049EA01418A4207D9091903F1FF3022D201
:105550008A4220D9023B2144891A43EA084343E79F
:105560003A4605E7334618E70A4666E7B0409042F8
:10557000B5D20CF1FF32002312E7334632460FE773
:105580009A458DD9ACF1020C23448AE7B9459AD9E2
:10559000023D274498E70346DEE79046C6E7023817
:1055A000214435E710B40C4613460146224602203A
:1055B0005DF8044B00F070BF014B1868704700BFE6
:1055C000F012002008B50021044600F0C3FF044B90
:1055D0001868C36B03B198472046FDF77DFF00BFF5
:1055E000C492000870B50F4E0F4D761BB61007D051
:1055F000043D0024013455F8043F9847A642F9D1F0
:105600000A4E0B4D01F056F9761BB61008D0043D3A
:105610000024013455F8043F9847A642F9D170BDE3
:1056200070BD00BFC0680008C0680008DC680008E2
:10563000C0680008024B0146186800F00BB800BFB4
:10564000F0120020024B0146186801F067B800BF55
:10565000F01200202DE9F04F01F10B05162D83B05B
:10566000064627D935F0070527D4A94225D8304664
:1056700000F03CFBB5F5FC7F26D2C14F4FEAD50CBC
:1056800007EBCC03DC689C4200F0D2816368E268DF
:1056900023F0030323445868A16840F00105CA6061
:1056A000304691605D6000F023FB0834204603B073
:1056B000BDE8F08F1025A942D9D900240C2320463B
:1056C000336003B0BDE8F08F5FEA552C00F08980AD
:1056D000BCF1040F00F260814FEA951C0CF1380C0C
:1056E0004FEA4C01A64F07EB8101CC68A14205D1DE
:1056F0000CE0002B79DAE468A14207D0626822F05E
:105700000302531B0F2BF4DD0CF1FF3C0CF1010CD9
:105710009B4B3C6903F1080E744500F07E81616883
:1057200021F003014A1B0F2A00F36481002AC3F809
:1057300014E0C3F810E069DAB1F5007F80F03A8137
:10574000C9088A104FF0010808FA02F803EBC101FA
:105750005A68886848EA0202A060E1605A608C607A
:10576000C4604FEAAC030120984090425BD80242EB
:1057700006D12CF0030C400002420CF1040CFAD0CC
:1057800007EBCC084446E146E3689C4207D146E17A
:10579000002A80F25781DB689C4200F04081596802
:1057A00021F003014A1B0F2AF2DD1C4654F808CFF2
:1057B000D96845F0010942F001081D44C3F804907E
:1057C0003046CCF80C10C1F808C07D613D61C5F8C9
:1057D0000CE0C5F808E0C5F80480AA5000F088FA8B
:1057E00064E77E214FF03F0C7CE722445068E36879
:1057F000A16840F00105CB6030469960556000F02B
:1058000077FA0834204603B0BDE8F08F21444B6896
:10581000304643F001034B6000F06AFA083420463A
:1058200003B0BDE8F08FBC68636823F00309A945A5
:1058300004D3C5EB09030F2B00F39180514B524A5F
:105840001968136805EB010A013304EB090B00F03A
:1058500061810AF5805A0AF10F0A2AF47F6A2AF058
:105860000F0A30465146019200F04CFCB0F1FF3F68
:105870008046019A00F00181834500F2FB80DFF849
:1058800014C1C345DCF800305344CCF8003000F0BC
:105890004A8112683C4901321BBFCBEB080B5B44C9
:1058A000C1F80080CCF8003018F0070300F0148134
:1058B000C3F10802C3F5805390440833C244CAF3CD
:1058C0000B0ACAEB030A51463046CDF804C000F07B
:1058D00019FC431CDDF804C000F03581C8EB000260
:1058E000524442F00102DCF80030BC425344C7F895
:1058F0000880CCF80030C8F80420DFF898A015D054
:10590000B9F10F0F40F2EB806168A9F10C0222F0AF
:10591000070201F0010142EA010E0520A1180F2A39
:10592000C4F804E04860886000F21181174ABC683E
:1059300011688B4288BF1360154A11688B4288BF7B
:105940001360626822F003029542C5EB020301D89E
:105950000F2B04DC304600F0CBF90024A6E645F01E
:10596000010243F00103254462603046BD606B6074
:1059700000F0BEF90834204603B0BDE8F08F00BF48
:10598000F4120020281900200017002024190020FC
:10599000201900202C190020BCF1140F61D9BCF192
:1059A000540F00F28F804FEA153C0CF16E0C4FEA59
:1059B0004C0197E64B0A042B58D9142B00F2AD800A
:1059C00003F15B02500007EB80008368DFF8B881C9
:1059D000834200F08A805A6822F00302914202D288
:1059E0009B689842F7D1D9687A68E160A3608C60BF
:1059F000DC60B6E645F0010742F00101254467602E
:105A000030465D611D61C5F80CE0C5F808E06960CD
:105A1000AA50083400F06CF948E65A68A1E609F18A
:105A2000010919F0030F04F108047FF4ADAE2DE075
:105A300004F108036469A34208BF0CF1020C3FF4AF
:105A400067AE23E6194448681C4654F8082FDB6803
:105A500040F001054D603046D3609A6000F048F98F
:105A600024E60CF15B0C4FEA4C013BE68A09383224
:105A70005000A8E7BC423FF402AFBC68626822F065
:105A8000030261E7D8F8008098457AD11CF0030F33
:105A9000A8F108030CF1FF3CF4D17B6823EA000372
:105AA0007B60400098423FF6BEAE00283FF4BBAE9C
:105AB0000342CC467FF464AE400003420CF1040C78
:105AC000FAD05DE6BCF5AA7F19D84FEAD53C0CF1B7
:105AD000770C4FEA4C0105E64FF48053EEE60123C4
